{
	"Practice/GreedyBanker/greedyBanker.sol": {
		"GreedyBanker": {
			"abi": [
				{
					"inputs": [],
					"stateMutability": "nonpayable",
					"type": "constructor"
				},
				{
					"stateMutability": "payable",
					"type": "fallback"
				},
				{
					"inputs": [],
					"name": "collectFees",
					"outputs": [],
					"stateMutability": "nonpayable",
					"type": "function"
				},
				{
					"inputs": [],
					"name": "getBalance",
					"outputs": [
						{
							"internalType": "uint256",
							"name": "",
							"type": "uint256"
						}
					],
					"stateMutability": "view",
					"type": "function"
				},
				{
					"inputs": [
						{
							"internalType": "uint256",
							"name": "amount",
							"type": "uint256"
						}
					],
					"name": "withdraw",
					"outputs": [],
					"stateMutability": "nonpayable",
					"type": "function"
				},
				{
					"stateMutability": "payable",
					"type": "receive"
				}
			],
			"devdoc": {
				"kind": "dev",
				"methods": {},
				"version": 1
			},
			"evm": {
				"assembly": "    /* \"Practice/GreedyBanker/greedyBanker.sol\":64:1443  contract GreedyBanker {... */\n  mstore(0x40, 0x80)\n    /* \"Practice/GreedyBanker/greedyBanker.sol\":267:316  constructor() {... */\n  callvalue\n  dup1\n  iszero\n  tag_1\n  jumpi\n  0x00\n  dup1\n  revert\ntag_1:\n  pop\n    /* \"Practice/GreedyBanker/greedyBanker.sol\":299:309  msg.sender */\n  caller\n    /* \"Practice/GreedyBanker/greedyBanker.sol\":291:296  owner */\n  0x03\n  0x00\n    /* \"Practice/GreedyBanker/greedyBanker.sol\":291:309  owner = msg.sender */\n  0x0100\n  exp\n  dup2\n  sload\n  dup2\n  0xffffffffffffffffffffffffffffffffffffffff\n  mul\n  not\n  and\n  swap1\n  dup4\n  0xffffffffffffffffffffffffffffffffffffffff\n  and\n  mul\n  or\n  swap1\n  sstore\n  pop\n    /* \"Practice/GreedyBanker/greedyBanker.sol\":64:1443  contract GreedyBanker {... */\n  dataSize(sub_0)\n  dup1\n  dataOffset(sub_0)\n  0x00\n  codecopy\n  0x00\n  return\nstop\n\nsub_0: assembly {\n        /* \"Practice/GreedyBanker/greedyBanker.sol\":64:1443  contract GreedyBanker {... */\n      mstore(0x40, 0x80)\n      jumpi(tag_1, lt(calldatasize, 0x04))\n      shr(0xe0, calldataload(0x00))\n      dup1\n      0x12065fe0\n      eq\n      tag_3\n      jumpi\n      dup1\n      0x2e1a7d4d\n      eq\n      tag_4\n      jumpi\n      dup1\n      0xc8796572\n      eq\n      tag_5\n      jumpi\n      jump(tag_2)\n    tag_1:\n      jumpi(tag_2, calldatasize)\n        /* \"Practice/GreedyBanker/greedyBanker.sol\":359:377  uint256 depositFee */\n      0x00\n        /* \"Practice/GreedyBanker/greedyBanker.sol\":419:420  1 */\n      0x01\n        /* \"Practice/GreedyBanker/greedyBanker.sol\":391:403  depositCount */\n      dup1\n        /* \"Practice/GreedyBanker/greedyBanker.sol\":391:415  depositCount[msg.sender] */\n      0x00\n        /* \"Practice/GreedyBanker/greedyBanker.sol\":404:414  msg.sender */\n      caller\n        /* \"Practice/GreedyBanker/greedyBanker.sol\":391:415  depositCount[msg.sender] */\n      0xffffffffffffffffffffffffffffffffffffffff\n      and\n      0xffffffffffffffffffffffffffffffffffffffff\n      and\n      dup2\n      mstore\n      0x20\n      add\n      swap1\n      dup2\n      mstore\n      0x20\n      add\n      0x00\n      keccak256\n      sload\n        /* \"Practice/GreedyBanker/greedyBanker.sol\":391:420  depositCount[msg.sender] >= 1 */\n      lt\n        /* \"Practice/GreedyBanker/greedyBanker.sol\":387:543  if (depositCount[msg.sender] >= 1) {... */\n      tag_8\n      jumpi\n        /* \"Practice/GreedyBanker/greedyBanker.sol\":115:123  1000 wei */\n      0x03e8\n        /* \"Practice/GreedyBanker/greedyBanker.sol\":444:453  msg.value */\n      callvalue\n        /* \"Practice/GreedyBanker/greedyBanker.sol\":444:460  msg.value >= fee */\n      lt\n      iszero\n        /* \"Practice/GreedyBanker/greedyBanker.sol\":436:502  require(msg.value >= fee, \"amount is not enough to cover the fee\") */\n      tag_9\n      jumpi\n      mload(0x40)\n      0x08c379a000000000000000000000000000000000000000000000000000000000\n      dup2\n      mstore\n      0x04\n      add\n      tag_10\n      swap1\n      tag_11\n      jump\t// in\n    tag_10:\n      mload(0x40)\n      dup1\n      swap2\n      sub\n      swap1\n      revert\n    tag_9:\n        /* \"Practice/GreedyBanker/greedyBanker.sol\":115:123  1000 wei */\n      0x03e8\n        /* \"Practice/GreedyBanker/greedyBanker.sol\":516:532  depositFee = fee */\n      swap1\n      pop\n        /* \"Practice/GreedyBanker/greedyBanker.sol\":387:543  if (depositCount[msg.sender] >= 1) {... */\n    tag_8:\n        /* \"Practice/GreedyBanker/greedyBanker.sol\":589:599  depositFee */\n      dup1\n        /* \"Practice/GreedyBanker/greedyBanker.sol\":577:586  msg.value */\n      callvalue\n        /* \"Practice/GreedyBanker/greedyBanker.sol\":577:599  msg.value - depositFee */\n      tag_12\n      swap2\n      swap1\n      tag_13\n      jump\t// in\n    tag_12:\n        /* \"Practice/GreedyBanker/greedyBanker.sol\":553:561  balances */\n      0x00\n        /* \"Practice/GreedyBanker/greedyBanker.sol\":553:573  balances[msg.sender] */\n      dup1\n        /* \"Practice/GreedyBanker/greedyBanker.sol\":562:572  msg.sender */\n      caller\n        /* \"Practice/GreedyBanker/greedyBanker.sol\":553:573  balances[msg.sender] */\n      0xffffffffffffffffffffffffffffffffffffffff\n      and\n      0xffffffffffffffffffffffffffffffffffffffff\n      and\n      dup2\n      mstore\n      0x20\n      add\n      swap1\n      dup2\n      mstore\n      0x20\n      add\n      0x00\n      keccak256\n      0x00\n        /* \"Practice/GreedyBanker/greedyBanker.sol\":553:599  balances[msg.sender] += msg.value - depositFee */\n      dup3\n      dup3\n      sload\n      tag_14\n      swap2\n      swap1\n      tag_15\n      jump\t// in\n    tag_14:\n      swap3\n      pop\n      pop\n      dup2\n      swap1\n      sstore\n      pop\n        /* \"Practice/GreedyBanker/greedyBanker.sol\":626:636  depositFee */\n      dup1\n        /* \"Practice/GreedyBanker/greedyBanker.sol\":609:622  feesCollected */\n      0x02\n      0x00\n        /* \"Practice/GreedyBanker/greedyBanker.sol\":609:636  feesCollected += depositFee */\n      dup3\n      dup3\n      sload\n      tag_16\n      swap2\n      swap1\n      tag_15\n      jump\t// in\n    tag_16:\n      swap3\n      pop\n      pop\n      dup2\n      swap1\n      sstore\n      pop\n        /* \"Practice/GreedyBanker/greedyBanker.sol\":646:658  depositCount */\n      0x01\n        /* \"Practice/GreedyBanker/greedyBanker.sol\":646:670  depositCount[msg.sender] */\n      0x00\n        /* \"Practice/GreedyBanker/greedyBanker.sol\":659:669  msg.sender */\n      caller\n        /* \"Practice/GreedyBanker/greedyBanker.sol\":646:670  depositCount[msg.sender] */\n      0xffffffffffffffffffffffffffffffffffffffff\n      and\n      0xffffffffffffffffffffffffffffffffffffffff\n      and\n      dup2\n      mstore\n      0x20\n      add\n      swap1\n      dup2\n      mstore\n      0x20\n      add\n      0x00\n      keccak256\n      0x00\n        /* \"Practice/GreedyBanker/greedyBanker.sol\":646:672  depositCount[msg.sender]++ */\n      dup2\n      sload\n      dup1\n      swap3\n      swap2\n      swap1\n      tag_17\n      swap1\n      tag_18\n      jump\t// in\n    tag_17:\n      swap2\n      swap1\n      pop\n      sstore\n      stop\n        /* \"Practice/GreedyBanker/greedyBanker.sol\":64:1443  contract GreedyBanker {... */\n    tag_2:\n        /* \"Practice/GreedyBanker/greedyBanker.sol\":740:749  msg.value */\n      callvalue\n        /* \"Practice/GreedyBanker/greedyBanker.sol\":723:736  feesCollected */\n      0x02\n      0x00\n        /* \"Practice/GreedyBanker/greedyBanker.sol\":723:749  feesCollected += msg.value */\n      dup3\n      dup3\n      sload\n      tag_21\n      swap2\n      swap1\n      tag_15\n      jump\t// in\n    tag_21:\n      swap3\n      pop\n      pop\n      dup2\n      swap1\n      sstore\n      stop\n        /* \"Practice/GreedyBanker/greedyBanker.sol\":1345:1441  function getBalance() public view returns (uint256) {... */\n    tag_3:\n      callvalue\n      dup1\n      iszero\n      tag_22\n      jumpi\n      0x00\n      dup1\n      revert\n    tag_22:\n      pop\n      tag_23\n      tag_24\n      jump\t// in\n    tag_23:\n      mload(0x40)\n      tag_25\n      swap2\n      swap1\n      tag_26\n      jump\t// in\n    tag_25:\n      mload(0x40)\n      dup1\n      swap2\n      sub\n      swap1\n      return\n        /* \"Practice/GreedyBanker/greedyBanker.sol\":762:1036  function withdraw(uint256 amount) external {... */\n    tag_4:\n      callvalue\n      dup1\n      iszero\n      tag_27\n      jumpi\n      0x00\n      dup1\n      revert\n    tag_27:\n      pop\n      tag_28\n      0x04\n      dup1\n      calldatasize\n      sub\n      dup2\n      add\n      swap1\n      tag_29\n      swap2\n      swap1\n      tag_30\n      jump\t// in\n    tag_29:\n      tag_31\n      jump\t// in\n    tag_28:\n      stop\n        /* \"Practice/GreedyBanker/greedyBanker.sol\":1042:1339  function collectFees() external {... */\n    tag_5:\n      callvalue\n      dup1\n      iszero\n      tag_32\n      jumpi\n      0x00\n      dup1\n      revert\n    tag_32:\n      pop\n      tag_33\n      tag_34\n      jump\t// in\n    tag_33:\n      stop\n        /* \"Practice/GreedyBanker/greedyBanker.sol\":1345:1441  function getBalance() public view returns (uint256) {... */\n    tag_24:\n        /* \"Practice/GreedyBanker/greedyBanker.sol\":1388:1395  uint256 */\n      0x00\n        /* \"Practice/GreedyBanker/greedyBanker.sol\":1414:1422  balances */\n      dup1\n        /* \"Practice/GreedyBanker/greedyBanker.sol\":1414:1434  balances[msg.sender] */\n      0x00\n        /* \"Practice/GreedyBanker/greedyBanker.sol\":1423:1433  msg.sender */\n      caller\n        /* \"Practice/GreedyBanker/greedyBanker.sol\":1414:1434  balances[msg.sender] */\n      0xffffffffffffffffffffffffffffffffffffffff\n      and\n      0xffffffffffffffffffffffffffffffffffffffff\n      and\n      dup2\n      mstore\n      0x20\n      add\n      swap1\n      dup2\n      mstore\n      0x20\n      add\n      0x00\n      keccak256\n      sload\n        /* \"Practice/GreedyBanker/greedyBanker.sol\":1407:1434  return balances[msg.sender] */\n      swap1\n      pop\n        /* \"Practice/GreedyBanker/greedyBanker.sol\":1345:1441  function getBalance() public view returns (uint256) {... */\n      swap1\n      jump\t// out\n        /* \"Practice/GreedyBanker/greedyBanker.sol\":762:1036  function withdraw(uint256 amount) external {... */\n    tag_31:\n        /* \"Practice/GreedyBanker/greedyBanker.sol\":847:853  amount */\n      dup1\n        /* \"Practice/GreedyBanker/greedyBanker.sol\":823:831  balances */\n      0x00\n        /* \"Practice/GreedyBanker/greedyBanker.sol\":823:843  balances[msg.sender] */\n      dup1\n        /* \"Practice/GreedyBanker/greedyBanker.sol\":832:842  msg.sender */\n      caller\n        /* \"Practice/GreedyBanker/greedyBanker.sol\":823:843  balances[msg.sender] */\n      0xffffffffffffffffffffffffffffffffffffffff\n      and\n      0xffffffffffffffffffffffffffffffffffffffff\n      and\n      dup2\n      mstore\n      0x20\n      add\n      swap1\n      dup2\n      mstore\n      0x20\n      add\n      0x00\n      keccak256\n      sload\n        /* \"Practice/GreedyBanker/greedyBanker.sol\":823:853  balances[msg.sender] >= amount */\n      lt\n      iszero\n        /* \"Practice/GreedyBanker/greedyBanker.sol\":815:878  require(balances[msg.sender] >= amount, \"insufficient balance\") */\n      tag_37\n      jumpi\n      mload(0x40)\n      0x08c379a000000000000000000000000000000000000000000000000000000000\n      dup2\n      mstore\n      0x04\n      add\n      tag_38\n      swap1\n      tag_39\n      jump\t// in\n    tag_38:\n      mload(0x40)\n      dup1\n      swap2\n      sub\n      swap1\n      revert\n    tag_37:\n        /* \"Practice/GreedyBanker/greedyBanker.sol\":912:918  amount */\n      dup1\n        /* \"Practice/GreedyBanker/greedyBanker.sol\":888:896  balances */\n      0x00\n        /* \"Practice/GreedyBanker/greedyBanker.sol\":888:908  balances[msg.sender] */\n      dup1\n        /* \"Practice/GreedyBanker/greedyBanker.sol\":897:907  msg.sender */\n      caller\n        /* \"Practice/GreedyBanker/greedyBanker.sol\":888:908  balances[msg.sender] */\n      0xffffffffffffffffffffffffffffffffffffffff\n      and\n      0xffffffffffffffffffffffffffffffffffffffff\n      and\n      dup2\n      mstore\n      0x20\n      add\n      swap1\n      dup2\n      mstore\n      0x20\n      add\n      0x00\n      keccak256\n      0x00\n        /* \"Practice/GreedyBanker/greedyBanker.sol\":888:918  balances[msg.sender] -= amount */\n      dup3\n      dup3\n      sload\n      tag_40\n      swap2\n      swap1\n      tag_13\n      jump\t// in\n    tag_40:\n      swap3\n      pop\n      pop\n      dup2\n      swap1\n      sstore\n      pop\n        /* \"Practice/GreedyBanker/greedyBanker.sol\":929:938  bool sent */\n      0x00\n        /* \"Practice/GreedyBanker/greedyBanker.sol\":952:962  msg.sender */\n      caller\n        /* \"Practice/GreedyBanker/greedyBanker.sol\":944:968  payable(msg.sender).call */\n      0xffffffffffffffffffffffffffffffffffffffff\n      and\n        /* \"Practice/GreedyBanker/greedyBanker.sol\":976:982  amount */\n      dup3\n        /* \"Practice/GreedyBanker/greedyBanker.sol\":944:987  payable(msg.sender).call{value: amount}(\"\") */\n      mload(0x40)\n      tag_41\n      swap1\n      tag_42\n      jump\t// in\n    tag_41:\n      0x00\n      mload(0x40)\n      dup1\n      dup4\n      sub\n      dup2\n      dup6\n      dup8\n      gas\n      call\n      swap3\n      pop\n      pop\n      pop\n      returndatasize\n      dup1\n      0x00\n      dup2\n      eq\n      tag_45\n      jumpi\n      mload(0x40)\n      swap2\n      pop\n      and(add(returndatasize, 0x3f), not(0x1f))\n      dup3\n      add\n      0x40\n      mstore\n      returndatasize\n      dup3\n      mstore\n      returndatasize\n      0x00\n      0x20\n      dup5\n      add\n      returndatacopy\n      jump(tag_44)\n    tag_45:\n      0x60\n      swap2\n      pop\n    tag_44:\n      pop\n        /* \"Practice/GreedyBanker/greedyBanker.sol\":928:987  (bool sent, ) = payable(msg.sender).call{value: amount}(\"\") */\n      pop\n      swap1\n      pop\n        /* \"Practice/GreedyBanker/greedyBanker.sol\":1005:1009  sent */\n      dup1\n        /* \"Practice/GreedyBanker/greedyBanker.sol\":997:1029  require(sent, \"withdraw failed\") */\n      tag_46\n      jumpi\n      mload(0x40)\n      0x08c379a000000000000000000000000000000000000000000000000000000000\n      dup2\n      mstore\n      0x04\n      add\n      tag_47\n      swap1\n      tag_48\n      jump\t// in\n    tag_47:\n      mload(0x40)\n      dup1\n      swap2\n      sub\n      swap1\n      revert\n    tag_46:\n        /* \"Practice/GreedyBanker/greedyBanker.sol\":805:1036  {... */\n      pop\n        /* \"Practice/GreedyBanker/greedyBanker.sol\":762:1036  function withdraw(uint256 amount) external {... */\n      pop\n      jump\t// out\n        /* \"Practice/GreedyBanker/greedyBanker.sol\":1042:1339  function collectFees() external {... */\n    tag_34:\n        /* \"Practice/GreedyBanker/greedyBanker.sol\":1106:1111  owner */\n      0x03\n      0x00\n      swap1\n      sload\n      swap1\n      0x0100\n      exp\n      swap1\n      div\n      0xffffffffffffffffffffffffffffffffffffffff\n      and\n        /* \"Practice/GreedyBanker/greedyBanker.sol\":1092:1111  msg.sender == owner */\n      0xffffffffffffffffffffffffffffffffffffffff\n      and\n        /* \"Practice/GreedyBanker/greedyBanker.sol\":1092:1102  msg.sender */\n      caller\n        /* \"Practice/GreedyBanker/greedyBanker.sol\":1092:1111  msg.sender == owner */\n      0xffffffffffffffffffffffffffffffffffffffff\n      and\n      eq\n        /* \"Practice/GreedyBanker/greedyBanker.sol\":1084:1153  require(msg.sender == owner, \"only the owner can call this function\") */\n      tag_50\n      jumpi\n      mload(0x40)\n      0x08c379a000000000000000000000000000000000000000000000000000000000\n      dup2\n      mstore\n      0x04\n      add\n      tag_51\n      swap1\n      tag_52\n      jump\t// in\n    tag_51:\n      mload(0x40)\n      dup1\n      swap2\n      sub\n      swap1\n      revert\n    tag_50:\n        /* \"Practice/GreedyBanker/greedyBanker.sol\":1163:1180  uint256 totalFees */\n      0x00\n        /* \"Practice/GreedyBanker/greedyBanker.sol\":1183:1196  feesCollected */\n      sload(0x02)\n        /* \"Practice/GreedyBanker/greedyBanker.sol\":1163:1196  uint256 totalFees = feesCollected */\n      swap1\n      pop\n        /* \"Practice/GreedyBanker/greedyBanker.sol\":1222:1223  0 */\n      0x00\n        /* \"Practice/GreedyBanker/greedyBanker.sol\":1206:1219  feesCollected */\n      0x02\n        /* \"Practice/GreedyBanker/greedyBanker.sol\":1206:1223  feesCollected = 0 */\n      dup2\n      swap1\n      sstore\n      pop\n        /* \"Practice/GreedyBanker/greedyBanker.sol\":1234:1243  bool sent */\n      0x00\n        /* \"Practice/GreedyBanker/greedyBanker.sol\":1257:1262  owner */\n      0x03\n      0x00\n      swap1\n      sload\n      swap1\n      0x0100\n      exp\n      swap1\n      div\n      0xffffffffffffffffffffffffffffffffffffffff\n      and\n        /* \"Practice/GreedyBanker/greedyBanker.sol\":1249:1268  payable(owner).call */\n      0xffffffffffffffffffffffffffffffffffffffff\n      and\n        /* \"Practice/GreedyBanker/greedyBanker.sol\":1276:1285  totalFees */\n      dup3\n        /* \"Practice/GreedyBanker/greedyBanker.sol\":1249:1290  payable(owner).call{value: totalFees}(\"\") */\n      mload(0x40)\n      tag_53\n      swap1\n      tag_42\n      jump\t// in\n    tag_53:\n      0x00\n      mload(0x40)\n      dup1\n      dup4\n      sub\n      dup2\n      dup6\n      dup8\n      gas\n      call\n      swap3\n      pop\n      pop\n      pop\n      returndatasize\n      dup1\n      0x00\n      dup2\n      eq\n      tag_56\n      jumpi\n      mload(0x40)\n      swap2\n      pop\n      and(add(returndatasize, 0x3f), not(0x1f))\n      dup3\n      add\n      0x40\n      mstore\n      returndatasize\n      dup3\n      mstore\n      returndatasize\n      0x00\n      0x20\n      dup5\n      add\n      returndatacopy\n      jump(tag_55)\n    tag_56:\n      0x60\n      swap2\n      pop\n    tag_55:\n      pop\n        /* \"Practice/GreedyBanker/greedyBanker.sol\":1233:1290  (bool sent, ) = payable(owner).call{value: totalFees}(\"\") */\n      pop\n      swap1\n      pop\n        /* \"Practice/GreedyBanker/greedyBanker.sol\":1308:1312  sent */\n      dup1\n        /* \"Practice/GreedyBanker/greedyBanker.sol\":1300:1332  require(sent, \"transfer failed\") */\n      tag_57\n      jumpi\n      mload(0x40)\n      0x08c379a000000000000000000000000000000000000000000000000000000000\n      dup2\n      mstore\n      0x04\n      add\n      tag_58\n      swap1\n      tag_59\n      jump\t// in\n    tag_58:\n      mload(0x40)\n      dup1\n      swap2\n      sub\n      swap1\n      revert\n    tag_57:\n        /* \"Practice/GreedyBanker/greedyBanker.sol\":1074:1339  {... */\n      pop\n      pop\n        /* \"Practice/GreedyBanker/greedyBanker.sol\":1042:1339  function collectFees() external {... */\n      jump\t// out\n        /* \"#utility.yul\":7:176   */\n    tag_60:\n        /* \"#utility.yul\":91:102   */\n      0x00\n        /* \"#utility.yul\":125:131   */\n      dup3\n        /* \"#utility.yul\":120:123   */\n      dup3\n        /* \"#utility.yul\":113:132   */\n      mstore\n        /* \"#utility.yul\":165:169   */\n      0x20\n        /* \"#utility.yul\":160:163   */\n      dup3\n        /* \"#utility.yul\":156:170   */\n      add\n        /* \"#utility.yul\":141:170   */\n      swap1\n      pop\n        /* \"#utility.yul\":7:176   */\n      swap3\n      swap2\n      pop\n      pop\n      jump\t// out\n        /* \"#utility.yul\":182:406   */\n    tag_61:\n        /* \"#utility.yul\":322:356   */\n      0x616d6f756e74206973206e6f7420656e6f75676820746f20636f766572207468\n        /* \"#utility.yul\":318:319   */\n      0x00\n        /* \"#utility.yul\":310:316   */\n      dup3\n        /* \"#utility.yul\":306:320   */\n      add\n        /* \"#utility.yul\":299:357   */\n      mstore\n        /* \"#utility.yul\":391:398   */\n      0x6520666565000000000000000000000000000000000000000000000000000000\n        /* \"#utility.yul\":386:388   */\n      0x20\n        /* \"#utility.yul\":378:384   */\n      dup3\n        /* \"#utility.yul\":374:389   */\n      add\n        /* \"#utility.yul\":367:399   */\n      mstore\n        /* \"#utility.yul\":182:406   */\n      pop\n      jump\t// out\n        /* \"#utility.yul\":412:778   */\n    tag_62:\n        /* \"#utility.yul\":554:557   */\n      0x00\n        /* \"#utility.yul\":575:642   */\n      tag_86\n        /* \"#utility.yul\":639:641   */\n      0x25\n        /* \"#utility.yul\":634:637   */\n      dup4\n        /* \"#utility.yul\":575:642   */\n      tag_60\n      jump\t// in\n    tag_86:\n        /* \"#utility.yul\":568:642   */\n      swap2\n      pop\n        /* \"#utility.yul\":651:744   */\n      tag_87\n        /* \"#utility.yul\":740:743   */\n      dup3\n        /* \"#utility.yul\":651:744   */\n      tag_61\n      jump\t// in\n    tag_87:\n        /* \"#utility.yul\":769:771   */\n      0x40\n        /* \"#utility.yul\":764:767   */\n      dup3\n        /* \"#utility.yul\":760:772   */\n      add\n        /* \"#utility.yul\":753:772   */\n      swap1\n      pop\n        /* \"#utility.yul\":412:778   */\n      swap2\n      swap1\n      pop\n      jump\t// out\n        /* \"#utility.yul\":784:1203   */\n    tag_11:\n        /* \"#utility.yul\":950:954   */\n      0x00\n        /* \"#utility.yul\":988:990   */\n      0x20\n        /* \"#utility.yul\":977:986   */\n      dup3\n        /* \"#utility.yul\":973:991   */\n      add\n        /* \"#utility.yul\":965:991   */\n      swap1\n      pop\n        /* \"#utility.yul\":1037:1046   */\n      dup2\n        /* \"#utility.yul\":1031:1035   */\n      dup2\n        /* \"#utility.yul\":1027:1047   */\n      sub\n        /* \"#utility.yul\":1023:1024   */\n      0x00\n        /* \"#utility.yul\":1012:1021   */\n      dup4\n        /* \"#utility.yul\":1008:1025   */\n      add\n        /* \"#utility.yul\":1001:1048   */\n      mstore\n        /* \"#utility.yul\":1065:1196   */\n      tag_89\n        /* \"#utility.yul\":1191:1195   */\n      dup2\n        /* \"#utility.yul\":1065:1196   */\n      tag_62\n      jump\t// in\n    tag_89:\n        /* \"#utility.yul\":1057:1196   */\n      swap1\n      pop\n        /* \"#utility.yul\":784:1203   */\n      swap2\n      swap1\n      pop\n      jump\t// out\n        /* \"#utility.yul\":1209:1286   */\n    tag_63:\n        /* \"#utility.yul\":1246:1253   */\n      0x00\n        /* \"#utility.yul\":1275:1280   */\n      dup2\n        /* \"#utility.yul\":1264:1280   */\n      swap1\n      pop\n        /* \"#utility.yul\":1209:1286   */\n      swap2\n      swap1\n      pop\n      jump\t// out\n        /* \"#utility.yul\":1292:1472   */\n    tag_64:\n        /* \"#utility.yul\":1340:1417   */\n      0x4e487b7100000000000000000000000000000000000000000000000000000000\n        /* \"#utility.yul\":1337:1338   */\n      0x00\n        /* \"#utility.yul\":1330:1418   */\n      mstore\n        /* \"#utility.yul\":1437:1441   */\n      0x11\n        /* \"#utility.yul\":1434:1435   */\n      0x04\n        /* \"#utility.yul\":1427:1442   */\n      mstore\n        /* \"#utility.yul\":1461:1465   */\n      0x24\n        /* \"#utility.yul\":1458:1459   */\n      0x00\n        /* \"#utility.yul\":1451:1466   */\n      revert\n        /* \"#utility.yul\":1478:1672   */\n    tag_13:\n        /* \"#utility.yul\":1518:1522   */\n      0x00\n        /* \"#utility.yul\":1538:1558   */\n      tag_93\n        /* \"#utility.yul\":1556:1557   */\n      dup3\n        /* \"#utility.yul\":1538:1558   */\n      tag_63\n      jump\t// in\n    tag_93:\n        /* \"#utility.yul\":1533:1558   */\n      swap2\n      pop\n        /* \"#utility.yul\":1572:1592   */\n      tag_94\n        /* \"#utility.yul\":1590:1591   */\n      dup4\n        /* \"#utility.yul\":1572:1592   */\n      tag_63\n      jump\t// in\n    tag_94:\n        /* \"#utility.yul\":1567:1592   */\n      swap3\n      pop\n        /* \"#utility.yul\":1616:1617   */\n      dup3\n        /* \"#utility.yul\":1613:1614   */\n      dup3\n        /* \"#utility.yul\":1609:1618   */\n      sub\n        /* \"#utility.yul\":1601:1618   */\n      swap1\n      pop\n        /* \"#utility.yul\":1640:1641   */\n      dup2\n        /* \"#utility.yul\":1634:1638   */\n      dup2\n        /* \"#utility.yul\":1631:1642   */\n      gt\n        /* \"#utility.yul\":1628:1665   */\n      iszero\n      tag_95\n      jumpi\n        /* \"#utility.yul\":1645:1663   */\n      tag_96\n      tag_64\n      jump\t// in\n    tag_96:\n        /* \"#utility.yul\":1628:1665   */\n    tag_95:\n        /* \"#utility.yul\":1478:1672   */\n      swap3\n      swap2\n      pop\n      pop\n      jump\t// out\n        /* \"#utility.yul\":1678:1869   */\n    tag_15:\n        /* \"#utility.yul\":1718:1721   */\n      0x00\n        /* \"#utility.yul\":1737:1757   */\n      tag_98\n        /* \"#utility.yul\":1755:1756   */\n      dup3\n        /* \"#utility.yul\":1737:1757   */\n      tag_63\n      jump\t// in\n    tag_98:\n        /* \"#utility.yul\":1732:1757   */\n      swap2\n      pop\n        /* \"#utility.yul\":1771:1791   */\n      tag_99\n        /* \"#utility.yul\":1789:1790   */\n      dup4\n        /* \"#utility.yul\":1771:1791   */\n      tag_63\n      jump\t// in\n    tag_99:\n        /* \"#utility.yul\":1766:1791   */\n      swap3\n      pop\n        /* \"#utility.yul\":1814:1815   */\n      dup3\n        /* \"#utility.yul\":1811:1812   */\n      dup3\n        /* \"#utility.yul\":1807:1816   */\n      add\n        /* \"#utility.yul\":1800:1816   */\n      swap1\n      pop\n        /* \"#utility.yul\":1835:1838   */\n      dup1\n        /* \"#utility.yul\":1832:1833   */\n      dup3\n        /* \"#utility.yul\":1829:1839   */\n      gt\n        /* \"#utility.yul\":1826:1862   */\n      iszero\n      tag_100\n      jumpi\n        /* \"#utility.yul\":1842:1860   */\n      tag_101\n      tag_64\n      jump\t// in\n    tag_101:\n        /* \"#utility.yul\":1826:1862   */\n    tag_100:\n        /* \"#utility.yul\":1678:1869   */\n      swap3\n      swap2\n      pop\n      pop\n      jump\t// out\n        /* \"#utility.yul\":1875:2108   */\n    tag_18:\n        /* \"#utility.yul\":1914:1917   */\n      0x00\n        /* \"#utility.yul\":1937:1961   */\n      tag_103\n        /* \"#utility.yul\":1955:1960   */\n      dup3\n        /* \"#utility.yul\":1937:1961   */\n      tag_63\n      jump\t// in\n    tag_103:\n        /* \"#utility.yul\":1928:1961   */\n      swap2\n      pop\n        /* \"#utility.yul\":1983:2049   */\n      0xffffffffffffffffffffffffffffffffffffffffffffffffffffffffffffffff\n        /* \"#utility.yul\":1976:1981   */\n      dup3\n        /* \"#utility.yul\":1973:2050   */\n      sub\n        /* \"#utility.yul\":1970:2073   */\n      tag_104\n      jumpi\n        /* \"#utility.yul\":2053:2071   */\n      tag_105\n      tag_64\n      jump\t// in\n    tag_105:\n        /* \"#utility.yul\":1970:2073   */\n    tag_104:\n        /* \"#utility.yul\":2100:2101   */\n      0x01\n        /* \"#utility.yul\":2093:2098   */\n      dup3\n        /* \"#utility.yul\":2089:2102   */\n      add\n        /* \"#utility.yul\":2082:2102   */\n      swap1\n      pop\n        /* \"#utility.yul\":1875:2108   */\n      swap2\n      swap1\n      pop\n      jump\t// out\n        /* \"#utility.yul\":2114:2232   */\n    tag_65:\n        /* \"#utility.yul\":2201:2225   */\n      tag_107\n        /* \"#utility.yul\":2219:2224   */\n      dup2\n        /* \"#utility.yul\":2201:2225   */\n      tag_63\n      jump\t// in\n    tag_107:\n        /* \"#utility.yul\":2196:2199   */\n      dup3\n        /* \"#utility.yul\":2189:2226   */\n      mstore\n        /* \"#utility.yul\":2114:2232   */\n      pop\n      pop\n      jump\t// out\n        /* \"#utility.yul\":2238:2460   */\n    tag_26:\n        /* \"#utility.yul\":2331:2335   */\n      0x00\n        /* \"#utility.yul\":2369:2371   */\n      0x20\n        /* \"#utility.yul\":2358:2367   */\n      dup3\n        /* \"#utility.yul\":2354:2372   */\n      add\n        /* \"#utility.yul\":2346:2372   */\n      swap1\n      pop\n        /* \"#utility.yul\":2382:2453   */\n      tag_109\n        /* \"#utility.yul\":2450:2451   */\n      0x00\n        /* \"#utility.yul\":2439:2448   */\n      dup4\n        /* \"#utility.yul\":2435:2452   */\n      add\n        /* \"#utility.yul\":2426:2432   */\n      dup5\n        /* \"#utility.yul\":2382:2453   */\n      tag_65\n      jump\t// in\n    tag_109:\n        /* \"#utility.yul\":2238:2460   */\n      swap3\n      swap2\n      pop\n      pop\n      jump\t// out\n        /* \"#utility.yul\":2547:2664   */\n    tag_67:\n        /* \"#utility.yul\":2656:2657   */\n      0x00\n        /* \"#utility.yul\":2653:2654   */\n      dup1\n        /* \"#utility.yul\":2646:2658   */\n      revert\n        /* \"#utility.yul\":2793:2915   */\n    tag_69:\n        /* \"#utility.yul\":2866:2890   */\n      tag_114\n        /* \"#utility.yul\":2884:2889   */\n      dup2\n        /* \"#utility.yul\":2866:2890   */\n      tag_63\n      jump\t// in\n    tag_114:\n        /* \"#utility.yul\":2859:2864   */\n      dup2\n        /* \"#utility.yul\":2856:2891   */\n      eq\n        /* \"#utility.yul\":2846:2909   */\n      tag_115\n      jumpi\n        /* \"#utility.yul\":2905:2906   */\n      0x00\n        /* \"#utility.yul\":2902:2903   */\n      dup1\n        /* \"#utility.yul\":2895:2907   */\n      revert\n        /* \"#utility.yul\":2846:2909   */\n    tag_115:\n        /* \"#utility.yul\":2793:2915   */\n      pop\n      jump\t// out\n        /* \"#utility.yul\":2921:3060   */\n    tag_70:\n        /* \"#utility.yul\":2967:2972   */\n      0x00\n        /* \"#utility.yul\":3005:3011   */\n      dup2\n        /* \"#utility.yul\":2992:3012   */\n      calldataload\n        /* \"#utility.yul\":2983:3012   */\n      swap1\n      pop\n        /* \"#utility.yul\":3021:3054   */\n      tag_117\n        /* \"#utility.yul\":3048:3053   */\n      dup2\n        /* \"#utility.yul\":3021:3054   */\n      tag_69\n      jump\t// in\n    tag_117:\n        /* \"#utility.yul\":2921:3060   */\n      swap3\n      swap2\n      pop\n      pop\n      jump\t// out\n        /* \"#utility.yul\":3066:3395   */\n    tag_30:\n        /* \"#utility.yul\":3125:3131   */\n      0x00\n        /* \"#utility.yul\":3174:3176   */\n      0x20\n        /* \"#utility.yul\":3162:3171   */\n      dup3\n        /* \"#utility.yul\":3153:3160   */\n      dup5\n        /* \"#utility.yul\":3149:3172   */\n      sub\n        /* \"#utility.yul\":3145:3177   */\n      slt\n        /* \"#utility.yul\":3142:3261   */\n      iszero\n      tag_119\n      jumpi\n        /* \"#utility.yul\":3180:3259   */\n      tag_120\n      tag_67\n      jump\t// in\n    tag_120:\n        /* \"#utility.yul\":3142:3261   */\n    tag_119:\n        /* \"#utility.yul\":3300:3301   */\n      0x00\n        /* \"#utility.yul\":3325:3378   */\n      tag_121\n        /* \"#utility.yul\":3370:3377   */\n      dup5\n        /* \"#utility.yul\":3361:3367   */\n      dup3\n        /* \"#utility.yul\":3350:3359   */\n      dup6\n        /* \"#utility.yul\":3346:3368   */\n      add\n        /* \"#utility.yul\":3325:3378   */\n      tag_70\n      jump\t// in\n    tag_121:\n        /* \"#utility.yul\":3315:3378   */\n      swap2\n      pop\n        /* \"#utility.yul\":3271:3388   */\n      pop\n        /* \"#utility.yul\":3066:3395   */\n      swap3\n      swap2\n      pop\n      pop\n      jump\t// out\n        /* \"#utility.yul\":3401:3571   */\n    tag_71:\n        /* \"#utility.yul\":3541:3563   */\n      0x696e73756666696369656e742062616c616e6365000000000000000000000000\n        /* \"#utility.yul\":3537:3538   */\n      0x00\n        /* \"#utility.yul\":3529:3535   */\n      dup3\n        /* \"#utility.yul\":3525:3539   */\n      add\n        /* \"#utility.yul\":3518:3564   */\n      mstore\n        /* \"#utility.yul\":3401:3571   */\n      pop\n      jump\t// out\n        /* \"#utility.yul\":3577:3943   */\n    tag_72:\n        /* \"#utility.yul\":3719:3722   */\n      0x00\n        /* \"#utility.yul\":3740:3807   */\n      tag_124\n        /* \"#utility.yul\":3804:3806   */\n      0x14\n        /* \"#utility.yul\":3799:3802   */\n      dup4\n        /* \"#utility.yul\":3740:3807   */\n      tag_60\n      jump\t// in\n    tag_124:\n        /* \"#utility.yul\":3733:3807   */\n      swap2\n      pop\n        /* \"#utility.yul\":3816:3909   */\n      tag_125\n        /* \"#utility.yul\":3905:3908   */\n      dup3\n        /* \"#utility.yul\":3816:3909   */\n      tag_71\n      jump\t// in\n    tag_125:\n        /* \"#utility.yul\":3934:3936   */\n      0x20\n        /* \"#utility.yul\":3929:3932   */\n      dup3\n        /* \"#utility.yul\":3925:3937   */\n      add\n        /* \"#utility.yul\":3918:3937   */\n      swap1\n      pop\n        /* \"#utility.yul\":3577:3943   */\n      swap2\n      swap1\n      pop\n      jump\t// out\n        /* \"#utility.yul\":3949:4368   */\n    tag_39:\n        /* \"#utility.yul\":4115:4119   */\n      0x00\n        /* \"#utility.yul\":4153:4155   */\n      0x20\n        /* \"#utility.yul\":4142:4151   */\n      dup3\n        /* \"#utility.yul\":4138:4156   */\n      add\n        /* \"#utility.yul\":4130:4156   */\n      swap1\n      pop\n        /* \"#utility.yul\":4202:4211   */\n      dup2\n        /* \"#utility.yul\":4196:4200   */\n      dup2\n        /* \"#utility.yul\":4192:4212   */\n      sub\n        /* \"#utility.yul\":4188:4189   */\n      0x00\n        /* \"#utility.yul\":4177:4186   */\n      dup4\n        /* \"#utility.yul\":4173:4190   */\n      add\n        /* \"#utility.yul\":4166:4213   */\n      mstore\n        /* \"#utility.yul\":4230:4361   */\n      tag_127\n        /* \"#utility.yul\":4356:4360   */\n      dup2\n        /* \"#utility.yul\":4230:4361   */\n      tag_72\n      jump\t// in\n    tag_127:\n        /* \"#utility.yul\":4222:4361   */\n      swap1\n      pop\n        /* \"#utility.yul\":3949:4368   */\n      swap2\n      swap1\n      pop\n      jump\t// out\n        /* \"#utility.yul\":4374:4521   */\n    tag_73:\n        /* \"#utility.yul\":4475:4486   */\n      0x00\n        /* \"#utility.yul\":4512:4515   */\n      dup2\n        /* \"#utility.yul\":4497:4515   */\n      swap1\n      pop\n        /* \"#utility.yul\":4374:4521   */\n      swap3\n      swap2\n      pop\n      pop\n      jump\t// out\n        /* \"#utility.yul\":4527:4641   */\n    tag_74:\n      pop\n      jump\t// out\n        /* \"#utility.yul\":4647:5045   */\n    tag_75:\n        /* \"#utility.yul\":4806:4809   */\n      0x00\n        /* \"#utility.yul\":4827:4910   */\n      tag_131\n        /* \"#utility.yul\":4908:4909   */\n      0x00\n        /* \"#utility.yul\":4903:4906   */\n      dup4\n        /* \"#utility.yul\":4827:4910   */\n      tag_73\n      jump\t// in\n    tag_131:\n        /* \"#utility.yul\":4820:4910   */\n      swap2\n      pop\n        /* \"#utility.yul\":4919:5012   */\n      tag_132\n        /* \"#utility.yul\":5008:5011   */\n      dup3\n        /* \"#utility.yul\":4919:5012   */\n      tag_74\n      jump\t// in\n    tag_132:\n        /* \"#utility.yul\":5037:5038   */\n      0x00\n        /* \"#utility.yul\":5032:5035   */\n      dup3\n        /* \"#utility.yul\":5028:5039   */\n      add\n        /* \"#utility.yul\":5021:5039   */\n      swap1\n      pop\n        /* \"#utility.yul\":4647:5045   */\n      swap2\n      swap1\n      pop\n      jump\t// out\n        /* \"#utility.yul\":5051:5430   */\n    tag_42:\n        /* \"#utility.yul\":5235:5238   */\n      0x00\n        /* \"#utility.yul\":5257:5404   */\n      tag_134\n        /* \"#utility.yul\":5400:5403   */\n      dup3\n        /* \"#utility.yul\":5257:5404   */\n      tag_75\n      jump\t// in\n    tag_134:\n        /* \"#utility.yul\":5250:5404   */\n      swap2\n      pop\n        /* \"#utility.yul\":5421:5424   */\n      dup2\n        /* \"#utility.yul\":5414:5424   */\n      swap1\n      pop\n        /* \"#utility.yul\":5051:5430   */\n      swap2\n      swap1\n      pop\n      jump\t// out\n        /* \"#utility.yul\":5436:5601   */\n    tag_76:\n        /* \"#utility.yul\":5576:5593   */\n      0x7769746864726177206661696c65640000000000000000000000000000000000\n        /* \"#utility.yul\":5572:5573   */\n      0x00\n        /* \"#utility.yul\":5564:5570   */\n      dup3\n        /* \"#utility.yul\":5560:5574   */\n      add\n        /* \"#utility.yul\":5553:5594   */\n      mstore\n        /* \"#utility.yul\":5436:5601   */\n      pop\n      jump\t// out\n        /* \"#utility.yul\":5607:5973   */\n    tag_77:\n        /* \"#utility.yul\":5749:5752   */\n      0x00\n        /* \"#utility.yul\":5770:5837   */\n      tag_137\n        /* \"#utility.yul\":5834:5836   */\n      0x0f\n        /* \"#utility.yul\":5829:5832   */\n      dup4\n        /* \"#utility.yul\":5770:5837   */\n      tag_60\n      jump\t// in\n    tag_137:\n        /* \"#utility.yul\":5763:5837   */\n      swap2\n      pop\n        /* \"#utility.yul\":5846:5939   */\n      tag_138\n        /* \"#utility.yul\":5935:5938   */\n      dup3\n        /* \"#utility.yul\":5846:5939   */\n      tag_76\n      jump\t// in\n    tag_138:\n        /* \"#utility.yul\":5964:5966   */\n      0x20\n        /* \"#utility.yul\":5959:5962   */\n      dup3\n        /* \"#utility.yul\":5955:5967   */\n      add\n        /* \"#utility.yul\":5948:5967   */\n      swap1\n      pop\n        /* \"#utility.yul\":5607:5973   */\n      swap2\n      swap1\n      pop\n      jump\t// out\n        /* \"#utility.yul\":5979:6398   */\n    tag_48:\n        /* \"#utility.yul\":6145:6149   */\n      0x00\n        /* \"#utility.yul\":6183:6185   */\n      0x20\n        /* \"#utility.yul\":6172:6181   */\n      dup3\n        /* \"#utility.yul\":6168:6186   */\n      add\n        /* \"#utility.yul\":6160:6186   */\n      swap1\n      pop\n        /* \"#utility.yul\":6232:6241   */\n      dup2\n        /* \"#utility.yul\":6226:6230   */\n      dup2\n        /* \"#utility.yul\":6222:6242   */\n      sub\n        /* \"#utility.yul\":6218:6219   */\n      0x00\n        /* \"#utility.yul\":6207:6216   */\n      dup4\n        /* \"#utility.yul\":6203:6220   */\n      add\n        /* \"#utility.yul\":6196:6243   */\n      mstore\n        /* \"#utility.yul\":6260:6391   */\n      tag_140\n        /* \"#utility.yul\":6386:6390   */\n      dup2\n        /* \"#utility.yul\":6260:6391   */\n      tag_77\n      jump\t// in\n    tag_140:\n        /* \"#utility.yul\":6252:6391   */\n      swap1\n      pop\n        /* \"#utility.yul\":5979:6398   */\n      swap2\n      swap1\n      pop\n      jump\t// out\n        /* \"#utility.yul\":6404:6628   */\n    tag_78:\n        /* \"#utility.yul\":6544:6578   */\n      0x6f6e6c7920746865206f776e65722063616e2063616c6c20746869732066756e\n        /* \"#utility.yul\":6540:6541   */\n      0x00\n        /* \"#utility.yul\":6532:6538   */\n      dup3\n        /* \"#utility.yul\":6528:6542   */\n      add\n        /* \"#utility.yul\":6521:6579   */\n      mstore\n        /* \"#utility.yul\":6613:6620   */\n      0x6374696f6e000000000000000000000000000000000000000000000000000000\n        /* \"#utility.yul\":6608:6610   */\n      0x20\n        /* \"#utility.yul\":6600:6606   */\n      dup3\n        /* \"#utility.yul\":6596:6611   */\n      add\n        /* \"#utility.yul\":6589:6621   */\n      mstore\n        /* \"#utility.yul\":6404:6628   */\n      pop\n      jump\t// out\n        /* \"#utility.yul\":6634:7000   */\n    tag_79:\n        /* \"#utility.yul\":6776:6779   */\n      0x00\n        /* \"#utility.yul\":6797:6864   */\n      tag_143\n        /* \"#utility.yul\":6861:6863   */\n      0x25\n        /* \"#utility.yul\":6856:6859   */\n      dup4\n        /* \"#utility.yul\":6797:6864   */\n      tag_60\n      jump\t// in\n    tag_143:\n        /* \"#utility.yul\":6790:6864   */\n      swap2\n      pop\n        /* \"#utility.yul\":6873:6966   */\n      tag_144\n        /* \"#utility.yul\":6962:6965   */\n      dup3\n        /* \"#utility.yul\":6873:6966   */\n      tag_78\n      jump\t// in\n    tag_144:\n        /* \"#utility.yul\":6991:6993   */\n      0x40\n        /* \"#utility.yul\":6986:6989   */\n      dup3\n        /* \"#utility.yul\":6982:6994   */\n      add\n        /* \"#utility.yul\":6975:6994   */\n      swap1\n      pop\n        /* \"#utility.yul\":6634:7000   */\n      swap2\n      swap1\n      pop\n      jump\t// out\n        /* \"#utility.yul\":7006:7425   */\n    tag_52:\n        /* \"#utility.yul\":7172:7176   */\n      0x00\n        /* \"#utility.yul\":7210:7212   */\n      0x20\n        /* \"#utility.yul\":7199:7208   */\n      dup3\n        /* \"#utility.yul\":7195:7213   */\n      add\n        /* \"#utility.yul\":7187:7213   */\n      swap1\n      pop\n        /* \"#utility.yul\":7259:7268   */\n      dup2\n        /* \"#utility.yul\":7253:7257   */\n      dup2\n        /* \"#utility.yul\":7249:7269   */\n      sub\n        /* \"#utility.yul\":7245:7246   */\n      0x00\n        /* \"#utility.yul\":7234:7243   */\n      dup4\n        /* \"#utility.yul\":7230:7247   */\n      add\n        /* \"#utility.yul\":7223:7270   */\n      mstore\n        /* \"#utility.yul\":7287:7418   */\n      tag_146\n        /* \"#utility.yul\":7413:7417   */\n      dup2\n        /* \"#utility.yul\":7287:7418   */\n      tag_79\n      jump\t// in\n    tag_146:\n        /* \"#utility.yul\":7279:7418   */\n      swap1\n      pop\n        /* \"#utility.yul\":7006:7425   */\n      swap2\n      swap1\n      pop\n      jump\t// out\n        /* \"#utility.yul\":7431:7596   */\n    tag_80:\n        /* \"#utility.yul\":7571:7588   */\n      0x7472616e73666572206661696c65640000000000000000000000000000000000\n        /* \"#utility.yul\":7567:7568   */\n      0x00\n        /* \"#utility.yul\":7559:7565   */\n      dup3\n        /* \"#utility.yul\":7555:7569   */\n      add\n        /* \"#utility.yul\":7548:7589   */\n      mstore\n        /* \"#utility.yul\":7431:7596   */\n      pop\n      jump\t// out\n        /* \"#utility.yul\":7602:7968   */\n    tag_81:\n        /* \"#utility.yul\":7744:7747   */\n      0x00\n        /* \"#utility.yul\":7765:7832   */\n      tag_149\n        /* \"#utility.yul\":7829:7831   */\n      0x0f\n        /* \"#utility.yul\":7824:7827   */\n      dup4\n        /* \"#utility.yul\":7765:7832   */\n      tag_60\n      jump\t// in\n    tag_149:\n        /* \"#utility.yul\":7758:7832   */\n      swap2\n      pop\n        /* \"#utility.yul\":7841:7934   */\n      tag_150\n        /* \"#utility.yul\":7930:7933   */\n      dup3\n        /* \"#utility.yul\":7841:7934   */\n      tag_80\n      jump\t// in\n    tag_150:\n        /* \"#utility.yul\":7959:7961   */\n      0x20\n        /* \"#utility.yul\":7954:7957   */\n      dup3\n        /* \"#utility.yul\":7950:7962   */\n      add\n        /* \"#utility.yul\":7943:7962   */\n      swap1\n      pop\n        /* \"#utility.yul\":7602:7968   */\n      swap2\n      swap1\n      pop\n      jump\t// out\n        /* \"#utility.yul\":7974:8393   */\n    tag_59:\n        /* \"#utility.yul\":8140:8144   */\n      0x00\n        /* \"#utility.yul\":8178:8180   */\n      0x20\n        /* \"#utility.yul\":8167:8176   */\n      dup3\n        /* \"#utility.yul\":8163:8181   */\n      add\n        /* \"#utility.yul\":8155:8181   */\n      swap1\n      pop\n        /* \"#utility.yul\":8227:8236   */\n      dup2\n        /* \"#utility.yul\":8221:8225   */\n      dup2\n        /* \"#utility.yul\":8217:8237   */\n      sub\n        /* \"#utility.yul\":8213:8214   */\n      0x00\n        /* \"#utility.yul\":8202:8211   */\n      dup4\n        /* \"#utility.yul\":8198:8215   */\n      add\n        /* \"#utility.yul\":8191:8238   */\n      mstore\n        /* \"#utility.yul\":8255:8386   */\n      tag_152\n        /* \"#utility.yul\":8381:8385   */\n      dup2\n        /* \"#utility.yul\":8255:8386   */\n      tag_81\n      jump\t// in\n    tag_152:\n        /* \"#utility.yul\":8247:8386   */\n      swap1\n      pop\n        /* \"#utility.yul\":7974:8393   */\n      swap2\n      swap1\n      pop\n      jump\t// out\n\n    auxdata: 0xa2646970667358221220a87a9e787458975a90ee553ce5656c6a029f602174c5f8bee4e981f016df4f7864736f6c63430008110033\n}\n",
				"bytecode": {
					"linkReferences": {},
					"object": "608060405234801561001057600080fd5b5033600360006101000a81548173ffffffffffffffffffffffffffffffffffffffff021916908373ffffffffffffffffffffffffffffffffffffffff1602179055506109c7806100616000396000f3fe6080604052600436106100385760003560e01c806312065fe0146101b95780632e1a7d4d146101e4578063c87965721461020d5761019f565b3661019f57600060018060003373ffffffffffffffffffffffffffffffffffffffff1673ffffffffffffffffffffffffffffffffffffffff16815260200190815260200160002054106100d0576103e83410156100ca576040517f08c379a00000000000000000000000000000000000000000000000000000000081526004016100c1906105e4565b60405180910390fd5b6103e890505b80346100dc919061063d565b6000803373ffffffffffffffffffffffffffffffffffffffff1673ffffffffffffffffffffffffffffffffffffffff16815260200190815260200160002060008282546101299190610671565b9250508190555080600260008282546101429190610671565b92505081905550600160003373ffffffffffffffffffffffffffffffffffffffff1673ffffffffffffffffffffffffffffffffffffffff1681526020019081526020016000206000815480929190610199906106a5565b91905055005b34600260008282546101b19190610671565b925050819055005b3480156101c557600080fd5b506101ce610224565b6040516101db91906106fc565b60405180910390f35b3480156101f057600080fd5b5061020b60048036038101906102069190610748565b61026a565b005b34801561021957600080fd5b506102226103f0565b005b60008060003373ffffffffffffffffffffffffffffffffffffffff1673ffffffffffffffffffffffffffffffffffffffff16815260200190815260200160002054905090565b806000803373ffffffffffffffffffffffffffffffffffffffff1673ffffffffffffffffffffffffffffffffffffffff1681526020019081526020016000205410156102eb576040517f08c379a00000000000000000000000000000000000000000000000000000000081526004016102e2906107c1565b60405180910390fd5b806000803373ffffffffffffffffffffffffffffffffffffffff1673ffffffffffffffffffffffffffffffffffffffff1681526020019081526020016000206000828254610339919061063d565b9250508190555060003373ffffffffffffffffffffffffffffffffffffffff168260405161036690610812565b60006040518083038185875af1925050503d80600081146103a3576040519150601f19603f3d011682016040523d82523d6000602084013e6103a8565b606091505b50509050806103ec576040517f08c379a00000000000000000000000000000000000000000000000000000000081526004016103e390610873565b60405180910390fd5b5050565b600360009054906101000a900473ffffffffffffffffffffffffffffffffffffffff1673ffffffffffffffffffffffffffffffffffffffff163373ffffffffffffffffffffffffffffffffffffffff1614610480576040517f08c379a000000000000000000000000000000000000000000000000000000000815260040161047790610905565b60405180910390fd5b6000600254905060006002819055506000600360009054906101000a900473ffffffffffffffffffffffffffffffffffffffff1673ffffffffffffffffffffffffffffffffffffffff16826040516104d790610812565b60006040518083038185875af1925050503d8060008114610514576040519150601f19603f3d011682016040523d82523d6000602084013e610519565b606091505b505090508061055d576040517f08c379a000000000000000000000000000000000000000000000000000000000815260040161055490610971565b60405180910390fd5b5050565b600082825260208201905092915050565b7f616d6f756e74206973206e6f7420656e6f75676820746f20636f76657220746860008201527f6520666565000000000000000000000000000000000000000000000000000000602082015250565b60006105ce602583610561565b91506105d982610572565b604082019050919050565b600060208201905081810360008301526105fd816105c1565b9050919050565b6000819050919050565b7f4e487b7100000000000000000000000000000000000000000000000000000000600052601160045260246000fd5b600061064882610604565b915061065383610604565b925082820390508181111561066b5761066a61060e565b5b92915050565b600061067c82610604565b915061068783610604565b925082820190508082111561069f5761069e61060e565b5b92915050565b60006106b082610604565b91507fffffffffffffffffffffffffffffffffffffffffffffffffffffffffffffffff82036106e2576106e161060e565b5b600182019050919050565b6106f681610604565b82525050565b600060208201905061071160008301846106ed565b92915050565b600080fd5b61072581610604565b811461073057600080fd5b50565b6000813590506107428161071c565b92915050565b60006020828403121561075e5761075d610717565b5b600061076c84828501610733565b91505092915050565b7f696e73756666696369656e742062616c616e6365000000000000000000000000600082015250565b60006107ab601483610561565b91506107b682610775565b602082019050919050565b600060208201905081810360008301526107da8161079e565b9050919050565b600081905092915050565b50565b60006107fc6000836107e1565b9150610807826107ec565b600082019050919050565b600061081d826107ef565b9150819050919050565b7f7769746864726177206661696c65640000000000000000000000000000000000600082015250565b600061085d600f83610561565b915061086882610827565b602082019050919050565b6000602082019050818103600083015261088c81610850565b9050919050565b7f6f6e6c7920746865206f776e65722063616e2063616c6c20746869732066756e60008201527f6374696f6e000000000000000000000000000000000000000000000000000000602082015250565b60006108ef602583610561565b91506108fa82610893565b604082019050919050565b6000602082019050818103600083015261091e816108e2565b9050919050565b7f7472616e73666572206661696c65640000000000000000000000000000000000600082015250565b600061095b600f83610561565b915061096682610925565b602082019050919050565b6000602082019050818103600083015261098a8161094e565b905091905056fea2646970667358221220a87a9e787458975a90ee553ce5656c6a029f602174c5f8bee4e981f016df4f7864736f6c63430008110033",
					"opcodes": "PUSH1 0x80 PUSH1 0x40 MSTORE CALLVALUE DUP1 ISZERO PUSH2 0x10 JUMPI PUSH1 0x0 DUP1 REVERT JUMPDEST POP CALLER PUSH1 0x3 PUSH1 0x0 PUSH2 0x100 EXP DUP2 SLOAD DUP2 PUSH20 0xFFFFFFFFFFFFFFFFFFFFFFFFFFFFFFFFFFFFFFFF MUL NOT AND SWAP1 DUP4 PUSH20 0xFFFFFFFFFFFFFFFFFFFFFFFFFFFFFFFFFFFFFFFF AND MUL OR SWAP1 SSTORE POP PUSH2 0x9C7 DUP1 PUSH2 0x61 PUSH1 0x0 CODECOPY PUSH1 0x0 RETURN INVALID PUSH1 0x80 PUSH1 0x40 MSTORE PUSH1 0x4 CALLDATASIZE LT PUSH2 0x38 JUMPI PUSH1 0x0 CALLDATALOAD PUSH1 0xE0 SHR DUP1 PUSH4 0x12065FE0 EQ PUSH2 0x1B9 JUMPI DUP1 PUSH4 0x2E1A7D4D EQ PUSH2 0x1E4 JUMPI DUP1 PUSH4 0xC8796572 EQ PUSH2 0x20D JUMPI PUSH2 0x19F JUMP JUMPDEST CALLDATASIZE PUSH2 0x19F JUMPI PUSH1 0x0 PUSH1 0x1 DUP1 PUSH1 0x0 CALLER PUSH20 0xFFFFFFFFFFFFFFFFFFFFFFFFFFFFFFFFFFFFFFFF AND PUSH20 0xFFFFFFFFFFFFFFFFFFFFFFFFFFFFFFFFFFFFFFFF AND DUP2 MSTORE PUSH1 0x20 ADD SWAP1 DUP2 MSTORE PUSH1 0x20 ADD PUSH1 0x0 KECCAK256 SLOAD LT PUSH2 0xD0 JUMPI PUSH2 0x3E8 CALLVALUE LT ISZERO PUSH2 0xCA JUMPI PUSH1 0x40 MLOAD PUSH32 0x8C379A000000000000000000000000000000000000000000000000000000000 DUP2 MSTORE PUSH1 0x4 ADD PUSH2 0xC1 SWAP1 PUSH2 0x5E4 JUMP JUMPDEST PUSH1 0x40 MLOAD DUP1 SWAP2 SUB SWAP1 REVERT JUMPDEST PUSH2 0x3E8 SWAP1 POP JUMPDEST DUP1 CALLVALUE PUSH2 0xDC SWAP2 SWAP1 PUSH2 0x63D JUMP JUMPDEST PUSH1 0x0 DUP1 CALLER PUSH20 0xFFFFFFFFFFFFFFFFFFFFFFFFFFFFFFFFFFFFFFFF AND PUSH20 0xFFFFFFFFFFFFFFFFFFFFFFFFFFFFFFFFFFFFFFFF AND DUP2 MSTORE PUSH1 0x20 ADD SWAP1 DUP2 MSTORE PUSH1 0x20 ADD PUSH1 0x0 KECCAK256 PUSH1 0x0 DUP3 DUP3 SLOAD PUSH2 0x129 SWAP2 SWAP1 PUSH2 0x671 JUMP JUMPDEST SWAP3 POP POP DUP2 SWAP1 SSTORE POP DUP1 PUSH1 0x2 PUSH1 0x0 DUP3 DUP3 SLOAD PUSH2 0x142 SWAP2 SWAP1 PUSH2 0x671 JUMP JUMPDEST SWAP3 POP POP DUP2 SWAP1 SSTORE POP PUSH1 0x1 PUSH1 0x0 CALLER PUSH20 0xFFFFFFFFFFFFFFFFFFFFFFFFFFFFFFFFFFFFFFFF AND PUSH20 0xFFFFFFFFFFFFFFFFFFFFFFFFFFFFFFFFFFFFFFFF AND DUP2 MSTORE PUSH1 0x20 ADD SWAP1 DUP2 MSTORE PUSH1 0x20 ADD PUSH1 0x0 KECCAK256 PUSH1 0x0 DUP2 SLOAD DUP1 SWAP3 SWAP2 SWAP1 PUSH2 0x199 SWAP1 PUSH2 0x6A5 JUMP JUMPDEST SWAP2 SWAP1 POP SSTORE STOP JUMPDEST CALLVALUE PUSH1 0x2 PUSH1 0x0 DUP3 DUP3 SLOAD PUSH2 0x1B1 SWAP2 SWAP1 PUSH2 0x671 JUMP JUMPDEST SWAP3 POP POP DUP2 SWAP1 SSTORE STOP JUMPDEST CALLVALUE DUP1 ISZERO PUSH2 0x1C5 JUMPI PUSH1 0x0 DUP1 REVERT JUMPDEST POP PUSH2 0x1CE PUSH2 0x224 JUMP JUMPDEST PUSH1 0x40 MLOAD PUSH2 0x1DB SWAP2 SWAP1 PUSH2 0x6FC JUMP JUMPDEST PUSH1 0x40 MLOAD DUP1 SWAP2 SUB SWAP1 RETURN JUMPDEST CALLVALUE DUP1 ISZERO PUSH2 0x1F0 JUMPI PUSH1 0x0 DUP1 REVERT JUMPDEST POP PUSH2 0x20B PUSH1 0x4 DUP1 CALLDATASIZE SUB DUP2 ADD SWAP1 PUSH2 0x206 SWAP2 SWAP1 PUSH2 0x748 JUMP JUMPDEST PUSH2 0x26A JUMP JUMPDEST STOP JUMPDEST CALLVALUE DUP1 ISZERO PUSH2 0x219 JUMPI PUSH1 0x0 DUP1 REVERT JUMPDEST POP PUSH2 0x222 PUSH2 0x3F0 JUMP JUMPDEST STOP JUMPDEST PUSH1 0x0 DUP1 PUSH1 0x0 CALLER PUSH20 0xFFFFFFFFFFFFFFFFFFFFFFFFFFFFFFFFFFFFFFFF AND PUSH20 0xFFFFFFFFFFFFFFFFFFFFFFFFFFFFFFFFFFFFFFFF AND DUP2 MSTORE PUSH1 0x20 ADD SWAP1 DUP2 MSTORE PUSH1 0x20 ADD PUSH1 0x0 KECCAK256 SLOAD SWAP1 POP SWAP1 JUMP JUMPDEST DUP1 PUSH1 0x0 DUP1 CALLER PUSH20 0xFFFFFFFFFFFFFFFFFFFFFFFFFFFFFFFFFFFFFFFF AND PUSH20 0xFFFFFFFFFFFFFFFFFFFFFFFFFFFFFFFFFFFFFFFF AND DUP2 MSTORE PUSH1 0x20 ADD SWAP1 DUP2 MSTORE PUSH1 0x20 ADD PUSH1 0x0 KECCAK256 SLOAD LT ISZERO PUSH2 0x2EB JUMPI PUSH1 0x40 MLOAD PUSH32 0x8C379A000000000000000000000000000000000000000000000000000000000 DUP2 MSTORE PUSH1 0x4 ADD PUSH2 0x2E2 SWAP1 PUSH2 0x7C1 JUMP JUMPDEST PUSH1 0x40 MLOAD DUP1 SWAP2 SUB SWAP1 REVERT JUMPDEST DUP1 PUSH1 0x0 DUP1 CALLER PUSH20 0xFFFFFFFFFFFFFFFFFFFFFFFFFFFFFFFFFFFFFFFF AND PUSH20 0xFFFFFFFFFFFFFFFFFFFFFFFFFFFFFFFFFFFFFFFF AND DUP2 MSTORE PUSH1 0x20 ADD SWAP1 DUP2 MSTORE PUSH1 0x20 ADD PUSH1 0x0 KECCAK256 PUSH1 0x0 DUP3 DUP3 SLOAD PUSH2 0x339 SWAP2 SWAP1 PUSH2 0x63D JUMP JUMPDEST SWAP3 POP POP DUP2 SWAP1 SSTORE POP PUSH1 0x0 CALLER PUSH20 0xFFFFFFFFFFFFFFFFFFFFFFFFFFFFFFFFFFFFFFFF AND DUP3 PUSH1 0x40 MLOAD PUSH2 0x366 SWAP1 PUSH2 0x812 JUMP JUMPDEST PUSH1 0x0 PUSH1 0x40 MLOAD DUP1 DUP4 SUB DUP2 DUP6 DUP8 GAS CALL SWAP3 POP POP POP RETURNDATASIZE DUP1 PUSH1 0x0 DUP2 EQ PUSH2 0x3A3 JUMPI PUSH1 0x40 MLOAD SWAP2 POP PUSH1 0x1F NOT PUSH1 0x3F RETURNDATASIZE ADD AND DUP3 ADD PUSH1 0x40 MSTORE RETURNDATASIZE DUP3 MSTORE RETURNDATASIZE PUSH1 0x0 PUSH1 0x20 DUP5 ADD RETURNDATACOPY PUSH2 0x3A8 JUMP JUMPDEST PUSH1 0x60 SWAP2 POP JUMPDEST POP POP SWAP1 POP DUP1 PUSH2 0x3EC JUMPI PUSH1 0x40 MLOAD PUSH32 0x8C379A000000000000000000000000000000000000000000000000000000000 DUP2 MSTORE PUSH1 0x4 ADD PUSH2 0x3E3 SWAP1 PUSH2 0x873 JUMP JUMPDEST PUSH1 0x40 MLOAD DUP1 SWAP2 SUB SWAP1 REVERT JUMPDEST POP POP JUMP JUMPDEST PUSH1 0x3 PUSH1 0x0 SWAP1 SLOAD SWAP1 PUSH2 0x100 EXP SWAP1 DIV PUSH20 0xFFFFFFFFFFFFFFFFFFFFFFFFFFFFFFFFFFFFFFFF AND PUSH20 0xFFFFFFFFFFFFFFFFFFFFFFFFFFFFFFFFFFFFFFFF AND CALLER PUSH20 0xFFFFFFFFFFFFFFFFFFFFFFFFFFFFFFFFFFFFFFFF AND EQ PUSH2 0x480 JUMPI PUSH1 0x40 MLOAD PUSH32 0x8C379A000000000000000000000000000000000000000000000000000000000 DUP2 MSTORE PUSH1 0x4 ADD PUSH2 0x477 SWAP1 PUSH2 0x905 JUMP JUMPDEST PUSH1 0x40 MLOAD DUP1 SWAP2 SUB SWAP1 REVERT JUMPDEST PUSH1 0x0 PUSH1 0x2 SLOAD SWAP1 POP PUSH1 0x0 PUSH1 0x2 DUP2 SWAP1 SSTORE POP PUSH1 0x0 PUSH1 0x3 PUSH1 0x0 SWAP1 SLOAD SWAP1 PUSH2 0x100 EXP SWAP1 DIV PUSH20 0xFFFFFFFFFFFFFFFFFFFFFFFFFFFFFFFFFFFFFFFF AND PUSH20 0xFFFFFFFFFFFFFFFFFFFFFFFFFFFFFFFFFFFFFFFF AND DUP3 PUSH1 0x40 MLOAD PUSH2 0x4D7 SWAP1 PUSH2 0x812 JUMP JUMPDEST PUSH1 0x0 PUSH1 0x40 MLOAD DUP1 DUP4 SUB DUP2 DUP6 DUP8 GAS CALL SWAP3 POP POP POP RETURNDATASIZE DUP1 PUSH1 0x0 DUP2 EQ PUSH2 0x514 JUMPI PUSH1 0x40 MLOAD SWAP2 POP PUSH1 0x1F NOT PUSH1 0x3F RETURNDATASIZE ADD AND DUP3 ADD PUSH1 0x40 MSTORE RETURNDATASIZE DUP3 MSTORE RETURNDATASIZE PUSH1 0x0 PUSH1 0x20 DUP5 ADD RETURNDATACOPY PUSH2 0x519 JUMP JUMPDEST PUSH1 0x60 SWAP2 POP JUMPDEST POP POP SWAP1 POP DUP1 PUSH2 0x55D JUMPI PUSH1 0x40 MLOAD PUSH32 0x8C379A000000000000000000000000000000000000000000000000000000000 DUP2 MSTORE PUSH1 0x4 ADD PUSH2 0x554 SWAP1 PUSH2 0x971 JUMP JUMPDEST PUSH1 0x40 MLOAD DUP1 SWAP2 SUB SWAP1 REVERT JUMPDEST POP POP JUMP JUMPDEST PUSH1 0x0 DUP3 DUP3 MSTORE PUSH1 0x20 DUP3 ADD SWAP1 POP SWAP3 SWAP2 POP POP JUMP JUMPDEST PUSH32 0x616D6F756E74206973206E6F7420656E6F75676820746F20636F766572207468 PUSH1 0x0 DUP3 ADD MSTORE PUSH32 0x6520666565000000000000000000000000000000000000000000000000000000 PUSH1 0x20 DUP3 ADD MSTORE POP JUMP JUMPDEST PUSH1 0x0 PUSH2 0x5CE PUSH1 0x25 DUP4 PUSH2 0x561 JUMP JUMPDEST SWAP2 POP PUSH2 0x5D9 DUP3 PUSH2 0x572 JUMP JUMPDEST PUSH1 0x40 DUP3 ADD SWAP1 POP SWAP2 SWAP1 POP JUMP JUMPDEST PUSH1 0x0 PUSH1 0x20 DUP3 ADD SWAP1 POP DUP2 DUP2 SUB PUSH1 0x0 DUP4 ADD MSTORE PUSH2 0x5FD DUP2 PUSH2 0x5C1 JUMP JUMPDEST SWAP1 POP SWAP2 SWAP1 POP JUMP JUMPDEST PUSH1 0x0 DUP2 SWAP1 POP SWAP2 SWAP1 POP JUMP JUMPDEST PUSH32 0x4E487B7100000000000000000000000000000000000000000000000000000000 PUSH1 0x0 MSTORE PUSH1 0x11 PUSH1 0x4 MSTORE PUSH1 0x24 PUSH1 0x0 REVERT JUMPDEST PUSH1 0x0 PUSH2 0x648 DUP3 PUSH2 0x604 JUMP JUMPDEST SWAP2 POP PUSH2 0x653 DUP4 PUSH2 0x604 JUMP JUMPDEST SWAP3 POP DUP3 DUP3 SUB SWAP1 POP DUP2 DUP2 GT ISZERO PUSH2 0x66B JUMPI PUSH2 0x66A PUSH2 0x60E JUMP JUMPDEST JUMPDEST SWAP3 SWAP2 POP POP JUMP JUMPDEST PUSH1 0x0 PUSH2 0x67C DUP3 PUSH2 0x604 JUMP JUMPDEST SWAP2 POP PUSH2 0x687 DUP4 PUSH2 0x604 JUMP JUMPDEST SWAP3 POP DUP3 DUP3 ADD SWAP1 POP DUP1 DUP3 GT ISZERO PUSH2 0x69F JUMPI PUSH2 0x69E PUSH2 0x60E JUMP JUMPDEST JUMPDEST SWAP3 SWAP2 POP POP JUMP JUMPDEST PUSH1 0x0 PUSH2 0x6B0 DUP3 PUSH2 0x604 JUMP JUMPDEST SWAP2 POP PUSH32 0xFFFFFFFFFFFFFFFFFFFFFFFFFFFFFFFFFFFFFFFFFFFFFFFFFFFFFFFFFFFFFFFF DUP3 SUB PUSH2 0x6E2 JUMPI PUSH2 0x6E1 PUSH2 0x60E JUMP JUMPDEST JUMPDEST PUSH1 0x1 DUP3 ADD SWAP1 POP SWAP2 SWAP1 POP JUMP JUMPDEST PUSH2 0x6F6 DUP2 PUSH2 0x604 JUMP JUMPDEST DUP3 MSTORE POP POP JUMP JUMPDEST PUSH1 0x0 PUSH1 0x20 DUP3 ADD SWAP1 POP PUSH2 0x711 PUSH1 0x0 DUP4 ADD DUP5 PUSH2 0x6ED JUMP JUMPDEST SWAP3 SWAP2 POP POP JUMP JUMPDEST PUSH1 0x0 DUP1 REVERT JUMPDEST PUSH2 0x725 DUP2 PUSH2 0x604 JUMP JUMPDEST DUP2 EQ PUSH2 0x730 JUMPI PUSH1 0x0 DUP1 REVERT JUMPDEST POP JUMP JUMPDEST PUSH1 0x0 DUP2 CALLDATALOAD SWAP1 POP PUSH2 0x742 DUP2 PUSH2 0x71C JUMP JUMPDEST SWAP3 SWAP2 POP POP JUMP JUMPDEST PUSH1 0x0 PUSH1 0x20 DUP3 DUP5 SUB SLT ISZERO PUSH2 0x75E JUMPI PUSH2 0x75D PUSH2 0x717 JUMP JUMPDEST JUMPDEST PUSH1 0x0 PUSH2 0x76C DUP5 DUP3 DUP6 ADD PUSH2 0x733 JUMP JUMPDEST SWAP2 POP POP SWAP3 SWAP2 POP POP JUMP JUMPDEST PUSH32 0x696E73756666696369656E742062616C616E6365000000000000000000000000 PUSH1 0x0 DUP3 ADD MSTORE POP JUMP JUMPDEST PUSH1 0x0 PUSH2 0x7AB PUSH1 0x14 DUP4 PUSH2 0x561 JUMP JUMPDEST SWAP2 POP PUSH2 0x7B6 DUP3 PUSH2 0x775 JUMP JUMPDEST PUSH1 0x20 DUP3 ADD SWAP1 POP SWAP2 SWAP1 POP JUMP JUMPDEST PUSH1 0x0 PUSH1 0x20 DUP3 ADD SWAP1 POP DUP2 DUP2 SUB PUSH1 0x0 DUP4 ADD MSTORE PUSH2 0x7DA DUP2 PUSH2 0x79E JUMP JUMPDEST SWAP1 POP SWAP2 SWAP1 POP JUMP JUMPDEST PUSH1 0x0 DUP2 SWAP1 POP SWAP3 SWAP2 POP POP JUMP JUMPDEST POP JUMP JUMPDEST PUSH1 0x0 PUSH2 0x7FC PUSH1 0x0 DUP4 PUSH2 0x7E1 JUMP JUMPDEST SWAP2 POP PUSH2 0x807 DUP3 PUSH2 0x7EC JUMP JUMPDEST PUSH1 0x0 DUP3 ADD SWAP1 POP SWAP2 SWAP1 POP JUMP JUMPDEST PUSH1 0x0 PUSH2 0x81D DUP3 PUSH2 0x7EF JUMP JUMPDEST SWAP2 POP DUP2 SWAP1 POP SWAP2 SWAP1 POP JUMP JUMPDEST PUSH32 0x7769746864726177206661696C65640000000000000000000000000000000000 PUSH1 0x0 DUP3 ADD MSTORE POP JUMP JUMPDEST PUSH1 0x0 PUSH2 0x85D PUSH1 0xF DUP4 PUSH2 0x561 JUMP JUMPDEST SWAP2 POP PUSH2 0x868 DUP3 PUSH2 0x827 JUMP JUMPDEST PUSH1 0x20 DUP3 ADD SWAP1 POP SWAP2 SWAP1 POP JUMP JUMPDEST PUSH1 0x0 PUSH1 0x20 DUP3 ADD SWAP1 POP DUP2 DUP2 SUB PUSH1 0x0 DUP4 ADD MSTORE PUSH2 0x88C DUP2 PUSH2 0x850 JUMP JUMPDEST SWAP1 POP SWAP2 SWAP1 POP JUMP JUMPDEST PUSH32 0x6F6E6C7920746865206F776E65722063616E2063616C6C20746869732066756E PUSH1 0x0 DUP3 ADD MSTORE PUSH32 0x6374696F6E000000000000000000000000000000000000000000000000000000 PUSH1 0x20 DUP3 ADD MSTORE POP JUMP JUMPDEST PUSH1 0x0 PUSH2 0x8EF PUSH1 0x25 DUP4 PUSH2 0x561 JUMP JUMPDEST SWAP2 POP PUSH2 0x8FA DUP3 PUSH2 0x893 JUMP JUMPDEST PUSH1 0x40 DUP3 ADD SWAP1 POP SWAP2 SWAP1 POP JUMP JUMPDEST PUSH1 0x0 PUSH1 0x20 DUP3 ADD SWAP1 POP DUP2 DUP2 SUB PUSH1 0x0 DUP4 ADD MSTORE PUSH2 0x91E DUP2 PUSH2 0x8E2 JUMP JUMPDEST SWAP1 POP SWAP2 SWAP1 POP JUMP JUMPDEST PUSH32 0x7472616E73666572206661696C65640000000000000000000000000000000000 PUSH1 0x0 DUP3 ADD MSTORE POP JUMP JUMPDEST PUSH1 0x0 PUSH2 0x95B PUSH1 0xF DUP4 PUSH2 0x561 JUMP JUMPDEST SWAP2 POP PUSH2 0x966 DUP3 PUSH2 0x925 JUMP JUMPDEST PUSH1 0x20 DUP3 ADD SWAP1 POP SWAP2 SWAP1 POP JUMP JUMPDEST PUSH1 0x0 PUSH1 0x20 DUP3 ADD SWAP1 POP DUP2 DUP2 SUB PUSH1 0x0 DUP4 ADD MSTORE PUSH2 0x98A DUP2 PUSH2 0x94E JUMP JUMPDEST SWAP1 POP SWAP2 SWAP1 POP JUMP INVALID LOG2 PUSH5 0x6970667358 0x22 SLT KECCAK256 0xA8 PUSH27 0x9E787458975A90EE553CE5656C6A029F602174C5F8BEE4E981F016 0xDF 0x4F PUSH25 0x64736F6C634300081100330000000000000000000000000000 "
				},
				"gasEstimates": {
					"creation": {
						"codeDepositCost": "500600",
						"executionCost": "24803",
						"totalCost": "525403"
					},
					"external": {
						"": "infinite",
						"collectFees()": "infinite",
						"getBalance()": "2504",
						"withdraw(uint256)": "infinite"
					}
				},
				"methodIdentifiers": {
					"collectFees()": "c8796572",
					"getBalance()": "12065fe0",
					"withdraw(uint256)": "2e1a7d4d"
				}
			},
			"storageLayout": {
				"storage": [
					{
						"astId": 8,
						"contract": "Practice/GreedyBanker/greedyBanker.sol:GreedyBanker",
						"label": "balances",
						"offset": 0,
						"slot": "0",
						"type": "t_mapping(t_address,t_uint256)"
					},
					{
						"astId": 12,
						"contract": "Practice/GreedyBanker/greedyBanker.sol:GreedyBanker",
						"label": "depositCount",
						"offset": 0,
						"slot": "1",
						"type": "t_mapping(t_address,t_uint256)"
					},
					{
						"astId": 14,
						"contract": "Practice/GreedyBanker/greedyBanker.sol:GreedyBanker",
						"label": "feesCollected",
						"offset": 0,
						"slot": "2",
						"type": "t_uint256"
					},
					{
						"astId": 16,
						"contract": "Practice/GreedyBanker/greedyBanker.sol:GreedyBanker",
						"label": "owner",
						"offset": 0,
						"slot": "3",
						"type": "t_address"
					}
				],
				"types": {
					"t_address": {
						"encoding": "inplace",
						"label": "address",
						"numberOfBytes": "20"
					},
					"t_mapping(t_address,t_uint256)": {
						"encoding": "mapping",
						"key": "t_address",
						"label": "mapping(address => uint256)",
						"numberOfBytes": "32",
						"value": "t_uint256"
					},
					"t_uint256": {
						"encoding": "inplace",
						"label": "uint256",
						"numberOfBytes": "32"
					}
				}
			},
			"userdoc": {
				"kind": "user",
				"methods": {},
				"version": 1
			}
		}
	}
}