{
	"Practise/MapEx1.sol": {
		"EaxmpleMap": {
			"abi": [
				{
					"inputs": [
						{
							"internalType": "uint256",
							"name": "itemId",
							"type": "uint256"
						},
						{
							"internalType": "uint256",
							"name": "quantity",
							"type": "uint256"
						}
					],
					"name": "addItem",
					"outputs": [],
					"stateMutability": "nonpayable",
					"type": "function"
				},
				{
					"inputs": [
						{
							"internalType": "uint256",
							"name": "itemId",
							"type": "uint256"
						}
					],
					"name": "getQuantity",
					"outputs": [
						{
							"internalType": "int256",
							"name": "",
							"type": "int256"
						}
					],
					"stateMutability": "view",
					"type": "function"
				}
			],
			"devdoc": {
				"kind": "dev",
				"methods": {},
				"version": 1
			},
			"evm": {
				"assembly": "    /* \"Practise/MapEx1.sol\":66:369  contract EaxmpleMap{... */\n  mstore(0x40, 0x80)\n  callvalue\n  dup1\n  iszero\n  tag_1\n  jumpi\n  0x00\n  dup1\n  revert\ntag_1:\n  pop\n  dataSize(sub_0)\n  dup1\n  dataOffset(sub_0)\n  0x00\n  codecopy\n  0x00\n  return\nstop\n\nsub_0: assembly {\n        /* \"Practise/MapEx1.sol\":66:369  contract EaxmpleMap{... */\n      mstore(0x40, 0x80)\n      callvalue\n      dup1\n      iszero\n      tag_1\n      jumpi\n      0x00\n      dup1\n      revert\n    tag_1:\n      pop\n      jumpi(tag_2, lt(calldatasize, 0x04))\n      shr(0xe0, calldataload(0x00))\n      dup1\n      0x5ebd9ded\n      eq\n      tag_3\n      jumpi\n      dup1\n      0xa2125232\n      eq\n      tag_4\n      jumpi\n    tag_2:\n      0x00\n      dup1\n      revert\n        /* \"Practise/MapEx1.sol\":232:367  function getQuantity(uint itemId) public view returns(int){... */\n    tag_3:\n      tag_5\n      0x04\n      dup1\n      calldatasize\n      sub\n      dup2\n      add\n      swap1\n      tag_6\n      swap2\n      swap1\n      tag_7\n      jump\t// in\n    tag_6:\n      tag_8\n      jump\t// in\n    tag_5:\n      mload(0x40)\n      tag_9\n      swap2\n      swap1\n      tag_10\n      jump\t// in\n    tag_9:\n      mload(0x40)\n      dup1\n      swap2\n      sub\n      swap1\n      return\n        /* \"Practise/MapEx1.sol\":125:227  function addItem(uint itemId,uint quantity)public{... */\n    tag_4:\n      tag_11\n      0x04\n      dup1\n      calldatasize\n      sub\n      dup2\n      add\n      swap1\n      tag_12\n      swap2\n      swap1\n      tag_13\n      jump\t// in\n    tag_12:\n      tag_14\n      jump\t// in\n    tag_11:\n      stop\n        /* \"Practise/MapEx1.sol\":232:367  function getQuantity(uint itemId) public view returns(int){... */\n    tag_8:\n        /* \"Practise/MapEx1.sol\":286:289  int */\n      0x00\n        /* \"Practise/MapEx1.sol\":328:329  0 */\n      dup1\n        /* \"Practise/MapEx1.sol\":308:318  quantities */\n      0x00\n        /* \"Practise/MapEx1.sol\":308:326  quantities[itemId] */\n      dup1\n        /* \"Practise/MapEx1.sol\":319:325  itemId */\n      dup5\n        /* \"Practise/MapEx1.sol\":308:326  quantities[itemId] */\n      dup2\n      mstore\n      0x20\n      add\n      swap1\n      dup2\n      mstore\n      0x20\n      add\n      0x00\n      keccak256\n      sload\n        /* \"Practise/MapEx1.sol\":308:329  quantities[itemId]!=0 */\n      sub\n        /* \"Practise/MapEx1.sol\":308:359  quantities[itemId]!=0?int256(quantities[itemId]):-1 */\n      tag_16\n      jumpi\n        /* \"Practise/MapEx1.sol\":357:359  -1 */\n      0xffffffffffffffffffffffffffffffffffffffffffffffffffffffffffffffff\n        /* \"Practise/MapEx1.sol\":308:359  quantities[itemId]!=0?int256(quantities[itemId]):-1 */\n      jump(tag_17)\n    tag_16:\n        /* \"Practise/MapEx1.sol\":337:347  quantities */\n      0x00\n        /* \"Practise/MapEx1.sol\":337:355  quantities[itemId] */\n      dup1\n        /* \"Practise/MapEx1.sol\":348:354  itemId */\n      dup4\n        /* \"Practise/MapEx1.sol\":337:355  quantities[itemId] */\n      dup2\n      mstore\n      0x20\n      add\n      swap1\n      dup2\n      mstore\n      0x20\n      add\n      0x00\n      keccak256\n      sload\n        /* \"Practise/MapEx1.sol\":308:359  quantities[itemId]!=0?int256(quantities[itemId]):-1 */\n    tag_17:\n        /* \"Practise/MapEx1.sol\":301:359  return quantities[itemId]!=0?int256(quantities[itemId]):-1 */\n      swap1\n      pop\n        /* \"Practise/MapEx1.sol\":232:367  function getQuantity(uint itemId) public view returns(int){... */\n      swap2\n      swap1\n      pop\n      jump\t// out\n        /* \"Practise/MapEx1.sol\":125:227  function addItem(uint itemId,uint quantity)public{... */\n    tag_14:\n        /* \"Practise/MapEx1.sol\":211:219  quantity */\n      dup1\n        /* \"Practise/MapEx1.sol\":184:194  quantities */\n      0x00\n        /* \"Practise/MapEx1.sol\":184:202  quantities[itemId] */\n      dup1\n        /* \"Practise/MapEx1.sol\":195:201  itemId */\n      dup5\n        /* \"Practise/MapEx1.sol\":184:202  quantities[itemId] */\n      dup2\n      mstore\n      0x20\n      add\n      swap1\n      dup2\n      mstore\n      0x20\n      add\n      0x00\n      keccak256\n      0x00\n        /* \"Practise/MapEx1.sol\":184:220  quantities[itemId]+=int256(quantity) */\n      dup3\n      dup3\n      sload\n      tag_19\n      swap2\n      swap1\n      tag_20\n      jump\t// in\n    tag_19:\n      swap3\n      pop\n      pop\n      dup2\n      swap1\n      sstore\n      pop\n        /* \"Practise/MapEx1.sol\":125:227  function addItem(uint itemId,uint quantity)public{... */\n      pop\n      pop\n      jump\t// out\n        /* \"#utility.yul\":88:205   */\n    tag_22:\n        /* \"#utility.yul\":197:198   */\n      0x00\n        /* \"#utility.yul\":194:195   */\n      dup1\n        /* \"#utility.yul\":187:199   */\n      revert\n        /* \"#utility.yul\":334:411   */\n    tag_24:\n        /* \"#utility.yul\":371:378   */\n      0x00\n        /* \"#utility.yul\":400:405   */\n      dup2\n        /* \"#utility.yul\":389:405   */\n      swap1\n      pop\n        /* \"#utility.yul\":334:411   */\n      swap2\n      swap1\n      pop\n      jump\t// out\n        /* \"#utility.yul\":417:539   */\n    tag_25:\n        /* \"#utility.yul\":490:514   */\n      tag_36\n        /* \"#utility.yul\":508:513   */\n      dup2\n        /* \"#utility.yul\":490:514   */\n      tag_24\n      jump\t// in\n    tag_36:\n        /* \"#utility.yul\":483:488   */\n      dup2\n        /* \"#utility.yul\":480:515   */\n      eq\n        /* \"#utility.yul\":470:533   */\n      tag_37\n      jumpi\n        /* \"#utility.yul\":529:530   */\n      0x00\n        /* \"#utility.yul\":526:527   */\n      dup1\n        /* \"#utility.yul\":519:531   */\n      revert\n        /* \"#utility.yul\":470:533   */\n    tag_37:\n        /* \"#utility.yul\":417:539   */\n      pop\n      jump\t// out\n        /* \"#utility.yul\":545:684   */\n    tag_26:\n        /* \"#utility.yul\":591:596   */\n      0x00\n        /* \"#utility.yul\":629:635   */\n      dup2\n        /* \"#utility.yul\":616:636   */\n      calldataload\n        /* \"#utility.yul\":607:636   */\n      swap1\n      pop\n        /* \"#utility.yul\":645:678   */\n      tag_39\n        /* \"#utility.yul\":672:677   */\n      dup2\n        /* \"#utility.yul\":645:678   */\n      tag_25\n      jump\t// in\n    tag_39:\n        /* \"#utility.yul\":545:684   */\n      swap3\n      swap2\n      pop\n      pop\n      jump\t// out\n        /* \"#utility.yul\":690:1019   */\n    tag_7:\n        /* \"#utility.yul\":749:755   */\n      0x00\n        /* \"#utility.yul\":798:800   */\n      0x20\n        /* \"#utility.yul\":786:795   */\n      dup3\n        /* \"#utility.yul\":777:784   */\n      dup5\n        /* \"#utility.yul\":773:796   */\n      sub\n        /* \"#utility.yul\":769:801   */\n      slt\n        /* \"#utility.yul\":766:885   */\n      iszero\n      tag_41\n      jumpi\n        /* \"#utility.yul\":804:883   */\n      tag_42\n      tag_22\n      jump\t// in\n    tag_42:\n        /* \"#utility.yul\":766:885   */\n    tag_41:\n        /* \"#utility.yul\":924:925   */\n      0x00\n        /* \"#utility.yul\":949:1002   */\n      tag_43\n        /* \"#utility.yul\":994:1001   */\n      dup5\n        /* \"#utility.yul\":985:991   */\n      dup3\n        /* \"#utility.yul\":974:983   */\n      dup6\n        /* \"#utility.yul\":970:992   */\n      add\n        /* \"#utility.yul\":949:1002   */\n      tag_26\n      jump\t// in\n    tag_43:\n        /* \"#utility.yul\":939:1002   */\n      swap2\n      pop\n        /* \"#utility.yul\":895:1012   */\n      pop\n        /* \"#utility.yul\":690:1019   */\n      swap3\n      swap2\n      pop\n      pop\n      jump\t// out\n        /* \"#utility.yul\":1025:1101   */\n    tag_27:\n        /* \"#utility.yul\":1061:1068   */\n      0x00\n        /* \"#utility.yul\":1090:1095   */\n      dup2\n        /* \"#utility.yul\":1079:1095   */\n      swap1\n      pop\n        /* \"#utility.yul\":1025:1101   */\n      swap2\n      swap1\n      pop\n      jump\t// out\n        /* \"#utility.yul\":1107:1222   */\n    tag_28:\n        /* \"#utility.yul\":1192:1215   */\n      tag_46\n        /* \"#utility.yul\":1209:1214   */\n      dup2\n        /* \"#utility.yul\":1192:1215   */\n      tag_27\n      jump\t// in\n    tag_46:\n        /* \"#utility.yul\":1187:1190   */\n      dup3\n        /* \"#utility.yul\":1180:1216   */\n      mstore\n        /* \"#utility.yul\":1107:1222   */\n      pop\n      pop\n      jump\t// out\n        /* \"#utility.yul\":1228:1446   */\n    tag_10:\n        /* \"#utility.yul\":1319:1323   */\n      0x00\n        /* \"#utility.yul\":1357:1359   */\n      0x20\n        /* \"#utility.yul\":1346:1355   */\n      dup3\n        /* \"#utility.yul\":1342:1360   */\n      add\n        /* \"#utility.yul\":1334:1360   */\n      swap1\n      pop\n        /* \"#utility.yul\":1370:1439   */\n      tag_48\n        /* \"#utility.yul\":1436:1437   */\n      0x00\n        /* \"#utility.yul\":1425:1434   */\n      dup4\n        /* \"#utility.yul\":1421:1438   */\n      add\n        /* \"#utility.yul\":1412:1418   */\n      dup5\n        /* \"#utility.yul\":1370:1439   */\n      tag_28\n      jump\t// in\n    tag_48:\n        /* \"#utility.yul\":1228:1446   */\n      swap3\n      swap2\n      pop\n      pop\n      jump\t// out\n        /* \"#utility.yul\":1452:1926   */\n    tag_13:\n        /* \"#utility.yul\":1520:1526   */\n      0x00\n        /* \"#utility.yul\":1528:1534   */\n      dup1\n        /* \"#utility.yul\":1577:1579   */\n      0x40\n        /* \"#utility.yul\":1565:1574   */\n      dup4\n        /* \"#utility.yul\":1556:1563   */\n      dup6\n        /* \"#utility.yul\":1552:1575   */\n      sub\n        /* \"#utility.yul\":1548:1580   */\n      slt\n        /* \"#utility.yul\":1545:1664   */\n      iszero\n      tag_50\n      jumpi\n        /* \"#utility.yul\":1583:1662   */\n      tag_51\n      tag_22\n      jump\t// in\n    tag_51:\n        /* \"#utility.yul\":1545:1664   */\n    tag_50:\n        /* \"#utility.yul\":1703:1704   */\n      0x00\n        /* \"#utility.yul\":1728:1781   */\n      tag_52\n        /* \"#utility.yul\":1773:1780   */\n      dup6\n        /* \"#utility.yul\":1764:1770   */\n      dup3\n        /* \"#utility.yul\":1753:1762   */\n      dup7\n        /* \"#utility.yul\":1749:1771   */\n      add\n        /* \"#utility.yul\":1728:1781   */\n      tag_26\n      jump\t// in\n    tag_52:\n        /* \"#utility.yul\":1718:1781   */\n      swap3\n      pop\n        /* \"#utility.yul\":1674:1791   */\n      pop\n        /* \"#utility.yul\":1830:1832   */\n      0x20\n        /* \"#utility.yul\":1856:1909   */\n      tag_53\n        /* \"#utility.yul\":1901:1908   */\n      dup6\n        /* \"#utility.yul\":1892:1898   */\n      dup3\n        /* \"#utility.yul\":1881:1890   */\n      dup7\n        /* \"#utility.yul\":1877:1899   */\n      add\n        /* \"#utility.yul\":1856:1909   */\n      tag_26\n      jump\t// in\n    tag_53:\n        /* \"#utility.yul\":1846:1909   */\n      swap2\n      pop\n        /* \"#utility.yul\":1801:1919   */\n      pop\n        /* \"#utility.yul\":1452:1926   */\n      swap3\n      pop\n      swap3\n      swap1\n      pop\n      jump\t// out\n        /* \"#utility.yul\":1932:2112   */\n    tag_29:\n        /* \"#utility.yul\":1980:2057   */\n      0x4e487b7100000000000000000000000000000000000000000000000000000000\n        /* \"#utility.yul\":1977:1978   */\n      0x00\n        /* \"#utility.yul\":1970:2058   */\n      mstore\n        /* \"#utility.yul\":2077:2081   */\n      0x11\n        /* \"#utility.yul\":2074:2075   */\n      0x04\n        /* \"#utility.yul\":2067:2082   */\n      mstore\n        /* \"#utility.yul\":2101:2105   */\n      0x24\n        /* \"#utility.yul\":2098:2099   */\n      0x00\n        /* \"#utility.yul\":2091:2106   */\n      revert\n        /* \"#utility.yul\":2118:2493   */\n    tag_20:\n        /* \"#utility.yul\":2157:2160   */\n      0x00\n        /* \"#utility.yul\":2176:2195   */\n      tag_56\n        /* \"#utility.yul\":2193:2194   */\n      dup3\n        /* \"#utility.yul\":2176:2195   */\n      tag_27\n      jump\t// in\n    tag_56:\n        /* \"#utility.yul\":2171:2195   */\n      swap2\n      pop\n        /* \"#utility.yul\":2209:2228   */\n      tag_57\n        /* \"#utility.yul\":2226:2227   */\n      dup4\n        /* \"#utility.yul\":2209:2228   */\n      tag_27\n      jump\t// in\n    tag_57:\n        /* \"#utility.yul\":2204:2228   */\n      swap3\n      pop\n        /* \"#utility.yul\":2251:2252   */\n      dup3\n        /* \"#utility.yul\":2248:2249   */\n      dup3\n        /* \"#utility.yul\":2244:2253   */\n      add\n        /* \"#utility.yul\":2237:2253   */\n      swap1\n      pop\n        /* \"#utility.yul\":2449:2450   */\n      dup3\n        /* \"#utility.yul\":2444:2447   */\n      dup2\n        /* \"#utility.yul\":2440:2451   */\n      slt\n        /* \"#utility.yul\":2433:2452   */\n      iszero\n        /* \"#utility.yul\":2429:2430   */\n      0x00\n        /* \"#utility.yul\":2426:2427   */\n      dup4\n        /* \"#utility.yul\":2422:2431   */\n      slt\n        /* \"#utility.yul\":2418:2453   */\n      and\n        /* \"#utility.yul\":2401:2402   */\n      dup4\n        /* \"#utility.yul\":2396:2399   */\n      dup3\n        /* \"#utility.yul\":2392:2403   */\n      slt\n        /* \"#utility.yul\":2387:2388   */\n      0x00\n        /* \"#utility.yul\":2384:2385   */\n      dup5\n        /* \"#utility.yul\":2380:2389   */\n      slt\n        /* \"#utility.yul\":2373:2390   */\n      iszero\n        /* \"#utility.yul\":2369:2404   */\n      and\n        /* \"#utility.yul\":2353:2463   */\n      or\n        /* \"#utility.yul\":2350:2486   */\n      iszero\n      tag_58\n      jumpi\n        /* \"#utility.yul\":2466:2484   */\n      tag_59\n      tag_29\n      jump\t// in\n    tag_59:\n        /* \"#utility.yul\":2350:2486   */\n    tag_58:\n        /* \"#utility.yul\":2118:2493   */\n      swap3\n      swap2\n      pop\n      pop\n      jump\t// out\n\n    auxdata: 0xa2646970667358221220a3305e5b355371bba2beb8c4482f2bf9ac953c84ef2f0d0a5bf2730d2eca8c2264736f6c63430008120033\n}\n",
				"bytecode": {
					"linkReferences": {},
					"object": "608060405234801561001057600080fd5b50610295806100206000396000f3fe608060405234801561001057600080fd5b50600436106100365760003560e01c80635ebd9ded1461003b578063a21252321461006b575b600080fd5b6100556004803603810190610050919061014b565b610087565b6040516100629190610191565b60405180910390f35b610085600480360381019061008091906101ac565b6100e3565b005b60008060008084815260200190815260200160002054036100c8577fffffffffffffffffffffffffffffffffffffffffffffffffffffffffffffffff6100dc565b600080838152602001908152602001600020545b9050919050565b806000808481526020019081526020016000206000828254610105919061021b565b925050819055505050565b600080fd5b6000819050919050565b61012881610115565b811461013357600080fd5b50565b6000813590506101458161011f565b92915050565b60006020828403121561016157610160610110565b5b600061016f84828501610136565b91505092915050565b6000819050919050565b61018b81610178565b82525050565b60006020820190506101a66000830184610182565b92915050565b600080604083850312156101c3576101c2610110565b5b60006101d185828601610136565b92505060206101e285828601610136565b9150509250929050565b7f4e487b7100000000000000000000000000000000000000000000000000000000600052601160045260246000fd5b600061022682610178565b915061023183610178565b925082820190508281121560008312168382126000841215161715610259576102586101ec565b5b9291505056fea2646970667358221220a3305e5b355371bba2beb8c4482f2bf9ac953c84ef2f0d0a5bf2730d2eca8c2264736f6c63430008120033",
					"opcodes": "PUSH1 0x80 PUSH1 0x40 MSTORE CALLVALUE DUP1 ISZERO PUSH2 0x10 JUMPI PUSH1 0x0 DUP1 REVERT JUMPDEST POP PUSH2 0x295 DUP1 PUSH2 0x20 PUSH1 0x0 CODECOPY PUSH1 0x0 RETURN INVALID PUSH1 0x80 PUSH1 0x40 MSTORE CALLVALUE DUP1 ISZERO PUSH2 0x10 JUMPI PUSH1 0x0 DUP1 REVERT JUMPDEST POP PUSH1 0x4 CALLDATASIZE LT PUSH2 0x36 JUMPI PUSH1 0x0 CALLDATALOAD PUSH1 0xE0 SHR DUP1 PUSH4 0x5EBD9DED EQ PUSH2 0x3B JUMPI DUP1 PUSH4 0xA2125232 EQ PUSH2 0x6B JUMPI JUMPDEST PUSH1 0x0 DUP1 REVERT JUMPDEST PUSH2 0x55 PUSH1 0x4 DUP1 CALLDATASIZE SUB DUP2 ADD SWAP1 PUSH2 0x50 SWAP2 SWAP1 PUSH2 0x14B JUMP JUMPDEST PUSH2 0x87 JUMP JUMPDEST PUSH1 0x40 MLOAD PUSH2 0x62 SWAP2 SWAP1 PUSH2 0x191 JUMP JUMPDEST PUSH1 0x40 MLOAD DUP1 SWAP2 SUB SWAP1 RETURN JUMPDEST PUSH2 0x85 PUSH1 0x4 DUP1 CALLDATASIZE SUB DUP2 ADD SWAP1 PUSH2 0x80 SWAP2 SWAP1 PUSH2 0x1AC JUMP JUMPDEST PUSH2 0xE3 JUMP JUMPDEST STOP JUMPDEST PUSH1 0x0 DUP1 PUSH1 0x0 DUP1 DUP5 DUP2 MSTORE PUSH1 0x20 ADD SWAP1 DUP2 MSTORE PUSH1 0x20 ADD PUSH1 0x0 KECCAK256 SLOAD SUB PUSH2 0xC8 JUMPI PUSH32 0xFFFFFFFFFFFFFFFFFFFFFFFFFFFFFFFFFFFFFFFFFFFFFFFFFFFFFFFFFFFFFFFF PUSH2 0xDC JUMP JUMPDEST PUSH1 0x0 DUP1 DUP4 DUP2 MSTORE PUSH1 0x20 ADD SWAP1 DUP2 MSTORE PUSH1 0x20 ADD PUSH1 0x0 KECCAK256 SLOAD JUMPDEST SWAP1 POP SWAP2 SWAP1 POP JUMP JUMPDEST DUP1 PUSH1 0x0 DUP1 DUP5 DUP2 MSTORE PUSH1 0x20 ADD SWAP1 DUP2 MSTORE PUSH1 0x20 ADD PUSH1 0x0 KECCAK256 PUSH1 0x0 DUP3 DUP3 SLOAD PUSH2 0x105 SWAP2 SWAP1 PUSH2 0x21B JUMP JUMPDEST SWAP3 POP POP DUP2 SWAP1 SSTORE POP POP POP JUMP JUMPDEST PUSH1 0x0 DUP1 REVERT JUMPDEST PUSH1 0x0 DUP2 SWAP1 POP SWAP2 SWAP1 POP JUMP JUMPDEST PUSH2 0x128 DUP2 PUSH2 0x115 JUMP JUMPDEST DUP2 EQ PUSH2 0x133 JUMPI PUSH1 0x0 DUP1 REVERT JUMPDEST POP JUMP JUMPDEST PUSH1 0x0 DUP2 CALLDATALOAD SWAP1 POP PUSH2 0x145 DUP2 PUSH2 0x11F JUMP JUMPDEST SWAP3 SWAP2 POP POP JUMP JUMPDEST PUSH1 0x0 PUSH1 0x20 DUP3 DUP5 SUB SLT ISZERO PUSH2 0x161 JUMPI PUSH2 0x160 PUSH2 0x110 JUMP JUMPDEST JUMPDEST PUSH1 0x0 PUSH2 0x16F DUP5 DUP3 DUP6 ADD PUSH2 0x136 JUMP JUMPDEST SWAP2 POP POP SWAP3 SWAP2 POP POP JUMP JUMPDEST PUSH1 0x0 DUP2 SWAP1 POP SWAP2 SWAP1 POP JUMP JUMPDEST PUSH2 0x18B DUP2 PUSH2 0x178 JUMP JUMPDEST DUP3 MSTORE POP POP JUMP JUMPDEST PUSH1 0x0 PUSH1 0x20 DUP3 ADD SWAP1 POP PUSH2 0x1A6 PUSH1 0x0 DUP4 ADD DUP5 PUSH2 0x182 JUMP JUMPDEST SWAP3 SWAP2 POP POP JUMP JUMPDEST PUSH1 0x0 DUP1 PUSH1 0x40 DUP4 DUP6 SUB SLT ISZERO PUSH2 0x1C3 JUMPI PUSH2 0x1C2 PUSH2 0x110 JUMP JUMPDEST JUMPDEST PUSH1 0x0 PUSH2 0x1D1 DUP6 DUP3 DUP7 ADD PUSH2 0x136 JUMP JUMPDEST SWAP3 POP POP PUSH1 0x20 PUSH2 0x1E2 DUP6 DUP3 DUP7 ADD PUSH2 0x136 JUMP JUMPDEST SWAP2 POP POP SWAP3 POP SWAP3 SWAP1 POP JUMP JUMPDEST PUSH32 0x4E487B7100000000000000000000000000000000000000000000000000000000 PUSH1 0x0 MSTORE PUSH1 0x11 PUSH1 0x4 MSTORE PUSH1 0x24 PUSH1 0x0 REVERT JUMPDEST PUSH1 0x0 PUSH2 0x226 DUP3 PUSH2 0x178 JUMP JUMPDEST SWAP2 POP PUSH2 0x231 DUP4 PUSH2 0x178 JUMP JUMPDEST SWAP3 POP DUP3 DUP3 ADD SWAP1 POP DUP3 DUP2 SLT ISZERO PUSH1 0x0 DUP4 SLT AND DUP4 DUP3 SLT PUSH1 0x0 DUP5 SLT ISZERO AND OR ISZERO PUSH2 0x259 JUMPI PUSH2 0x258 PUSH2 0x1EC JUMP JUMPDEST JUMPDEST SWAP3 SWAP2 POP POP JUMP INVALID LOG2 PUSH5 0x6970667358 0x22 SLT KECCAK256 LOG3 ADDRESS 0x5E JUMPDEST CALLDATALOAD MSTORE8 PUSH18 0xBBA2BEB8C4482F2BF9AC953C84EF2F0D0A5B CALLCODE PUSH20 0xD2ECA8C2264736F6C6343000812003300000000 "
				},
				"gasEstimates": {
					"creation": {
						"codeDepositCost": "132200",
						"executionCost": "177",
						"totalCost": "132377"
					},
					"external": {
						"addItem(uint256,uint256)": "infinite",
						"getQuantity(uint256)": "4960"
					}
				},
				"methodIdentifiers": {
					"addItem(uint256,uint256)": "a2125232",
					"getQuantity(uint256)": "5ebd9ded"
				}
			},
			"storageLayout": {
				"storage": [
					{
						"astId": 5,
						"contract": "Practise/MapEx1.sol:EaxmpleMap",
						"label": "quantities",
						"offset": 0,
						"slot": "0",
						"type": "t_mapping(t_uint256,t_int256)"
					}
				],
				"types": {
					"t_int256": {
						"encoding": "inplace",
						"label": "int256",
						"numberOfBytes": "32"
					},
					"t_mapping(t_uint256,t_int256)": {
						"encoding": "mapping",
						"key": "t_uint256",
						"label": "mapping(uint256 => int256)",
						"numberOfBytes": "32",
						"value": "t_int256"
					},
					"t_uint256": {
						"encoding": "inplace",
						"label": "uint256",
						"numberOfBytes": "32"
					}
				}
			},
			"userdoc": {
				"kind": "user",
				"methods": {},
				"version": 1
			}
		}
	}
}