{
	"Practise/MapEx2.sol": {
		"DebtTracking": {
			"abi": [
				{
					"inputs": [
						{
							"internalType": "address",
							"name": "toBePaidAddress",
							"type": "address"
						},
						{
							"internalType": "address",
							"name": "payingAddress",
							"type": "address"
						},
						{
							"internalType": "uint256",
							"name": "amount",
							"type": "uint256"
						}
					],
					"name": "addDebt",
					"outputs": [],
					"stateMutability": "nonpayable",
					"type": "function"
				},
				{
					"inputs": [
						{
							"internalType": "address",
							"name": "owedAddress",
							"type": "address"
						},
						{
							"internalType": "address",
							"name": "payingAddress",
							"type": "address"
						}
					],
					"name": "getDebt",
					"outputs": [
						{
							"internalType": "uint256",
							"name": "",
							"type": "uint256"
						}
					],
					"stateMutability": "view",
					"type": "function"
				},
				{
					"inputs": [
						{
							"internalType": "address",
							"name": "toBePaidAddress",
							"type": "address"
						},
						{
							"internalType": "address",
							"name": "payingAddress",
							"type": "address"
						},
						{
							"internalType": "uint256",
							"name": "amount",
							"type": "uint256"
						}
					],
					"name": "payDebt",
					"outputs": [],
					"stateMutability": "nonpayable",
					"type": "function"
				}
			],
			"devdoc": {
				"kind": "dev",
				"methods": {},
				"version": 1
			},
			"evm": {
				"assembly": "    /* \"Practise/MapEx2.sol\":66:864  contract DebtTracking{... */\n  mstore(0x40, 0x80)\n  callvalue\n  dup1\n  iszero\n  tag_1\n  jumpi\n  0x00\n  dup1\n  revert\ntag_1:\n  pop\n  dataSize(sub_0)\n  dup1\n  dataOffset(sub_0)\n  0x00\n  codecopy\n  0x00\n  return\nstop\n\nsub_0: assembly {\n        /* \"Practise/MapEx2.sol\":66:864  contract DebtTracking{... */\n      mstore(0x40, 0x80)\n      callvalue\n      dup1\n      iszero\n      tag_1\n      jumpi\n      0x00\n      dup1\n      revert\n    tag_1:\n      pop\n      jumpi(tag_2, lt(calldatasize, 0x04))\n      shr(0xe0, calldataload(0x00))\n      dup1\n      0x498b5ae8\n      eq\n      tag_3\n      jumpi\n      dup1\n      0x6a283d51\n      eq\n      tag_4\n      jumpi\n      dup1\n      0x86e0e8bf\n      eq\n      tag_5\n      jumpi\n    tag_2:\n      0x00\n      dup1\n      revert\n        /* \"Practise/MapEx2.sol\":717:858  function getDebt(address owedAddress,address payingAddress) public view returns(uint){... */\n    tag_3:\n      tag_6\n      0x04\n      dup1\n      calldatasize\n      sub\n      dup2\n      add\n      swap1\n      tag_7\n      swap2\n      swap1\n      tag_8\n      jump\t// in\n    tag_7:\n      tag_9\n      jump\t// in\n    tag_6:\n      mload(0x40)\n      tag_10\n      swap2\n      swap1\n      tag_11\n      jump\t// in\n    tag_10:\n      mload(0x40)\n      dup1\n      swap2\n      sub\n      swap1\n      return\n        /* \"Practise/MapEx2.sol\":143:286  function addDebt(address toBePaidAddress,address payingAddress,uint amount)public{... */\n    tag_4:\n      tag_12\n      0x04\n      dup1\n      calldatasize\n      sub\n      dup2\n      add\n      swap1\n      tag_13\n      swap2\n      swap1\n      tag_14\n      jump\t// in\n    tag_13:\n      tag_15\n      jump\t// in\n    tag_12:\n      stop\n        /* \"Practise/MapEx2.sol\":291:712  function payDebt(address toBePaidAddress,address payingAddress,uint amount)public {... */\n    tag_5:\n      tag_16\n      0x04\n      dup1\n      calldatasize\n      sub\n      dup2\n      add\n      swap1\n      tag_17\n      swap2\n      swap1\n      tag_14\n      jump\t// in\n    tag_17:\n      tag_18\n      jump\t// in\n    tag_16:\n      stop\n        /* \"Practise/MapEx2.sol\":717:858  function getDebt(address owedAddress,address payingAddress) public view returns(uint){... */\n    tag_9:\n        /* \"Practise/MapEx2.sol\":797:801  uint */\n      0x00\n        /* \"Practise/MapEx2.sol\":819:823  Debt */\n      dup1\n        /* \"Practise/MapEx2.sol\":819:836  Debt[owedAddress] */\n      0x00\n        /* \"Practise/MapEx2.sol\":824:835  owedAddress */\n      dup5\n        /* \"Practise/MapEx2.sol\":819:836  Debt[owedAddress] */\n      0xffffffffffffffffffffffffffffffffffffffff\n      and\n      0xffffffffffffffffffffffffffffffffffffffff\n      and\n      dup2\n      mstore\n      0x20\n      add\n      swap1\n      dup2\n      mstore\n      0x20\n      add\n      0x00\n      keccak256\n        /* \"Practise/MapEx2.sol\":819:851  Debt[owedAddress][payingAddress] */\n      0x00\n        /* \"Practise/MapEx2.sol\":837:850  payingAddress */\n      dup4\n        /* \"Practise/MapEx2.sol\":819:851  Debt[owedAddress][payingAddress] */\n      0xffffffffffffffffffffffffffffffffffffffff\n      and\n      0xffffffffffffffffffffffffffffffffffffffff\n      and\n      dup2\n      mstore\n      0x20\n      add\n      swap1\n      dup2\n      mstore\n      0x20\n      add\n      0x00\n      keccak256\n      sload\n        /* \"Practise/MapEx2.sol\":812:851  return Debt[owedAddress][payingAddress] */\n      swap1\n      pop\n        /* \"Practise/MapEx2.sol\":717:858  function getDebt(address owedAddress,address payingAddress) public view returns(uint){... */\n      swap3\n      swap2\n      pop\n      pop\n      jump\t// out\n        /* \"Practise/MapEx2.sol\":143:286  function addDebt(address toBePaidAddress,address payingAddress,uint amount)public{... */\n    tag_15:\n        /* \"Practise/MapEx2.sol\":272:278  amount */\n      dup1\n        /* \"Practise/MapEx2.sol\":234:238  Debt */\n      0x00\n        /* \"Practise/MapEx2.sol\":234:255  Debt[toBePaidAddress] */\n      dup1\n        /* \"Practise/MapEx2.sol\":239:254  toBePaidAddress */\n      dup6\n        /* \"Practise/MapEx2.sol\":234:255  Debt[toBePaidAddress] */\n      0xffffffffffffffffffffffffffffffffffffffff\n      and\n      0xffffffffffffffffffffffffffffffffffffffff\n      and\n      dup2\n      mstore\n      0x20\n      add\n      swap1\n      dup2\n      mstore\n      0x20\n      add\n      0x00\n      keccak256\n        /* \"Practise/MapEx2.sol\":234:270  Debt[toBePaidAddress][payingAddress] */\n      0x00\n        /* \"Practise/MapEx2.sol\":256:269  payingAddress */\n      dup5\n        /* \"Practise/MapEx2.sol\":234:270  Debt[toBePaidAddress][payingAddress] */\n      0xffffffffffffffffffffffffffffffffffffffff\n      and\n      0xffffffffffffffffffffffffffffffffffffffff\n      and\n      dup2\n      mstore\n      0x20\n      add\n      swap1\n      dup2\n      mstore\n      0x20\n      add\n      0x00\n      keccak256\n      0x00\n        /* \"Practise/MapEx2.sol\":234:278  Debt[toBePaidAddress][payingAddress]+=amount */\n      dup3\n      dup3\n      sload\n      tag_21\n      swap2\n      swap1\n      tag_22\n      jump\t// in\n    tag_21:\n      swap3\n      pop\n      pop\n      dup2\n      swap1\n      sstore\n      pop\n        /* \"Practise/MapEx2.sol\":143:286  function addDebt(address toBePaidAddress,address payingAddress,uint amount)public{... */\n      pop\n      pop\n      pop\n      jump\t// out\n        /* \"Practise/MapEx2.sol\":291:712  function payDebt(address toBePaidAddress,address payingAddress,uint amount)public {... */\n    tag_18:\n        /* \"Practise/MapEx2.sol\":383:398  uint amountOwed */\n      0x00\n        /* \"Practise/MapEx2.sol\":399:403  Debt */\n      dup1\n        /* \"Practise/MapEx2.sol\":399:420  Debt[toBePaidAddress] */\n      0x00\n        /* \"Practise/MapEx2.sol\":404:419  toBePaidAddress */\n      dup6\n        /* \"Practise/MapEx2.sol\":399:420  Debt[toBePaidAddress] */\n      0xffffffffffffffffffffffffffffffffffffffff\n      and\n      0xffffffffffffffffffffffffffffffffffffffff\n      and\n      dup2\n      mstore\n      0x20\n      add\n      swap1\n      dup2\n      mstore\n      0x20\n      add\n      0x00\n      keccak256\n        /* \"Practise/MapEx2.sol\":399:435  Debt[toBePaidAddress][payingAddress] */\n      0x00\n        /* \"Practise/MapEx2.sol\":421:434  payingAddress */\n      dup5\n        /* \"Practise/MapEx2.sol\":399:435  Debt[toBePaidAddress][payingAddress] */\n      0xffffffffffffffffffffffffffffffffffffffff\n      and\n      0xffffffffffffffffffffffffffffffffffffffff\n      and\n      dup2\n      mstore\n      0x20\n      add\n      swap1\n      dup2\n      mstore\n      0x20\n      add\n      0x00\n      keccak256\n      sload\n        /* \"Practise/MapEx2.sol\":383:435  uint amountOwed=Debt[toBePaidAddress][payingAddress] */\n      swap1\n      pop\n        /* \"Practise/MapEx2.sol\":455:465  amountOwed */\n      dup1\n        /* \"Practise/MapEx2.sol\":448:454  amount */\n      dup3\n        /* \"Practise/MapEx2.sol\":448:465  amount>amountOwed */\n      gt\n        /* \"Practise/MapEx2.sol\":445:703  if(amount>amountOwed){... */\n      iszero\n      tag_24\n      jumpi\n        /* \"Practise/MapEx2.sol\":480:491  uint change */\n      0x00\n        /* \"Practise/MapEx2.sol\":499:509  amountOwed */\n      dup2\n        /* \"Practise/MapEx2.sol\":492:498  amount */\n      dup4\n        /* \"Practise/MapEx2.sol\":492:509  amount-amountOwed */\n      tag_25\n      swap2\n      swap1\n      tag_26\n      jump\t// in\n    tag_25:\n        /* \"Practise/MapEx2.sol\":480:509  uint change=amount-amountOwed */\n      swap1\n      pop\n        /* \"Practise/MapEx2.sol\":560:561  0 */\n      0x00\n        /* \"Practise/MapEx2.sol\":523:527  Debt */\n      dup1\n        /* \"Practise/MapEx2.sol\":523:544  Debt[toBePaidAddress] */\n      0x00\n        /* \"Practise/MapEx2.sol\":528:543  toBePaidAddress */\n      dup8\n        /* \"Practise/MapEx2.sol\":523:544  Debt[toBePaidAddress] */\n      0xffffffffffffffffffffffffffffffffffffffff\n      and\n      0xffffffffffffffffffffffffffffffffffffffff\n      and\n      dup2\n      mstore\n      0x20\n      add\n      swap1\n      dup2\n      mstore\n      0x20\n      add\n      0x00\n      keccak256\n        /* \"Practise/MapEx2.sol\":523:559  Debt[toBePaidAddress][payingAddress] */\n      0x00\n        /* \"Practise/MapEx2.sol\":545:558  payingAddress */\n      dup7\n        /* \"Practise/MapEx2.sol\":523:559  Debt[toBePaidAddress][payingAddress] */\n      0xffffffffffffffffffffffffffffffffffffffff\n      and\n      0xffffffffffffffffffffffffffffffffffffffff\n      and\n      dup2\n      mstore\n      0x20\n      add\n      swap1\n      dup2\n      mstore\n      0x20\n      add\n      0x00\n      keccak256\n        /* \"Practise/MapEx2.sol\":523:561  Debt[toBePaidAddress][payingAddress]=0 */\n      dup2\n      swap1\n      sstore\n      pop\n        /* \"Practise/MapEx2.sol\":613:619  change */\n      dup1\n        /* \"Practise/MapEx2.sol\":575:579  Debt */\n      0x00\n        /* \"Practise/MapEx2.sol\":575:594  Debt[payingAddress] */\n      dup1\n        /* \"Practise/MapEx2.sol\":580:593  payingAddress */\n      dup7\n        /* \"Practise/MapEx2.sol\":575:594  Debt[payingAddress] */\n      0xffffffffffffffffffffffffffffffffffffffff\n      and\n      0xffffffffffffffffffffffffffffffffffffffff\n      and\n      dup2\n      mstore\n      0x20\n      add\n      swap1\n      dup2\n      mstore\n      0x20\n      add\n      0x00\n      keccak256\n        /* \"Practise/MapEx2.sol\":575:611  Debt[payingAddress][toBePaidAddress] */\n      0x00\n        /* \"Practise/MapEx2.sol\":595:610  toBePaidAddress */\n      dup8\n        /* \"Practise/MapEx2.sol\":575:611  Debt[payingAddress][toBePaidAddress] */\n      0xffffffffffffffffffffffffffffffffffffffff\n      and\n      0xffffffffffffffffffffffffffffffffffffffff\n      and\n      dup2\n      mstore\n      0x20\n      add\n      swap1\n      dup2\n      mstore\n      0x20\n      add\n      0x00\n      keccak256\n      0x00\n        /* \"Practise/MapEx2.sol\":575:619  Debt[payingAddress][toBePaidAddress]+=change */\n      dup3\n      dup3\n      sload\n      tag_27\n      swap2\n      swap1\n      tag_22\n      jump\t// in\n    tag_27:\n      swap3\n      pop\n      pop\n      dup2\n      swap1\n      sstore\n      pop\n        /* \"Practise/MapEx2.sol\":466:630  {... */\n      pop\n        /* \"Practise/MapEx2.sol\":445:703  if(amount>amountOwed){... */\n      jump(tag_28)\n    tag_24:\n        /* \"Practise/MapEx2.sol\":686:692  amount */\n      dup2\n        /* \"Practise/MapEx2.sol\":648:652  Debt */\n      0x00\n        /* \"Practise/MapEx2.sol\":648:669  Debt[toBePaidAddress] */\n      dup1\n        /* \"Practise/MapEx2.sol\":653:668  toBePaidAddress */\n      dup7\n        /* \"Practise/MapEx2.sol\":648:669  Debt[toBePaidAddress] */\n      0xffffffffffffffffffffffffffffffffffffffff\n      and\n      0xffffffffffffffffffffffffffffffffffffffff\n      and\n      dup2\n      mstore\n      0x20\n      add\n      swap1\n      dup2\n      mstore\n      0x20\n      add\n      0x00\n      keccak256\n        /* \"Practise/MapEx2.sol\":648:684  Debt[toBePaidAddress][payingAddress] */\n      0x00\n        /* \"Practise/MapEx2.sol\":670:683  payingAddress */\n      dup6\n        /* \"Practise/MapEx2.sol\":648:684  Debt[toBePaidAddress][payingAddress] */\n      0xffffffffffffffffffffffffffffffffffffffff\n      and\n      0xffffffffffffffffffffffffffffffffffffffff\n      and\n      dup2\n      mstore\n      0x20\n      add\n      swap1\n      dup2\n      mstore\n      0x20\n      add\n      0x00\n      keccak256\n      0x00\n        /* \"Practise/MapEx2.sol\":648:692  Debt[toBePaidAddress][payingAddress]-=amount */\n      dup3\n      dup3\n      sload\n      tag_29\n      swap2\n      swap1\n      tag_26\n      jump\t// in\n    tag_29:\n      swap3\n      pop\n      pop\n      dup2\n      swap1\n      sstore\n      pop\n        /* \"Practise/MapEx2.sol\":445:703  if(amount>amountOwed){... */\n    tag_28:\n        /* \"Practise/MapEx2.sol\":373:712  {... */\n      pop\n        /* \"Practise/MapEx2.sol\":291:712  function payDebt(address toBePaidAddress,address payingAddress,uint amount)public {... */\n      pop\n      pop\n      pop\n      jump\t// out\n        /* \"#utility.yul\":88:205   */\n    tag_31:\n        /* \"#utility.yul\":197:198   */\n      0x00\n        /* \"#utility.yul\":194:195   */\n      dup1\n        /* \"#utility.yul\":187:199   */\n      revert\n        /* \"#utility.yul\":334:460   */\n    tag_33:\n        /* \"#utility.yul\":371:378   */\n      0x00\n        /* \"#utility.yul\":411:453   */\n      0xffffffffffffffffffffffffffffffffffffffff\n        /* \"#utility.yul\":404:409   */\n      dup3\n        /* \"#utility.yul\":400:454   */\n      and\n        /* \"#utility.yul\":389:454   */\n      swap1\n      pop\n        /* \"#utility.yul\":334:460   */\n      swap2\n      swap1\n      pop\n      jump\t// out\n        /* \"#utility.yul\":466:562   */\n    tag_34:\n        /* \"#utility.yul\":503:510   */\n      0x00\n        /* \"#utility.yul\":532:556   */\n      tag_48\n        /* \"#utility.yul\":550:555   */\n      dup3\n        /* \"#utility.yul\":532:556   */\n      tag_33\n      jump\t// in\n    tag_48:\n        /* \"#utility.yul\":521:556   */\n      swap1\n      pop\n        /* \"#utility.yul\":466:562   */\n      swap2\n      swap1\n      pop\n      jump\t// out\n        /* \"#utility.yul\":568:690   */\n    tag_35:\n        /* \"#utility.yul\":641:665   */\n      tag_50\n        /* \"#utility.yul\":659:664   */\n      dup2\n        /* \"#utility.yul\":641:665   */\n      tag_34\n      jump\t// in\n    tag_50:\n        /* \"#utility.yul\":634:639   */\n      dup2\n        /* \"#utility.yul\":631:666   */\n      eq\n        /* \"#utility.yul\":621:684   */\n      tag_51\n      jumpi\n        /* \"#utility.yul\":680:681   */\n      0x00\n        /* \"#utility.yul\":677:678   */\n      dup1\n        /* \"#utility.yul\":670:682   */\n      revert\n        /* \"#utility.yul\":621:684   */\n    tag_51:\n        /* \"#utility.yul\":568:690   */\n      pop\n      jump\t// out\n        /* \"#utility.yul\":696:835   */\n    tag_36:\n        /* \"#utility.yul\":742:747   */\n      0x00\n        /* \"#utility.yul\":780:786   */\n      dup2\n        /* \"#utility.yul\":767:787   */\n      calldataload\n        /* \"#utility.yul\":758:787   */\n      swap1\n      pop\n        /* \"#utility.yul\":796:829   */\n      tag_53\n        /* \"#utility.yul\":823:828   */\n      dup2\n        /* \"#utility.yul\":796:829   */\n      tag_35\n      jump\t// in\n    tag_53:\n        /* \"#utility.yul\":696:835   */\n      swap3\n      swap2\n      pop\n      pop\n      jump\t// out\n        /* \"#utility.yul\":841:1315   */\n    tag_8:\n        /* \"#utility.yul\":909:915   */\n      0x00\n        /* \"#utility.yul\":917:923   */\n      dup1\n        /* \"#utility.yul\":966:968   */\n      0x40\n        /* \"#utility.yul\":954:963   */\n      dup4\n        /* \"#utility.yul\":945:952   */\n      dup6\n        /* \"#utility.yul\":941:964   */\n      sub\n        /* \"#utility.yul\":937:969   */\n      slt\n        /* \"#utility.yul\":934:1053   */\n      iszero\n      tag_55\n      jumpi\n        /* \"#utility.yul\":972:1051   */\n      tag_56\n      tag_31\n      jump\t// in\n    tag_56:\n        /* \"#utility.yul\":934:1053   */\n    tag_55:\n        /* \"#utility.yul\":1092:1093   */\n      0x00\n        /* \"#utility.yul\":1117:1170   */\n      tag_57\n        /* \"#utility.yul\":1162:1169   */\n      dup6\n        /* \"#utility.yul\":1153:1159   */\n      dup3\n        /* \"#utility.yul\":1142:1151   */\n      dup7\n        /* \"#utility.yul\":1138:1160   */\n      add\n        /* \"#utility.yul\":1117:1170   */\n      tag_36\n      jump\t// in\n    tag_57:\n        /* \"#utility.yul\":1107:1170   */\n      swap3\n      pop\n        /* \"#utility.yul\":1063:1180   */\n      pop\n        /* \"#utility.yul\":1219:1221   */\n      0x20\n        /* \"#utility.yul\":1245:1298   */\n      tag_58\n        /* \"#utility.yul\":1290:1297   */\n      dup6\n        /* \"#utility.yul\":1281:1287   */\n      dup3\n        /* \"#utility.yul\":1270:1279   */\n      dup7\n        /* \"#utility.yul\":1266:1288   */\n      add\n        /* \"#utility.yul\":1245:1298   */\n      tag_36\n      jump\t// in\n    tag_58:\n        /* \"#utility.yul\":1235:1298   */\n      swap2\n      pop\n        /* \"#utility.yul\":1190:1308   */\n      pop\n        /* \"#utility.yul\":841:1315   */\n      swap3\n      pop\n      swap3\n      swap1\n      pop\n      jump\t// out\n        /* \"#utility.yul\":1321:1398   */\n    tag_37:\n        /* \"#utility.yul\":1358:1365   */\n      0x00\n        /* \"#utility.yul\":1387:1392   */\n      dup2\n        /* \"#utility.yul\":1376:1392   */\n      swap1\n      pop\n        /* \"#utility.yul\":1321:1398   */\n      swap2\n      swap1\n      pop\n      jump\t// out\n        /* \"#utility.yul\":1404:1522   */\n    tag_38:\n        /* \"#utility.yul\":1491:1515   */\n      tag_61\n        /* \"#utility.yul\":1509:1514   */\n      dup2\n        /* \"#utility.yul\":1491:1515   */\n      tag_37\n      jump\t// in\n    tag_61:\n        /* \"#utility.yul\":1486:1489   */\n      dup3\n        /* \"#utility.yul\":1479:1516   */\n      mstore\n        /* \"#utility.yul\":1404:1522   */\n      pop\n      pop\n      jump\t// out\n        /* \"#utility.yul\":1528:1750   */\n    tag_11:\n        /* \"#utility.yul\":1621:1625   */\n      0x00\n        /* \"#utility.yul\":1659:1661   */\n      0x20\n        /* \"#utility.yul\":1648:1657   */\n      dup3\n        /* \"#utility.yul\":1644:1662   */\n      add\n        /* \"#utility.yul\":1636:1662   */\n      swap1\n      pop\n        /* \"#utility.yul\":1672:1743   */\n      tag_63\n        /* \"#utility.yul\":1740:1741   */\n      0x00\n        /* \"#utility.yul\":1729:1738   */\n      dup4\n        /* \"#utility.yul\":1725:1742   */\n      add\n        /* \"#utility.yul\":1716:1722   */\n      dup5\n        /* \"#utility.yul\":1672:1743   */\n      tag_38\n      jump\t// in\n    tag_63:\n        /* \"#utility.yul\":1528:1750   */\n      swap3\n      swap2\n      pop\n      pop\n      jump\t// out\n        /* \"#utility.yul\":1756:1878   */\n    tag_39:\n        /* \"#utility.yul\":1829:1853   */\n      tag_65\n        /* \"#utility.yul\":1847:1852   */\n      dup2\n        /* \"#utility.yul\":1829:1853   */\n      tag_37\n      jump\t// in\n    tag_65:\n        /* \"#utility.yul\":1822:1827   */\n      dup2\n        /* \"#utility.yul\":1819:1854   */\n      eq\n        /* \"#utility.yul\":1809:1872   */\n      tag_66\n      jumpi\n        /* \"#utility.yul\":1868:1869   */\n      0x00\n        /* \"#utility.yul\":1865:1866   */\n      dup1\n        /* \"#utility.yul\":1858:1870   */\n      revert\n        /* \"#utility.yul\":1809:1872   */\n    tag_66:\n        /* \"#utility.yul\":1756:1878   */\n      pop\n      jump\t// out\n        /* \"#utility.yul\":1884:2023   */\n    tag_40:\n        /* \"#utility.yul\":1930:1935   */\n      0x00\n        /* \"#utility.yul\":1968:1974   */\n      dup2\n        /* \"#utility.yul\":1955:1975   */\n      calldataload\n        /* \"#utility.yul\":1946:1975   */\n      swap1\n      pop\n        /* \"#utility.yul\":1984:2017   */\n      tag_68\n        /* \"#utility.yul\":2011:2016   */\n      dup2\n        /* \"#utility.yul\":1984:2017   */\n      tag_39\n      jump\t// in\n    tag_68:\n        /* \"#utility.yul\":1884:2023   */\n      swap3\n      swap2\n      pop\n      pop\n      jump\t// out\n        /* \"#utility.yul\":2029:2648   */\n    tag_14:\n        /* \"#utility.yul\":2106:2112   */\n      0x00\n        /* \"#utility.yul\":2114:2120   */\n      dup1\n        /* \"#utility.yul\":2122:2128   */\n      0x00\n        /* \"#utility.yul\":2171:2173   */\n      0x60\n        /* \"#utility.yul\":2159:2168   */\n      dup5\n        /* \"#utility.yul\":2150:2157   */\n      dup7\n        /* \"#utility.yul\":2146:2169   */\n      sub\n        /* \"#utility.yul\":2142:2174   */\n      slt\n        /* \"#utility.yul\":2139:2258   */\n      iszero\n      tag_70\n      jumpi\n        /* \"#utility.yul\":2177:2256   */\n      tag_71\n      tag_31\n      jump\t// in\n    tag_71:\n        /* \"#utility.yul\":2139:2258   */\n    tag_70:\n        /* \"#utility.yul\":2297:2298   */\n      0x00\n        /* \"#utility.yul\":2322:2375   */\n      tag_72\n        /* \"#utility.yul\":2367:2374   */\n      dup7\n        /* \"#utility.yul\":2358:2364   */\n      dup3\n        /* \"#utility.yul\":2347:2356   */\n      dup8\n        /* \"#utility.yul\":2343:2365   */\n      add\n        /* \"#utility.yul\":2322:2375   */\n      tag_36\n      jump\t// in\n    tag_72:\n        /* \"#utility.yul\":2312:2375   */\n      swap4\n      pop\n        /* \"#utility.yul\":2268:2385   */\n      pop\n        /* \"#utility.yul\":2424:2426   */\n      0x20\n        /* \"#utility.yul\":2450:2503   */\n      tag_73\n        /* \"#utility.yul\":2495:2502   */\n      dup7\n        /* \"#utility.yul\":2486:2492   */\n      dup3\n        /* \"#utility.yul\":2475:2484   */\n      dup8\n        /* \"#utility.yul\":2471:2493   */\n      add\n        /* \"#utility.yul\":2450:2503   */\n      tag_36\n      jump\t// in\n    tag_73:\n        /* \"#utility.yul\":2440:2503   */\n      swap3\n      pop\n        /* \"#utility.yul\":2395:2513   */\n      pop\n        /* \"#utility.yul\":2552:2554   */\n      0x40\n        /* \"#utility.yul\":2578:2631   */\n      tag_74\n        /* \"#utility.yul\":2623:2630   */\n      dup7\n        /* \"#utility.yul\":2614:2620   */\n      dup3\n        /* \"#utility.yul\":2603:2612   */\n      dup8\n        /* \"#utility.yul\":2599:2621   */\n      add\n        /* \"#utility.yul\":2578:2631   */\n      tag_40\n      jump\t// in\n    tag_74:\n        /* \"#utility.yul\":2568:2631   */\n      swap2\n      pop\n        /* \"#utility.yul\":2523:2641   */\n      pop\n        /* \"#utility.yul\":2029:2648   */\n      swap3\n      pop\n      swap3\n      pop\n      swap3\n      jump\t// out\n        /* \"#utility.yul\":2654:2834   */\n    tag_41:\n        /* \"#utility.yul\":2702:2779   */\n      0x4e487b7100000000000000000000000000000000000000000000000000000000\n        /* \"#utility.yul\":2699:2700   */\n      0x00\n        /* \"#utility.yul\":2692:2780   */\n      mstore\n        /* \"#utility.yul\":2799:2803   */\n      0x11\n        /* \"#utility.yul\":2796:2797   */\n      0x04\n        /* \"#utility.yul\":2789:2804   */\n      mstore\n        /* \"#utility.yul\":2823:2827   */\n      0x24\n        /* \"#utility.yul\":2820:2821   */\n      0x00\n        /* \"#utility.yul\":2813:2828   */\n      revert\n        /* \"#utility.yul\":2840:3031   */\n    tag_22:\n        /* \"#utility.yul\":2880:2883   */\n      0x00\n        /* \"#utility.yul\":2899:2919   */\n      tag_77\n        /* \"#utility.yul\":2917:2918   */\n      dup3\n        /* \"#utility.yul\":2899:2919   */\n      tag_37\n      jump\t// in\n    tag_77:\n        /* \"#utility.yul\":2894:2919   */\n      swap2\n      pop\n        /* \"#utility.yul\":2933:2953   */\n      tag_78\n        /* \"#utility.yul\":2951:2952   */\n      dup4\n        /* \"#utility.yul\":2933:2953   */\n      tag_37\n      jump\t// in\n    tag_78:\n        /* \"#utility.yul\":2928:2953   */\n      swap3\n      pop\n        /* \"#utility.yul\":2976:2977   */\n      dup3\n        /* \"#utility.yul\":2973:2974   */\n      dup3\n        /* \"#utility.yul\":2969:2978   */\n      add\n        /* \"#utility.yul\":2962:2978   */\n      swap1\n      pop\n        /* \"#utility.yul\":2997:3000   */\n      dup1\n        /* \"#utility.yul\":2994:2995   */\n      dup3\n        /* \"#utility.yul\":2991:3001   */\n      gt\n        /* \"#utility.yul\":2988:3024   */\n      iszero\n      tag_79\n      jumpi\n        /* \"#utility.yul\":3004:3022   */\n      tag_80\n      tag_41\n      jump\t// in\n    tag_80:\n        /* \"#utility.yul\":2988:3024   */\n    tag_79:\n        /* \"#utility.yul\":2840:3031   */\n      swap3\n      swap2\n      pop\n      pop\n      jump\t// out\n        /* \"#utility.yul\":3037:3231   */\n    tag_26:\n        /* \"#utility.yul\":3077:3081   */\n      0x00\n        /* \"#utility.yul\":3097:3117   */\n      tag_82\n        /* \"#utility.yul\":3115:3116   */\n      dup3\n        /* \"#utility.yul\":3097:3117   */\n      tag_37\n      jump\t// in\n    tag_82:\n        /* \"#utility.yul\":3092:3117   */\n      swap2\n      pop\n        /* \"#utility.yul\":3131:3151   */\n      tag_83\n        /* \"#utility.yul\":3149:3150   */\n      dup4\n        /* \"#utility.yul\":3131:3151   */\n      tag_37\n      jump\t// in\n    tag_83:\n        /* \"#utility.yul\":3126:3151   */\n      swap3\n      pop\n        /* \"#utility.yul\":3175:3176   */\n      dup3\n        /* \"#utility.yul\":3172:3173   */\n      dup3\n        /* \"#utility.yul\":3168:3177   */\n      sub\n        /* \"#utility.yul\":3160:3177   */\n      swap1\n      pop\n        /* \"#utility.yul\":3199:3200   */\n      dup2\n        /* \"#utility.yul\":3193:3197   */\n      dup2\n        /* \"#utility.yul\":3190:3201   */\n      gt\n        /* \"#utility.yul\":3187:3224   */\n      iszero\n      tag_84\n      jumpi\n        /* \"#utility.yul\":3204:3222   */\n      tag_85\n      tag_41\n      jump\t// in\n    tag_85:\n        /* \"#utility.yul\":3187:3224   */\n    tag_84:\n        /* \"#utility.yul\":3037:3231   */\n      swap3\n      swap2\n      pop\n      pop\n      jump\t// out\n\n    auxdata: 0xa264697066735822122032f05f875456c0d25da01c401b665e2d04c3204605239971ba17844a4f2b3baa64736f6c63430008120033\n}\n",
				"bytecode": {
					"linkReferences": {},
					"object": "608060405234801561001057600080fd5b50610638806100206000396000f3fe608060405234801561001057600080fd5b50600436106100415760003560e01c8063498b5ae8146100465780636a283d511461007657806386e0e8bf14610092575b600080fd5b610060600480360381019061005b9190610478565b6100ae565b60405161006d91906104d1565b60405180910390f35b610090600480360381019061008b9190610518565b610134565b005b6100ac60048036038101906100a79190610518565b6101cb565b005b60008060008473ffffffffffffffffffffffffffffffffffffffff1673ffffffffffffffffffffffffffffffffffffffff16815260200190815260200160002060008373ffffffffffffffffffffffffffffffffffffffff1673ffffffffffffffffffffffffffffffffffffffff16815260200190815260200160002054905092915050565b806000808573ffffffffffffffffffffffffffffffffffffffff1673ffffffffffffffffffffffffffffffffffffffff16815260200190815260200160002060008473ffffffffffffffffffffffffffffffffffffffff1673ffffffffffffffffffffffffffffffffffffffff16815260200190815260200160002060008282546101bf919061059a565b92505081905550505050565b60008060008573ffffffffffffffffffffffffffffffffffffffff1673ffffffffffffffffffffffffffffffffffffffff16815260200190815260200160002060008473ffffffffffffffffffffffffffffffffffffffff1673ffffffffffffffffffffffffffffffffffffffff1681526020019081526020016000205490508082111561037c576000818361026191906105ce565b905060008060008773ffffffffffffffffffffffffffffffffffffffff1673ffffffffffffffffffffffffffffffffffffffff16815260200190815260200160002060008673ffffffffffffffffffffffffffffffffffffffff1673ffffffffffffffffffffffffffffffffffffffff16815260200190815260200160002081905550806000808673ffffffffffffffffffffffffffffffffffffffff1673ffffffffffffffffffffffffffffffffffffffff16815260200190815260200160002060008773ffffffffffffffffffffffffffffffffffffffff1673ffffffffffffffffffffffffffffffffffffffff168152602001908152602001600020600082825461036f919061059a565b925050819055505061040f565b816000808673ffffffffffffffffffffffffffffffffffffffff1673ffffffffffffffffffffffffffffffffffffffff16815260200190815260200160002060008573ffffffffffffffffffffffffffffffffffffffff1673ffffffffffffffffffffffffffffffffffffffff168152602001908152602001600020600082825461040791906105ce565b925050819055505b50505050565b600080fd5b600073ffffffffffffffffffffffffffffffffffffffff82169050919050565b60006104458261041a565b9050919050565b6104558161043a565b811461046057600080fd5b50565b6000813590506104728161044c565b92915050565b6000806040838503121561048f5761048e610415565b5b600061049d85828601610463565b92505060206104ae85828601610463565b9150509250929050565b6000819050919050565b6104cb816104b8565b82525050565b60006020820190506104e660008301846104c2565b92915050565b6104f5816104b8565b811461050057600080fd5b50565b600081359050610512816104ec565b92915050565b60008060006060848603121561053157610530610415565b5b600061053f86828701610463565b935050602061055086828701610463565b925050604061056186828701610503565b9150509250925092565b7f4e487b7100000000000000000000000000000000000000000000000000000000600052601160045260246000fd5b60006105a5826104b8565b91506105b0836104b8565b92508282019050808211156105c8576105c761056b565b5b92915050565b60006105d9826104b8565b91506105e4836104b8565b92508282039050818111156105fc576105fb61056b565b5b9291505056fea264697066735822122032f05f875456c0d25da01c401b665e2d04c3204605239971ba17844a4f2b3baa64736f6c63430008120033",
					"opcodes": "PUSH1 0x80 PUSH1 0x40 MSTORE CALLVALUE DUP1 ISZERO PUSH2 0x10 JUMPI PUSH1 0x0 DUP1 REVERT JUMPDEST POP PUSH2 0x638 DUP1 PUSH2 0x20 PUSH1 0x0 CODECOPY PUSH1 0x0 RETURN INVALID PUSH1 0x80 PUSH1 0x40 MSTORE CALLVALUE DUP1 ISZERO PUSH2 0x10 JUMPI PUSH1 0x0 DUP1 REVERT JUMPDEST POP PUSH1 0x4 CALLDATASIZE LT PUSH2 0x41 JUMPI PUSH1 0x0 CALLDATALOAD PUSH1 0xE0 SHR DUP1 PUSH4 0x498B5AE8 EQ PUSH2 0x46 JUMPI DUP1 PUSH4 0x6A283D51 EQ PUSH2 0x76 JUMPI DUP1 PUSH4 0x86E0E8BF EQ PUSH2 0x92 JUMPI JUMPDEST PUSH1 0x0 DUP1 REVERT JUMPDEST PUSH2 0x60 PUSH1 0x4 DUP1 CALLDATASIZE SUB DUP2 ADD SWAP1 PUSH2 0x5B SWAP2 SWAP1 PUSH2 0x478 JUMP JUMPDEST PUSH2 0xAE JUMP JUMPDEST PUSH1 0x40 MLOAD PUSH2 0x6D SWAP2 SWAP1 PUSH2 0x4D1 JUMP JUMPDEST PUSH1 0x40 MLOAD DUP1 SWAP2 SUB SWAP1 RETURN JUMPDEST PUSH2 0x90 PUSH1 0x4 DUP1 CALLDATASIZE SUB DUP2 ADD SWAP1 PUSH2 0x8B SWAP2 SWAP1 PUSH2 0x518 JUMP JUMPDEST PUSH2 0x134 JUMP JUMPDEST STOP JUMPDEST PUSH2 0xAC PUSH1 0x4 DUP1 CALLDATASIZE SUB DUP2 ADD SWAP1 PUSH2 0xA7 SWAP2 SWAP1 PUSH2 0x518 JUMP JUMPDEST PUSH2 0x1CB JUMP JUMPDEST STOP JUMPDEST PUSH1 0x0 DUP1 PUSH1 0x0 DUP5 PUSH20 0xFFFFFFFFFFFFFFFFFFFFFFFFFFFFFFFFFFFFFFFF AND PUSH20 0xFFFFFFFFFFFFFFFFFFFFFFFFFFFFFFFFFFFFFFFF AND DUP2 MSTORE PUSH1 0x20 ADD SWAP1 DUP2 MSTORE PUSH1 0x20 ADD PUSH1 0x0 KECCAK256 PUSH1 0x0 DUP4 PUSH20 0xFFFFFFFFFFFFFFFFFFFFFFFFFFFFFFFFFFFFFFFF AND PUSH20 0xFFFFFFFFFFFFFFFFFFFFFFFFFFFFFFFFFFFFFFFF AND DUP2 MSTORE PUSH1 0x20 ADD SWAP1 DUP2 MSTORE PUSH1 0x20 ADD PUSH1 0x0 KECCAK256 SLOAD SWAP1 POP SWAP3 SWAP2 POP POP JUMP JUMPDEST DUP1 PUSH1 0x0 DUP1 DUP6 PUSH20 0xFFFFFFFFFFFFFFFFFFFFFFFFFFFFFFFFFFFFFFFF AND PUSH20 0xFFFFFFFFFFFFFFFFFFFFFFFFFFFFFFFFFFFFFFFF AND DUP2 MSTORE PUSH1 0x20 ADD SWAP1 DUP2 MSTORE PUSH1 0x20 ADD PUSH1 0x0 KECCAK256 PUSH1 0x0 DUP5 PUSH20 0xFFFFFFFFFFFFFFFFFFFFFFFFFFFFFFFFFFFFFFFF AND PUSH20 0xFFFFFFFFFFFFFFFFFFFFFFFFFFFFFFFFFFFFFFFF AND DUP2 MSTORE PUSH1 0x20 ADD SWAP1 DUP2 MSTORE PUSH1 0x20 ADD PUSH1 0x0 KECCAK256 PUSH1 0x0 DUP3 DUP3 SLOAD PUSH2 0x1BF SWAP2 SWAP1 PUSH2 0x59A JUMP JUMPDEST SWAP3 POP POP DUP2 SWAP1 SSTORE POP POP POP POP JUMP JUMPDEST PUSH1 0x0 DUP1 PUSH1 0x0 DUP6 PUSH20 0xFFFFFFFFFFFFFFFFFFFFFFFFFFFFFFFFFFFFFFFF AND PUSH20 0xFFFFFFFFFFFFFFFFFFFFFFFFFFFFFFFFFFFFFFFF AND DUP2 MSTORE PUSH1 0x20 ADD SWAP1 DUP2 MSTORE PUSH1 0x20 ADD PUSH1 0x0 KECCAK256 PUSH1 0x0 DUP5 PUSH20 0xFFFFFFFFFFFFFFFFFFFFFFFFFFFFFFFFFFFFFFFF AND PUSH20 0xFFFFFFFFFFFFFFFFFFFFFFFFFFFFFFFFFFFFFFFF AND DUP2 MSTORE PUSH1 0x20 ADD SWAP1 DUP2 MSTORE PUSH1 0x20 ADD PUSH1 0x0 KECCAK256 SLOAD SWAP1 POP DUP1 DUP3 GT ISZERO PUSH2 0x37C JUMPI PUSH1 0x0 DUP2 DUP4 PUSH2 0x261 SWAP2 SWAP1 PUSH2 0x5CE JUMP JUMPDEST SWAP1 POP PUSH1 0x0 DUP1 PUSH1 0x0 DUP8 PUSH20 0xFFFFFFFFFFFFFFFFFFFFFFFFFFFFFFFFFFFFFFFF AND PUSH20 0xFFFFFFFFFFFFFFFFFFFFFFFFFFFFFFFFFFFFFFFF AND DUP2 MSTORE PUSH1 0x20 ADD SWAP1 DUP2 MSTORE PUSH1 0x20 ADD PUSH1 0x0 KECCAK256 PUSH1 0x0 DUP7 PUSH20 0xFFFFFFFFFFFFFFFFFFFFFFFFFFFFFFFFFFFFFFFF AND PUSH20 0xFFFFFFFFFFFFFFFFFFFFFFFFFFFFFFFFFFFFFFFF AND DUP2 MSTORE PUSH1 0x20 ADD SWAP1 DUP2 MSTORE PUSH1 0x20 ADD PUSH1 0x0 KECCAK256 DUP2 SWAP1 SSTORE POP DUP1 PUSH1 0x0 DUP1 DUP7 PUSH20 0xFFFFFFFFFFFFFFFFFFFFFFFFFFFFFFFFFFFFFFFF AND PUSH20 0xFFFFFFFFFFFFFFFFFFFFFFFFFFFFFFFFFFFFFFFF AND DUP2 MSTORE PUSH1 0x20 ADD SWAP1 DUP2 MSTORE PUSH1 0x20 ADD PUSH1 0x0 KECCAK256 PUSH1 0x0 DUP8 PUSH20 0xFFFFFFFFFFFFFFFFFFFFFFFFFFFFFFFFFFFFFFFF AND PUSH20 0xFFFFFFFFFFFFFFFFFFFFFFFFFFFFFFFFFFFFFFFF AND DUP2 MSTORE PUSH1 0x20 ADD SWAP1 DUP2 MSTORE PUSH1 0x20 ADD PUSH1 0x0 KECCAK256 PUSH1 0x0 DUP3 DUP3 SLOAD PUSH2 0x36F SWAP2 SWAP1 PUSH2 0x59A JUMP JUMPDEST SWAP3 POP POP DUP2 SWAP1 SSTORE POP POP PUSH2 0x40F JUMP JUMPDEST DUP2 PUSH1 0x0 DUP1 DUP7 PUSH20 0xFFFFFFFFFFFFFFFFFFFFFFFFFFFFFFFFFFFFFFFF AND PUSH20 0xFFFFFFFFFFFFFFFFFFFFFFFFFFFFFFFFFFFFFFFF AND DUP2 MSTORE PUSH1 0x20 ADD SWAP1 DUP2 MSTORE PUSH1 0x20 ADD PUSH1 0x0 KECCAK256 PUSH1 0x0 DUP6 PUSH20 0xFFFFFFFFFFFFFFFFFFFFFFFFFFFFFFFFFFFFFFFF AND PUSH20 0xFFFFFFFFFFFFFFFFFFFFFFFFFFFFFFFFFFFFFFFF AND DUP2 MSTORE PUSH1 0x20 ADD SWAP1 DUP2 MSTORE PUSH1 0x20 ADD PUSH1 0x0 KECCAK256 PUSH1 0x0 DUP3 DUP3 SLOAD PUSH2 0x407 SWAP2 SWAP1 PUSH2 0x5CE JUMP JUMPDEST SWAP3 POP POP DUP2 SWAP1 SSTORE POP JUMPDEST POP POP POP POP JUMP JUMPDEST PUSH1 0x0 DUP1 REVERT JUMPDEST PUSH1 0x0 PUSH20 0xFFFFFFFFFFFFFFFFFFFFFFFFFFFFFFFFFFFFFFFF DUP3 AND SWAP1 POP SWAP2 SWAP1 POP JUMP JUMPDEST PUSH1 0x0 PUSH2 0x445 DUP3 PUSH2 0x41A JUMP JUMPDEST SWAP1 POP SWAP2 SWAP1 POP JUMP JUMPDEST PUSH2 0x455 DUP2 PUSH2 0x43A JUMP JUMPDEST DUP2 EQ PUSH2 0x460 JUMPI PUSH1 0x0 DUP1 REVERT JUMPDEST POP JUMP JUMPDEST PUSH1 0x0 DUP2 CALLDATALOAD SWAP1 POP PUSH2 0x472 DUP2 PUSH2 0x44C JUMP JUMPDEST SWAP3 SWAP2 POP POP JUMP JUMPDEST PUSH1 0x0 DUP1 PUSH1 0x40 DUP4 DUP6 SUB SLT ISZERO PUSH2 0x48F JUMPI PUSH2 0x48E PUSH2 0x415 JUMP JUMPDEST JUMPDEST PUSH1 0x0 PUSH2 0x49D DUP6 DUP3 DUP7 ADD PUSH2 0x463 JUMP JUMPDEST SWAP3 POP POP PUSH1 0x20 PUSH2 0x4AE DUP6 DUP3 DUP7 ADD PUSH2 0x463 JUMP JUMPDEST SWAP2 POP POP SWAP3 POP SWAP3 SWAP1 POP JUMP JUMPDEST PUSH1 0x0 DUP2 SWAP1 POP SWAP2 SWAP1 POP JUMP JUMPDEST PUSH2 0x4CB DUP2 PUSH2 0x4B8 JUMP JUMPDEST DUP3 MSTORE POP POP JUMP JUMPDEST PUSH1 0x0 PUSH1 0x20 DUP3 ADD SWAP1 POP PUSH2 0x4E6 PUSH1 0x0 DUP4 ADD DUP5 PUSH2 0x4C2 JUMP JUMPDEST SWAP3 SWAP2 POP POP JUMP JUMPDEST PUSH2 0x4F5 DUP2 PUSH2 0x4B8 JUMP JUMPDEST DUP2 EQ PUSH2 0x500 JUMPI PUSH1 0x0 DUP1 REVERT JUMPDEST POP JUMP JUMPDEST PUSH1 0x0 DUP2 CALLDATALOAD SWAP1 POP PUSH2 0x512 DUP2 PUSH2 0x4EC JUMP JUMPDEST SWAP3 SWAP2 POP POP JUMP JUMPDEST PUSH1 0x0 DUP1 PUSH1 0x0 PUSH1 0x60 DUP5 DUP7 SUB SLT ISZERO PUSH2 0x531 JUMPI PUSH2 0x530 PUSH2 0x415 JUMP JUMPDEST JUMPDEST PUSH1 0x0 PUSH2 0x53F DUP7 DUP3 DUP8 ADD PUSH2 0x463 JUMP JUMPDEST SWAP4 POP POP PUSH1 0x20 PUSH2 0x550 DUP7 DUP3 DUP8 ADD PUSH2 0x463 JUMP JUMPDEST SWAP3 POP POP PUSH1 0x40 PUSH2 0x561 DUP7 DUP3 DUP8 ADD PUSH2 0x503 JUMP JUMPDEST SWAP2 POP POP SWAP3 POP SWAP3 POP SWAP3 JUMP JUMPDEST PUSH32 0x4E487B7100000000000000000000000000000000000000000000000000000000 PUSH1 0x0 MSTORE PUSH1 0x11 PUSH1 0x4 MSTORE PUSH1 0x24 PUSH1 0x0 REVERT JUMPDEST PUSH1 0x0 PUSH2 0x5A5 DUP3 PUSH2 0x4B8 JUMP JUMPDEST SWAP2 POP PUSH2 0x5B0 DUP4 PUSH2 0x4B8 JUMP JUMPDEST SWAP3 POP DUP3 DUP3 ADD SWAP1 POP DUP1 DUP3 GT ISZERO PUSH2 0x5C8 JUMPI PUSH2 0x5C7 PUSH2 0x56B JUMP JUMPDEST JUMPDEST SWAP3 SWAP2 POP POP JUMP JUMPDEST PUSH1 0x0 PUSH2 0x5D9 DUP3 PUSH2 0x4B8 JUMP JUMPDEST SWAP2 POP PUSH2 0x5E4 DUP4 PUSH2 0x4B8 JUMP JUMPDEST SWAP3 POP DUP3 DUP3 SUB SWAP1 POP DUP2 DUP2 GT ISZERO PUSH2 0x5FC JUMPI PUSH2 0x5FB PUSH2 0x56B JUMP JUMPDEST JUMPDEST SWAP3 SWAP2 POP POP JUMP INVALID LOG2 PUSH5 0x6970667358 0x22 SLT KECCAK256 ORIGIN CREATE 0x5F DUP8 SLOAD JUMP 0xC0 0xD2 0x5D LOG0 SHR BLOCKHASH SHL PUSH7 0x5E2D04C3204605 0x23 SWAP10 PUSH18 0xBA17844A4F2B3BAA64736F6C634300081200 CALLER "
				},
				"gasEstimates": {
					"creation": {
						"codeDepositCost": "318400",
						"executionCost": "355",
						"totalCost": "318755"
					},
					"external": {
						"addDebt(address,address,uint256)": "infinite",
						"getDebt(address,address)": "infinite",
						"payDebt(address,address,uint256)": "infinite"
					}
				},
				"methodIdentifiers": {
					"addDebt(address,address,uint256)": "6a283d51",
					"getDebt(address,address)": "498b5ae8",
					"payDebt(address,address,uint256)": "86e0e8bf"
				}
			},
			"storageLayout": {
				"storage": [
					{
						"astId": 7,
						"contract": "Practise/MapEx2.sol:DebtTracking",
						"label": "Debt",
						"offset": 0,
						"slot": "0",
						"type": "t_mapping(t_address,t_mapping(t_address,t_uint256))"
					}
				],
				"types": {
					"t_address": {
						"encoding": "inplace",
						"label": "address",
						"numberOfBytes": "20"
					},
					"t_mapping(t_address,t_mapping(t_address,t_uint256))": {
						"encoding": "mapping",
						"key": "t_address",
						"label": "mapping(address => mapping(address => uint256))",
						"numberOfBytes": "32",
						"value": "t_mapping(t_address,t_uint256)"
					},
					"t_mapping(t_address,t_uint256)": {
						"encoding": "mapping",
						"key": "t_address",
						"label": "mapping(address => uint256)",
						"numberOfBytes": "32",
						"value": "t_uint256"
					},
					"t_uint256": {
						"encoding": "inplace",
						"label": "uint256",
						"numberOfBytes": "32"
					}
				}
			},
			"userdoc": {
				"kind": "user",
				"methods": {},
				"version": 1
			}
		}
	}
}