{
	"Practice/Destruct1.sol": {
		"Competitors": {
			"abi": [
				{
					"inputs": [],
					"stateMutability": "nonpayable",
					"type": "constructor"
				},
				{
					"inputs": [],
					"name": "deposit",
					"outputs": [],
					"stateMutability": "payable",
					"type": "function"
				},
				{
					"inputs": [],
					"name": "destroy",
					"outputs": [],
					"stateMutability": "nonpayable",
					"type": "function"
				},
				{
					"inputs": [],
					"name": "withdraw",
					"outputs": [],
					"stateMutability": "nonpayable",
					"type": "function"
				}
			],
			"devdoc": {
				"kind": "dev",
				"methods": {},
				"version": 1
			},
			"evm": {
				"assembly": "    /* \"Practice/Destruct1.sol\":64:1833  contract Competitors{... */\n  mstore(0x40, 0x80)\n    /* \"Practice/Destruct1.sol\":272:318  constructor(){... */\n  callvalue\n  dup1\n  iszero\n  tag_1\n  jumpi\n  0x00\n  dup1\n  revert\ntag_1:\n  pop\n    /* \"Practice/Destruct1.sol\":301:311  msg.sender */\n  caller\n    /* \"Practice/Destruct1.sol\":295:300  owner */\n  0x00\n  dup1\n    /* \"Practice/Destruct1.sol\":295:311  owner=msg.sender */\n  0x0100\n  exp\n  dup2\n  sload\n  dup2\n  0xffffffffffffffffffffffffffffffffffffffff\n  mul\n  not\n  and\n  swap1\n  dup4\n  0xffffffffffffffffffffffffffffffffffffffff\n  and\n  mul\n  or\n  swap1\n  sstore\n  pop\n    /* \"Practice/Destruct1.sol\":64:1833  contract Competitors{... */\n  dataSize(sub_0)\n  dup1\n  dataOffset(sub_0)\n  0x00\n  codecopy\n  0x00\n  return\nstop\n\nsub_0: assembly {\n        /* \"Practice/Destruct1.sol\":64:1833  contract Competitors{... */\n      mstore(0x40, 0x80)\n      jumpi(tag_1, lt(calldatasize, 0x04))\n      shr(0xe0, calldataload(0x00))\n      dup1\n      0x3ccfd60b\n      eq\n      tag_2\n      jumpi\n      dup1\n      0x83197ef0\n      eq\n      tag_3\n      jumpi\n      dup1\n      0xd0e30db0\n      eq\n      tag_4\n      jumpi\n    tag_1:\n      0x00\n      dup1\n      revert\n        /* \"Practice/Destruct1.sol\":1246:1589  function withdraw()external{... */\n    tag_2:\n      callvalue\n      dup1\n      iszero\n      tag_5\n      jumpi\n      0x00\n      dup1\n      revert\n    tag_5:\n      pop\n      tag_6\n      tag_7\n      jump\t// in\n    tag_6:\n      stop\n        /* \"Practice/Destruct1.sol\":1594:1830  function destroy() external{... */\n    tag_3:\n      callvalue\n      dup1\n      iszero\n      tag_8\n      jumpi\n      0x00\n      dup1\n      revert\n    tag_8:\n      pop\n      tag_9\n      tag_10\n      jump\t// in\n    tag_9:\n      stop\n        /* \"Practice/Destruct1.sol\":323:1241  function deposit()external payable{... */\n    tag_4:\n      tag_11\n      tag_12\n      jump\t// in\n    tag_11:\n      stop\n        /* \"Practice/Destruct1.sol\":1246:1589  function withdraw()external{... */\n    tag_7:\n        /* \"Practice/Destruct1.sol\":1333:1340  3 ether */\n      0x29a2241af62c0000\n        /* \"Practice/Destruct1.sol\":1311:1330  depositor2Deposited */\n      sload(0x05)\n        /* \"Practice/Destruct1.sol\":1291:1310  depositor1Deposited */\n      sload(0x04)\n        /* \"Practice/Destruct1.sol\":1291:1330  depositor1Deposited+depositor2Deposited */\n      tag_14\n      swap2\n      swap1\n      tag_15\n      jump\t// in\n    tag_14:\n        /* \"Practice/Destruct1.sol\":1291:1340  depositor1Deposited+depositor2Deposited>= 3 ether */\n      lt\n      iszero\n        /* \"Practice/Destruct1.sol\":1283:1377  require(depositor1Deposited+depositor2Deposited>= 3 ether,\"3 ether has not yet been recieved\") */\n      tag_16\n      jumpi\n      mload(0x40)\n      0x08c379a000000000000000000000000000000000000000000000000000000000\n      dup2\n      mstore\n      0x04\n      add\n      tag_17\n      swap1\n      tag_18\n      jump\t// in\n    tag_17:\n      mload(0x40)\n      dup1\n      swap2\n      sub\n      swap1\n      revert\n    tag_16:\n        /* \"Practice/Destruct1.sol\":1407:1419  maxDepositor */\n      0x03\n      0x00\n      swap1\n      sload\n      swap1\n      0x0100\n      exp\n      swap1\n      div\n      0xffffffffffffffffffffffffffffffffffffffff\n      and\n        /* \"Practice/Destruct1.sol\":1395:1419  msg.sender==maxDepositor */\n      0xffffffffffffffffffffffffffffffffffffffff\n      and\n        /* \"Practice/Destruct1.sol\":1395:1405  msg.sender */\n      caller\n        /* \"Practice/Destruct1.sol\":1395:1419  msg.sender==maxDepositor */\n      0xffffffffffffffffffffffffffffffffffffffff\n      and\n      eq\n        /* \"Practice/Destruct1.sol\":1387:1457  require(msg.sender==maxDepositor,\"you did not deposit the most ether\") */\n      tag_19\n      jumpi\n      mload(0x40)\n      0x08c379a000000000000000000000000000000000000000000000000000000000\n      dup2\n      mstore\n      0x04\n      add\n      tag_20\n      swap1\n      tag_21\n      jump\t// in\n    tag_20:\n      mload(0x40)\n      dup1\n      swap2\n      sub\n      swap1\n      revert\n    tag_19:\n        /* \"Practice/Destruct1.sol\":1468:1477  bool sent */\n      0x00\n        /* \"Practice/Destruct1.sol\":1488:1500  maxDepositor */\n      0x03\n      0x00\n      swap1\n      sload\n      swap1\n      0x0100\n      exp\n      swap1\n      div\n      0xffffffffffffffffffffffffffffffffffffffff\n      and\n        /* \"Practice/Destruct1.sol\":1480:1506  payable(maxDepositor).call */\n      0xffffffffffffffffffffffffffffffffffffffff\n      and\n        /* \"Practice/Destruct1.sol\":1513:1520  3 ether */\n      0x29a2241af62c0000\n        /* \"Practice/Destruct1.sol\":1480:1525  payable(maxDepositor).call{value:3 ether}(\"\") */\n      mload(0x40)\n      tag_22\n      swap1\n      tag_23\n      jump\t// in\n    tag_22:\n      0x00\n      mload(0x40)\n      dup1\n      dup4\n      sub\n      dup2\n      dup6\n      dup8\n      gas\n      call\n      swap3\n      pop\n      pop\n      pop\n      returndatasize\n      dup1\n      0x00\n      dup2\n      eq\n      tag_26\n      jumpi\n      mload(0x40)\n      swap2\n      pop\n      and(add(returndatasize, 0x3f), not(0x1f))\n      dup3\n      add\n      0x40\n      mstore\n      returndatasize\n      dup3\n      mstore\n      returndatasize\n      0x00\n      0x20\n      dup5\n      add\n      returndatacopy\n      jump(tag_25)\n    tag_26:\n      0x60\n      swap2\n      pop\n    tag_25:\n      pop\n        /* \"Practice/Destruct1.sol\":1467:1525  (bool sent,)=payable(maxDepositor).call{value:3 ether}(\"\") */\n      pop\n      swap1\n      pop\n        /* \"Practice/Destruct1.sol\":1543:1547  sent */\n      dup1\n        /* \"Practice/Destruct1.sol\":1535:1559  require(sent,\"not sent\") */\n      tag_27\n      jumpi\n      mload(0x40)\n      0x08c379a000000000000000000000000000000000000000000000000000000000\n      dup2\n      mstore\n      0x04\n      add\n      tag_28\n      swap1\n      tag_29\n      jump\t// in\n    tag_28:\n      mload(0x40)\n      dup1\n      swap2\n      sub\n      swap1\n      revert\n    tag_27:\n        /* \"Practice/Destruct1.sol\":1578:1582  true */\n      0x01\n        /* \"Practice/Destruct1.sol\":1569:1577  withdrew */\n      0x06\n      0x00\n        /* \"Practice/Destruct1.sol\":1569:1582  withdrew=true */\n      0x0100\n      exp\n      dup2\n      sload\n      dup2\n      0xff\n      mul\n      not\n      and\n      swap1\n      dup4\n      iszero\n      iszero\n      mul\n      or\n      swap1\n      sstore\n      pop\n        /* \"Practice/Destruct1.sol\":1273:1589  {... */\n      pop\n        /* \"Practice/Destruct1.sol\":1246:1589  function withdraw()external{... */\n      jump\t// out\n        /* \"Practice/Destruct1.sol\":1594:1830  function destroy() external{... */\n    tag_10:\n        /* \"Practice/Destruct1.sol\":1651:1656  owner */\n      0x00\n      dup1\n      sload\n      swap1\n      0x0100\n      exp\n      swap1\n      div\n      0xffffffffffffffffffffffffffffffffffffffff\n      and\n        /* \"Practice/Destruct1.sol\":1639:1656  msg.sender==owner */\n      0xffffffffffffffffffffffffffffffffffffffff\n      and\n        /* \"Practice/Destruct1.sol\":1639:1649  msg.sender */\n      caller\n        /* \"Practice/Destruct1.sol\":1639:1656  msg.sender==owner */\n      0xffffffffffffffffffffffffffffffffffffffff\n      and\n      eq\n        /* \"Practice/Destruct1.sol\":1631:1681  require(msg.sender==owner,\"you are not the owner\") */\n      tag_31\n      jumpi\n      mload(0x40)\n      0x08c379a000000000000000000000000000000000000000000000000000000000\n      dup2\n      mstore\n      0x04\n      add\n      tag_32\n      swap1\n      tag_33\n      jump\t// in\n    tag_32:\n      mload(0x40)\n      dup1\n      swap2\n      sub\n      swap1\n      revert\n    tag_31:\n        /* \"Practice/Destruct1.sol\":1722:1726  true */\n      0x01\n        /* \"Practice/Destruct1.sol\":1712:1726  withdrew==true */\n      iszero\n      iszero\n        /* \"Practice/Destruct1.sol\":1712:1720  withdrew */\n      0x06\n      0x00\n      swap1\n      sload\n      swap1\n      0x0100\n      exp\n      swap1\n      div\n      0xff\n      and\n        /* \"Practice/Destruct1.sol\":1712:1726  withdrew==true */\n      iszero\n      iszero\n      eq\n        /* \"Practice/Destruct1.sol\":1691:1785  require(... */\n      tag_34\n      jumpi\n      mload(0x40)\n      0x08c379a000000000000000000000000000000000000000000000000000000000\n      dup2\n      mstore\n      0x04\n      add\n      tag_35\n      swap1\n      tag_36\n      jump\t// in\n    tag_35:\n      mload(0x40)\n      dup1\n      swap2\n      sub\n      swap1\n      revert\n    tag_34:\n        /* \"Practice/Destruct1.sol\":1816:1821  owner */\n      0x00\n      dup1\n      sload\n      swap1\n      0x0100\n      exp\n      swap1\n      div\n      0xffffffffffffffffffffffffffffffffffffffff\n      and\n        /* \"Practice/Destruct1.sol\":1795:1823  selfdestruct(payable(owner)) */\n      0xffffffffffffffffffffffffffffffffffffffff\n      and\n      selfdestruct\n        /* \"Practice/Destruct1.sol\":323:1241  function deposit()external payable{... */\n    tag_12:\n        /* \"Practice/Destruct1.sol\":386:393  1 ether */\n      0x0de0b6b3a7640000\n        /* \"Practice/Destruct1.sol\":375:384  msg.value */\n      callvalue\n        /* \"Practice/Destruct1.sol\":375:393  msg.value==1 ether */\n      eq\n        /* \"Practice/Destruct1.sol\":367:430  require(msg.value==1 ether,\"you can only send exactly 1 ether\") */\n      tag_38\n      jumpi\n      mload(0x40)\n      0x08c379a000000000000000000000000000000000000000000000000000000000\n      dup2\n      mstore\n      0x04\n      add\n      tag_39\n      swap1\n      tag_40\n      jump\t// in\n    tag_39:\n      mload(0x40)\n      dup1\n      swap2\n      sub\n      swap1\n      revert\n    tag_38:\n        /* \"Practice/Destruct1.sol\":501:508  3 ether */\n      0x29a2241af62c0000\n        /* \"Practice/Destruct1.sol\":481:500  depositor2Deposited */\n      sload(0x05)\n        /* \"Practice/Destruct1.sol\":461:480  depositor1Deposited */\n      sload(0x04)\n        /* \"Practice/Destruct1.sol\":461:500  depositor1Deposited+depositor2Deposited */\n      tag_41\n      swap2\n      swap1\n      tag_15\n      jump\t// in\n    tag_41:\n        /* \"Practice/Destruct1.sol\":461:508  depositor1Deposited+depositor2Deposited<3 ether */\n      lt\n        /* \"Practice/Destruct1.sol\":440:576  require(... */\n      tag_42\n      jumpi\n      mload(0x40)\n      0x08c379a000000000000000000000000000000000000000000000000000000000\n      dup2\n      mstore\n      0x04\n      add\n      tag_43\n      swap1\n      tag_44\n      jump\t// in\n    tag_43:\n      mload(0x40)\n      dup1\n      swap2\n      sub\n      swap1\n      revert\n    tag_42:\n        /* \"Practice/Destruct1.sol\":609:610  0 */\n      0x00\n        /* \"Practice/Destruct1.sol\":589:611  depositor1==address(0) */\n      0xffffffffffffffffffffffffffffffffffffffff\n      and\n        /* \"Practice/Destruct1.sol\":589:599  depositor1 */\n      0x01\n      0x00\n      swap1\n      sload\n      swap1\n      0x0100\n      exp\n      swap1\n      div\n      0xffffffffffffffffffffffffffffffffffffffff\n      and\n        /* \"Practice/Destruct1.sol\":589:611  depositor1==address(0) */\n      0xffffffffffffffffffffffffffffffffffffffff\n      and\n      sub\n        /* \"Practice/Destruct1.sol\":586:735  if(depositor1==address(0)){... */\n      tag_45\n      jumpi\n        /* \"Practice/Destruct1.sol\":637:647  msg.sender */\n      caller\n        /* \"Practice/Destruct1.sol\":626:636  depositor1 */\n      0x01\n      0x00\n        /* \"Practice/Destruct1.sol\":626:647  depositor1=msg.sender */\n      0x0100\n      exp\n      dup2\n      sload\n      dup2\n      0xffffffffffffffffffffffffffffffffffffffff\n      mul\n      not\n      and\n      swap1\n      dup4\n      0xffffffffffffffffffffffffffffffffffffffff\n      and\n      mul\n      or\n      swap1\n      sstore\n      pop\n        /* \"Practice/Destruct1.sol\":586:735  if(depositor1==address(0)){... */\n      jump(tag_46)\n    tag_45:\n        /* \"Practice/Destruct1.sol\":686:687  0 */\n      0x00\n        /* \"Practice/Destruct1.sol\":666:688  depositor2==address(0) */\n      0xffffffffffffffffffffffffffffffffffffffff\n      and\n        /* \"Practice/Destruct1.sol\":666:676  depositor2 */\n      0x02\n      0x00\n      swap1\n      sload\n      swap1\n      0x0100\n      exp\n      swap1\n      div\n      0xffffffffffffffffffffffffffffffffffffffff\n      and\n        /* \"Practice/Destruct1.sol\":666:688  depositor2==address(0) */\n      0xffffffffffffffffffffffffffffffffffffffff\n      and\n      sub\n        /* \"Practice/Destruct1.sol\":663:735  if(depositor2==address(0)){... */\n      tag_47\n      jumpi\n        /* \"Practice/Destruct1.sol\":714:724  msg.sender */\n      caller\n        /* \"Practice/Destruct1.sol\":703:713  depositor2 */\n      0x02\n      0x00\n        /* \"Practice/Destruct1.sol\":703:724  depositor2=msg.sender */\n      0x0100\n      exp\n      dup2\n      sload\n      dup2\n      0xffffffffffffffffffffffffffffffffffffffff\n      mul\n      not\n      and\n      swap1\n      dup4\n      0xffffffffffffffffffffffffffffffffffffffff\n      and\n      mul\n      or\n      swap1\n      sstore\n      pop\n        /* \"Practice/Destruct1.sol\":663:735  if(depositor2==address(0)){... */\n    tag_47:\n        /* \"Practice/Destruct1.sol\":586:735  if(depositor1==address(0)){... */\n    tag_46:\n        /* \"Practice/Destruct1.sol\":760:770  depositor1 */\n      0x01\n      0x00\n      swap1\n      sload\n      swap1\n      0x0100\n      exp\n      swap1\n      div\n      0xffffffffffffffffffffffffffffffffffffffff\n      and\n        /* \"Practice/Destruct1.sol\":748:770  msg.sender==depositor1 */\n      0xffffffffffffffffffffffffffffffffffffffff\n      and\n        /* \"Practice/Destruct1.sol\":748:758  msg.sender */\n      caller\n        /* \"Practice/Destruct1.sol\":748:770  msg.sender==depositor1 */\n      0xffffffffffffffffffffffffffffffffffffffff\n      and\n      sub\n        /* \"Practice/Destruct1.sol\":744:991  if (msg.sender==depositor1){... */\n      tag_48\n      jumpi\n        /* \"Practice/Destruct1.sol\":806:815  msg.value */\n      callvalue\n        /* \"Practice/Destruct1.sol\":785:804  depositor1Deposited */\n      0x04\n      0x00\n        /* \"Practice/Destruct1.sol\":785:815  depositor1Deposited+=msg.value */\n      dup3\n      dup3\n      sload\n      tag_49\n      swap2\n      swap1\n      tag_15\n      jump\t// in\n    tag_49:\n      swap3\n      pop\n      pop\n      dup2\n      swap1\n      sstore\n      pop\n        /* \"Practice/Destruct1.sol\":744:991  if (msg.sender==depositor1){... */\n      jump(tag_50)\n    tag_48:\n        /* \"Practice/Destruct1.sol\":846:856  depositor2 */\n      0x02\n      0x00\n      swap1\n      sload\n      swap1\n      0x0100\n      exp\n      swap1\n      div\n      0xffffffffffffffffffffffffffffffffffffffff\n      and\n        /* \"Practice/Destruct1.sol\":834:856  msg.sender==depositor2 */\n      0xffffffffffffffffffffffffffffffffffffffff\n      and\n        /* \"Practice/Destruct1.sol\":834:844  msg.sender */\n      caller\n        /* \"Practice/Destruct1.sol\":834:856  msg.sender==depositor2 */\n      0xffffffffffffffffffffffffffffffffffffffff\n      and\n      sub\n        /* \"Practice/Destruct1.sol\":831:991  if(msg.sender==depositor2){... */\n      tag_51\n      jumpi\n        /* \"Practice/Destruct1.sol\":891:900  msg.value */\n      callvalue\n        /* \"Practice/Destruct1.sol\":871:890  depositor2Deposited */\n      0x05\n        /* \"Practice/Destruct1.sol\":871:900  depositor2Deposited=msg.value */\n      dup2\n      swap1\n      sstore\n      pop\n        /* \"Practice/Destruct1.sol\":831:991  if(msg.sender==depositor2){... */\n      jump(tag_52)\n    tag_51:\n        /* \"Practice/Destruct1.sol\":930:979  revert(\"you are not one of the valid depositors\") */\n      mload(0x40)\n      0x08c379a000000000000000000000000000000000000000000000000000000000\n      dup2\n      mstore\n      0x04\n      add\n      tag_53\n      swap1\n      tag_54\n      jump\t// in\n    tag_53:\n      mload(0x40)\n      dup1\n      swap2\n      sub\n      swap1\n      revert\n        /* \"Practice/Destruct1.sol\":831:991  if(msg.sender==depositor2){... */\n    tag_52:\n        /* \"Practice/Destruct1.sol\":744:991  if (msg.sender==depositor1){... */\n    tag_50:\n        /* \"Practice/Destruct1.sol\":1044:1051  3 ether */\n      0x29a2241af62c0000\n        /* \"Practice/Destruct1.sol\":1023:1042  depositor2Deposited */\n      sload(0x05)\n        /* \"Practice/Destruct1.sol\":1003:1022  depositor1Deposited */\n      sload(0x04)\n        /* \"Practice/Destruct1.sol\":1003:1042  depositor1Deposited+depositor2Deposited */\n      tag_55\n      swap2\n      swap1\n      tag_15\n      jump\t// in\n    tag_55:\n        /* \"Practice/Destruct1.sol\":1003:1051  depositor1Deposited+depositor2Deposited>=3 ether */\n      lt\n        /* \"Practice/Destruct1.sol\":1000:1235  if(depositor1Deposited+depositor2Deposited>=3 ether){... */\n      tag_56\n      jumpi\n        /* \"Practice/Destruct1.sol\":1089:1108  depositor2Deposited */\n      sload(0x05)\n        /* \"Practice/Destruct1.sol\":1069:1088  depositor1Deposited */\n      sload(0x04)\n        /* \"Practice/Destruct1.sol\":1069:1108  depositor1Deposited>depositor2Deposited */\n      gt\n        /* \"Practice/Destruct1.sol\":1066:1225  if(depositor1Deposited>depositor2Deposited){... */\n      iszero\n      tag_57\n      jumpi\n        /* \"Practice/Destruct1.sol\":1140:1150  depositor1 */\n      0x01\n      0x00\n      swap1\n      sload\n      swap1\n      0x0100\n      exp\n      swap1\n      div\n      0xffffffffffffffffffffffffffffffffffffffff\n      and\n        /* \"Practice/Destruct1.sol\":1127:1139  maxDepositor */\n      0x03\n      0x00\n        /* \"Practice/Destruct1.sol\":1127:1150  maxDepositor=depositor1 */\n      0x0100\n      exp\n      dup2\n      sload\n      dup2\n      0xffffffffffffffffffffffffffffffffffffffff\n      mul\n      not\n      and\n      swap1\n      dup4\n      0xffffffffffffffffffffffffffffffffffffffff\n      and\n      mul\n      or\n      swap1\n      sstore\n      pop\n        /* \"Practice/Destruct1.sol\":1066:1225  if(depositor1Deposited>depositor2Deposited){... */\n      jump(tag_58)\n    tag_57:\n        /* \"Practice/Destruct1.sol\":1200:1210  depositor2 */\n      0x02\n      0x00\n      swap1\n      sload\n      swap1\n      0x0100\n      exp\n      swap1\n      div\n      0xffffffffffffffffffffffffffffffffffffffff\n      and\n        /* \"Practice/Destruct1.sol\":1187:1199  maxDepositor */\n      0x03\n      0x00\n        /* \"Practice/Destruct1.sol\":1187:1210  maxDepositor=depositor2 */\n      0x0100\n      exp\n      dup2\n      sload\n      dup2\n      0xffffffffffffffffffffffffffffffffffffffff\n      mul\n      not\n      and\n      swap1\n      dup4\n      0xffffffffffffffffffffffffffffffffffffffff\n      and\n      mul\n      or\n      swap1\n      sstore\n      pop\n        /* \"Practice/Destruct1.sol\":1066:1225  if(depositor1Deposited>depositor2Deposited){... */\n    tag_58:\n        /* \"Practice/Destruct1.sol\":1000:1235  if(depositor1Deposited+depositor2Deposited>=3 ether){... */\n    tag_56:\n        /* \"Practice/Destruct1.sol\":323:1241  function deposit()external payable{... */\n      jump\t// out\n        /* \"#utility.yul\":7:84   */\n    tag_59:\n        /* \"#utility.yul\":44:51   */\n      0x00\n        /* \"#utility.yul\":73:78   */\n      dup2\n        /* \"#utility.yul\":62:78   */\n      swap1\n      pop\n        /* \"#utility.yul\":7:84   */\n      swap2\n      swap1\n      pop\n      jump\t// out\n        /* \"#utility.yul\":90:270   */\n    tag_60:\n        /* \"#utility.yul\":138:215   */\n      0x4e487b7100000000000000000000000000000000000000000000000000000000\n        /* \"#utility.yul\":135:136   */\n      0x00\n        /* \"#utility.yul\":128:216   */\n      mstore\n        /* \"#utility.yul\":235:239   */\n      0x11\n        /* \"#utility.yul\":232:233   */\n      0x04\n        /* \"#utility.yul\":225:240   */\n      mstore\n        /* \"#utility.yul\":259:263   */\n      0x24\n        /* \"#utility.yul\":256:257   */\n      0x00\n        /* \"#utility.yul\":249:264   */\n      revert\n        /* \"#utility.yul\":276:467   */\n    tag_15:\n        /* \"#utility.yul\":316:319   */\n      0x00\n        /* \"#utility.yul\":335:355   */\n      tag_85\n        /* \"#utility.yul\":353:354   */\n      dup3\n        /* \"#utility.yul\":335:355   */\n      tag_59\n      jump\t// in\n    tag_85:\n        /* \"#utility.yul\":330:355   */\n      swap2\n      pop\n        /* \"#utility.yul\":369:389   */\n      tag_86\n        /* \"#utility.yul\":387:388   */\n      dup4\n        /* \"#utility.yul\":369:389   */\n      tag_59\n      jump\t// in\n    tag_86:\n        /* \"#utility.yul\":364:389   */\n      swap3\n      pop\n        /* \"#utility.yul\":412:413   */\n      dup3\n        /* \"#utility.yul\":409:410   */\n      dup3\n        /* \"#utility.yul\":405:414   */\n      add\n        /* \"#utility.yul\":398:414   */\n      swap1\n      pop\n        /* \"#utility.yul\":433:436   */\n      dup1\n        /* \"#utility.yul\":430:431   */\n      dup3\n        /* \"#utility.yul\":427:437   */\n      gt\n        /* \"#utility.yul\":424:460   */\n      iszero\n      tag_87\n      jumpi\n        /* \"#utility.yul\":440:458   */\n      tag_88\n      tag_60\n      jump\t// in\n    tag_88:\n        /* \"#utility.yul\":424:460   */\n    tag_87:\n        /* \"#utility.yul\":276:467   */\n      swap3\n      swap2\n      pop\n      pop\n      jump\t// out\n        /* \"#utility.yul\":473:642   */\n    tag_61:\n        /* \"#utility.yul\":557:568   */\n      0x00\n        /* \"#utility.yul\":591:597   */\n      dup3\n        /* \"#utility.yul\":586:589   */\n      dup3\n        /* \"#utility.yul\":579:598   */\n      mstore\n        /* \"#utility.yul\":631:635   */\n      0x20\n        /* \"#utility.yul\":626:629   */\n      dup3\n        /* \"#utility.yul\":622:636   */\n      add\n        /* \"#utility.yul\":607:636   */\n      swap1\n      pop\n        /* \"#utility.yul\":473:642   */\n      swap3\n      swap2\n      pop\n      pop\n      jump\t// out\n        /* \"#utility.yul\":648:868   */\n    tag_62:\n        /* \"#utility.yul\":788:822   */\n      0x3320657468657220686173206e6f7420796574206265656e2072656369657665\n        /* \"#utility.yul\":784:785   */\n      0x00\n        /* \"#utility.yul\":776:782   */\n      dup3\n        /* \"#utility.yul\":772:786   */\n      add\n        /* \"#utility.yul\":765:823   */\n      mstore\n        /* \"#utility.yul\":857:860   */\n      0x6400000000000000000000000000000000000000000000000000000000000000\n        /* \"#utility.yul\":852:854   */\n      0x20\n        /* \"#utility.yul\":844:850   */\n      dup3\n        /* \"#utility.yul\":840:855   */\n      add\n        /* \"#utility.yul\":833:861   */\n      mstore\n        /* \"#utility.yul\":648:868   */\n      pop\n      jump\t// out\n        /* \"#utility.yul\":874:1240   */\n    tag_63:\n        /* \"#utility.yul\":1016:1019   */\n      0x00\n        /* \"#utility.yul\":1037:1104   */\n      tag_92\n        /* \"#utility.yul\":1101:1103   */\n      0x21\n        /* \"#utility.yul\":1096:1099   */\n      dup4\n        /* \"#utility.yul\":1037:1104   */\n      tag_61\n      jump\t// in\n    tag_92:\n        /* \"#utility.yul\":1030:1104   */\n      swap2\n      pop\n        /* \"#utility.yul\":1113:1206   */\n      tag_93\n        /* \"#utility.yul\":1202:1205   */\n      dup3\n        /* \"#utility.yul\":1113:1206   */\n      tag_62\n      jump\t// in\n    tag_93:\n        /* \"#utility.yul\":1231:1233   */\n      0x40\n        /* \"#utility.yul\":1226:1229   */\n      dup3\n        /* \"#utility.yul\":1222:1234   */\n      add\n        /* \"#utility.yul\":1215:1234   */\n      swap1\n      pop\n        /* \"#utility.yul\":874:1240   */\n      swap2\n      swap1\n      pop\n      jump\t// out\n        /* \"#utility.yul\":1246:1665   */\n    tag_18:\n        /* \"#utility.yul\":1412:1416   */\n      0x00\n        /* \"#utility.yul\":1450:1452   */\n      0x20\n        /* \"#utility.yul\":1439:1448   */\n      dup3\n        /* \"#utility.yul\":1435:1453   */\n      add\n        /* \"#utility.yul\":1427:1453   */\n      swap1\n      pop\n        /* \"#utility.yul\":1499:1508   */\n      dup2\n        /* \"#utility.yul\":1493:1497   */\n      dup2\n        /* \"#utility.yul\":1489:1509   */\n      sub\n        /* \"#utility.yul\":1485:1486   */\n      0x00\n        /* \"#utility.yul\":1474:1483   */\n      dup4\n        /* \"#utility.yul\":1470:1487   */\n      add\n        /* \"#utility.yul\":1463:1510   */\n      mstore\n        /* \"#utility.yul\":1527:1658   */\n      tag_95\n        /* \"#utility.yul\":1653:1657   */\n      dup2\n        /* \"#utility.yul\":1527:1658   */\n      tag_63\n      jump\t// in\n    tag_95:\n        /* \"#utility.yul\":1519:1658   */\n      swap1\n      pop\n        /* \"#utility.yul\":1246:1665   */\n      swap2\n      swap1\n      pop\n      jump\t// out\n        /* \"#utility.yul\":1671:1892   */\n    tag_64:\n        /* \"#utility.yul\":1811:1845   */\n      0x796f7520646964206e6f74206465706f73697420746865206d6f737420657468\n        /* \"#utility.yul\":1807:1808   */\n      0x00\n        /* \"#utility.yul\":1799:1805   */\n      dup3\n        /* \"#utility.yul\":1795:1809   */\n      add\n        /* \"#utility.yul\":1788:1846   */\n      mstore\n        /* \"#utility.yul\":1880:1884   */\n      0x6572000000000000000000000000000000000000000000000000000000000000\n        /* \"#utility.yul\":1875:1877   */\n      0x20\n        /* \"#utility.yul\":1867:1873   */\n      dup3\n        /* \"#utility.yul\":1863:1878   */\n      add\n        /* \"#utility.yul\":1856:1885   */\n      mstore\n        /* \"#utility.yul\":1671:1892   */\n      pop\n      jump\t// out\n        /* \"#utility.yul\":1898:2264   */\n    tag_65:\n        /* \"#utility.yul\":2040:2043   */\n      0x00\n        /* \"#utility.yul\":2061:2128   */\n      tag_98\n        /* \"#utility.yul\":2125:2127   */\n      0x22\n        /* \"#utility.yul\":2120:2123   */\n      dup4\n        /* \"#utility.yul\":2061:2128   */\n      tag_61\n      jump\t// in\n    tag_98:\n        /* \"#utility.yul\":2054:2128   */\n      swap2\n      pop\n        /* \"#utility.yul\":2137:2230   */\n      tag_99\n        /* \"#utility.yul\":2226:2229   */\n      dup3\n        /* \"#utility.yul\":2137:2230   */\n      tag_64\n      jump\t// in\n    tag_99:\n        /* \"#utility.yul\":2255:2257   */\n      0x40\n        /* \"#utility.yul\":2250:2253   */\n      dup3\n        /* \"#utility.yul\":2246:2258   */\n      add\n        /* \"#utility.yul\":2239:2258   */\n      swap1\n      pop\n        /* \"#utility.yul\":1898:2264   */\n      swap2\n      swap1\n      pop\n      jump\t// out\n        /* \"#utility.yul\":2270:2689   */\n    tag_21:\n        /* \"#utility.yul\":2436:2440   */\n      0x00\n        /* \"#utility.yul\":2474:2476   */\n      0x20\n        /* \"#utility.yul\":2463:2472   */\n      dup3\n        /* \"#utility.yul\":2459:2477   */\n      add\n        /* \"#utility.yul\":2451:2477   */\n      swap1\n      pop\n        /* \"#utility.yul\":2523:2532   */\n      dup2\n        /* \"#utility.yul\":2517:2521   */\n      dup2\n        /* \"#utility.yul\":2513:2533   */\n      sub\n        /* \"#utility.yul\":2509:2510   */\n      0x00\n        /* \"#utility.yul\":2498:2507   */\n      dup4\n        /* \"#utility.yul\":2494:2511   */\n      add\n        /* \"#utility.yul\":2487:2534   */\n      mstore\n        /* \"#utility.yul\":2551:2682   */\n      tag_101\n        /* \"#utility.yul\":2677:2681   */\n      dup2\n        /* \"#utility.yul\":2551:2682   */\n      tag_65\n      jump\t// in\n    tag_101:\n        /* \"#utility.yul\":2543:2682   */\n      swap1\n      pop\n        /* \"#utility.yul\":2270:2689   */\n      swap2\n      swap1\n      pop\n      jump\t// out\n        /* \"#utility.yul\":2695:2842   */\n    tag_66:\n        /* \"#utility.yul\":2796:2807   */\n      0x00\n        /* \"#utility.yul\":2833:2836   */\n      dup2\n        /* \"#utility.yul\":2818:2836   */\n      swap1\n      pop\n        /* \"#utility.yul\":2695:2842   */\n      swap3\n      swap2\n      pop\n      pop\n      jump\t// out\n        /* \"#utility.yul\":2848:2962   */\n    tag_67:\n      pop\n      jump\t// out\n        /* \"#utility.yul\":2968:3366   */\n    tag_68:\n        /* \"#utility.yul\":3127:3130   */\n      0x00\n        /* \"#utility.yul\":3148:3231   */\n      tag_105\n        /* \"#utility.yul\":3229:3230   */\n      0x00\n        /* \"#utility.yul\":3224:3227   */\n      dup4\n        /* \"#utility.yul\":3148:3231   */\n      tag_66\n      jump\t// in\n    tag_105:\n        /* \"#utility.yul\":3141:3231   */\n      swap2\n      pop\n        /* \"#utility.yul\":3240:3333   */\n      tag_106\n        /* \"#utility.yul\":3329:3332   */\n      dup3\n        /* \"#utility.yul\":3240:3333   */\n      tag_67\n      jump\t// in\n    tag_106:\n        /* \"#utility.yul\":3358:3359   */\n      0x00\n        /* \"#utility.yul\":3353:3356   */\n      dup3\n        /* \"#utility.yul\":3349:3360   */\n      add\n        /* \"#utility.yul\":3342:3360   */\n      swap1\n      pop\n        /* \"#utility.yul\":2968:3366   */\n      swap2\n      swap1\n      pop\n      jump\t// out\n        /* \"#utility.yul\":3372:3751   */\n    tag_23:\n        /* \"#utility.yul\":3556:3559   */\n      0x00\n        /* \"#utility.yul\":3578:3725   */\n      tag_108\n        /* \"#utility.yul\":3721:3724   */\n      dup3\n        /* \"#utility.yul\":3578:3725   */\n      tag_68\n      jump\t// in\n    tag_108:\n        /* \"#utility.yul\":3571:3725   */\n      swap2\n      pop\n        /* \"#utility.yul\":3742:3745   */\n      dup2\n        /* \"#utility.yul\":3735:3745   */\n      swap1\n      pop\n        /* \"#utility.yul\":3372:3751   */\n      swap2\n      swap1\n      pop\n      jump\t// out\n        /* \"#utility.yul\":3757:3915   */\n    tag_69:\n        /* \"#utility.yul\":3897:3907   */\n      0x6e6f742073656e74000000000000000000000000000000000000000000000000\n        /* \"#utility.yul\":3893:3894   */\n      0x00\n        /* \"#utility.yul\":3885:3891   */\n      dup3\n        /* \"#utility.yul\":3881:3895   */\n      add\n        /* \"#utility.yul\":3874:3908   */\n      mstore\n        /* \"#utility.yul\":3757:3915   */\n      pop\n      jump\t// out\n        /* \"#utility.yul\":3921:4286   */\n    tag_70:\n        /* \"#utility.yul\":4063:4066   */\n      0x00\n        /* \"#utility.yul\":4084:4150   */\n      tag_111\n        /* \"#utility.yul\":4148:4149   */\n      0x08\n        /* \"#utility.yul\":4143:4146   */\n      dup4\n        /* \"#utility.yul\":4084:4150   */\n      tag_61\n      jump\t// in\n    tag_111:\n        /* \"#utility.yul\":4077:4150   */\n      swap2\n      pop\n        /* \"#utility.yul\":4159:4252   */\n      tag_112\n        /* \"#utility.yul\":4248:4251   */\n      dup3\n        /* \"#utility.yul\":4159:4252   */\n      tag_69\n      jump\t// in\n    tag_112:\n        /* \"#utility.yul\":4277:4279   */\n      0x20\n        /* \"#utility.yul\":4272:4275   */\n      dup3\n        /* \"#utility.yul\":4268:4280   */\n      add\n        /* \"#utility.yul\":4261:4280   */\n      swap1\n      pop\n        /* \"#utility.yul\":3921:4286   */\n      swap2\n      swap1\n      pop\n      jump\t// out\n        /* \"#utility.yul\":4292:4711   */\n    tag_29:\n        /* \"#utility.yul\":4458:4462   */\n      0x00\n        /* \"#utility.yul\":4496:4498   */\n      0x20\n        /* \"#utility.yul\":4485:4494   */\n      dup3\n        /* \"#utility.yul\":4481:4499   */\n      add\n        /* \"#utility.yul\":4473:4499   */\n      swap1\n      pop\n        /* \"#utility.yul\":4545:4554   */\n      dup2\n        /* \"#utility.yul\":4539:4543   */\n      dup2\n        /* \"#utility.yul\":4535:4555   */\n      sub\n        /* \"#utility.yul\":4531:4532   */\n      0x00\n        /* \"#utility.yul\":4520:4529   */\n      dup4\n        /* \"#utility.yul\":4516:4533   */\n      add\n        /* \"#utility.yul\":4509:4556   */\n      mstore\n        /* \"#utility.yul\":4573:4704   */\n      tag_114\n        /* \"#utility.yul\":4699:4703   */\n      dup2\n        /* \"#utility.yul\":4573:4704   */\n      tag_70\n      jump\t// in\n    tag_114:\n        /* \"#utility.yul\":4565:4704   */\n      swap1\n      pop\n        /* \"#utility.yul\":4292:4711   */\n      swap2\n      swap1\n      pop\n      jump\t// out\n        /* \"#utility.yul\":4717:4888   */\n    tag_71:\n        /* \"#utility.yul\":4857:4880   */\n      0x796f7520617265206e6f7420746865206f776e65720000000000000000000000\n        /* \"#utility.yul\":4853:4854   */\n      0x00\n        /* \"#utility.yul\":4845:4851   */\n      dup3\n        /* \"#utility.yul\":4841:4855   */\n      add\n        /* \"#utility.yul\":4834:4881   */\n      mstore\n        /* \"#utility.yul\":4717:4888   */\n      pop\n      jump\t// out\n        /* \"#utility.yul\":4894:5260   */\n    tag_72:\n        /* \"#utility.yul\":5036:5039   */\n      0x00\n        /* \"#utility.yul\":5057:5124   */\n      tag_117\n        /* \"#utility.yul\":5121:5123   */\n      0x15\n        /* \"#utility.yul\":5116:5119   */\n      dup4\n        /* \"#utility.yul\":5057:5124   */\n      tag_61\n      jump\t// in\n    tag_117:\n        /* \"#utility.yul\":5050:5124   */\n      swap2\n      pop\n        /* \"#utility.yul\":5133:5226   */\n      tag_118\n        /* \"#utility.yul\":5222:5225   */\n      dup3\n        /* \"#utility.yul\":5133:5226   */\n      tag_71\n      jump\t// in\n    tag_118:\n        /* \"#utility.yul\":5251:5253   */\n      0x20\n        /* \"#utility.yul\":5246:5249   */\n      dup3\n        /* \"#utility.yul\":5242:5254   */\n      add\n        /* \"#utility.yul\":5235:5254   */\n      swap1\n      pop\n        /* \"#utility.yul\":4894:5260   */\n      swap2\n      swap1\n      pop\n      jump\t// out\n        /* \"#utility.yul\":5266:5685   */\n    tag_33:\n        /* \"#utility.yul\":5432:5436   */\n      0x00\n        /* \"#utility.yul\":5470:5472   */\n      0x20\n        /* \"#utility.yul\":5459:5468   */\n      dup3\n        /* \"#utility.yul\":5455:5473   */\n      add\n        /* \"#utility.yul\":5447:5473   */\n      swap1\n      pop\n        /* \"#utility.yul\":5519:5528   */\n      dup2\n        /* \"#utility.yul\":5513:5517   */\n      dup2\n        /* \"#utility.yul\":5509:5529   */\n      sub\n        /* \"#utility.yul\":5505:5506   */\n      0x00\n        /* \"#utility.yul\":5494:5503   */\n      dup4\n        /* \"#utility.yul\":5490:5507   */\n      add\n        /* \"#utility.yul\":5483:5530   */\n      mstore\n        /* \"#utility.yul\":5547:5678   */\n      tag_120\n        /* \"#utility.yul\":5673:5677   */\n      dup2\n        /* \"#utility.yul\":5547:5678   */\n      tag_72\n      jump\t// in\n    tag_120:\n        /* \"#utility.yul\":5539:5678   */\n      swap1\n      pop\n        /* \"#utility.yul\":5266:5685   */\n      swap2\n      swap1\n      pop\n      jump\t// out\n        /* \"#utility.yul\":5691:5924   */\n    tag_73:\n        /* \"#utility.yul\":5831:5865   */\n      0x6d6178206465706f7369746f7220686173206e6f742079657420776974686472\n        /* \"#utility.yul\":5827:5828   */\n      0x00\n        /* \"#utility.yul\":5819:5825   */\n      dup3\n        /* \"#utility.yul\":5815:5829   */\n      add\n        /* \"#utility.yul\":5808:5866   */\n      mstore\n        /* \"#utility.yul\":5900:5916   */\n      0x65772074686569722066756e6473000000000000000000000000000000000000\n        /* \"#utility.yul\":5895:5897   */\n      0x20\n        /* \"#utility.yul\":5887:5893   */\n      dup3\n        /* \"#utility.yul\":5883:5898   */\n      add\n        /* \"#utility.yul\":5876:5917   */\n      mstore\n        /* \"#utility.yul\":5691:5924   */\n      pop\n      jump\t// out\n        /* \"#utility.yul\":5930:6296   */\n    tag_74:\n        /* \"#utility.yul\":6072:6075   */\n      0x00\n        /* \"#utility.yul\":6093:6160   */\n      tag_123\n        /* \"#utility.yul\":6157:6159   */\n      0x2e\n        /* \"#utility.yul\":6152:6155   */\n      dup4\n        /* \"#utility.yul\":6093:6160   */\n      tag_61\n      jump\t// in\n    tag_123:\n        /* \"#utility.yul\":6086:6160   */\n      swap2\n      pop\n        /* \"#utility.yul\":6169:6262   */\n      tag_124\n        /* \"#utility.yul\":6258:6261   */\n      dup3\n        /* \"#utility.yul\":6169:6262   */\n      tag_73\n      jump\t// in\n    tag_124:\n        /* \"#utility.yul\":6287:6289   */\n      0x40\n        /* \"#utility.yul\":6282:6285   */\n      dup3\n        /* \"#utility.yul\":6278:6290   */\n      add\n        /* \"#utility.yul\":6271:6290   */\n      swap1\n      pop\n        /* \"#utility.yul\":5930:6296   */\n      swap2\n      swap1\n      pop\n      jump\t// out\n        /* \"#utility.yul\":6302:6721   */\n    tag_36:\n        /* \"#utility.yul\":6468:6472   */\n      0x00\n        /* \"#utility.yul\":6506:6508   */\n      0x20\n        /* \"#utility.yul\":6495:6504   */\n      dup3\n        /* \"#utility.yul\":6491:6509   */\n      add\n        /* \"#utility.yul\":6483:6509   */\n      swap1\n      pop\n        /* \"#utility.yul\":6555:6564   */\n      dup2\n        /* \"#utility.yul\":6549:6553   */\n      dup2\n        /* \"#utility.yul\":6545:6565   */\n      sub\n        /* \"#utility.yul\":6541:6542   */\n      0x00\n        /* \"#utility.yul\":6530:6539   */\n      dup4\n        /* \"#utility.yul\":6526:6543   */\n      add\n        /* \"#utility.yul\":6519:6566   */\n      mstore\n        /* \"#utility.yul\":6583:6714   */\n      tag_126\n        /* \"#utility.yul\":6709:6713   */\n      dup2\n        /* \"#utility.yul\":6583:6714   */\n      tag_74\n      jump\t// in\n    tag_126:\n        /* \"#utility.yul\":6575:6714   */\n      swap1\n      pop\n        /* \"#utility.yul\":6302:6721   */\n      swap2\n      swap1\n      pop\n      jump\t// out\n        /* \"#utility.yul\":6727:6947   */\n    tag_75:\n        /* \"#utility.yul\":6867:6901   */\n      0x796f752063616e206f6e6c792073656e642065786163746c7920312065746865\n        /* \"#utility.yul\":6863:6864   */\n      0x00\n        /* \"#utility.yul\":6855:6861   */\n      dup3\n        /* \"#utility.yul\":6851:6865   */\n      add\n        /* \"#utility.yul\":6844:6902   */\n      mstore\n        /* \"#utility.yul\":6936:6939   */\n      0x7200000000000000000000000000000000000000000000000000000000000000\n        /* \"#utility.yul\":6931:6933   */\n      0x20\n        /* \"#utility.yul\":6923:6929   */\n      dup3\n        /* \"#utility.yul\":6919:6934   */\n      add\n        /* \"#utility.yul\":6912:6940   */\n      mstore\n        /* \"#utility.yul\":6727:6947   */\n      pop\n      jump\t// out\n        /* \"#utility.yul\":6953:7319   */\n    tag_76:\n        /* \"#utility.yul\":7095:7098   */\n      0x00\n        /* \"#utility.yul\":7116:7183   */\n      tag_129\n        /* \"#utility.yul\":7180:7182   */\n      0x21\n        /* \"#utility.yul\":7175:7178   */\n      dup4\n        /* \"#utility.yul\":7116:7183   */\n      tag_61\n      jump\t// in\n    tag_129:\n        /* \"#utility.yul\":7109:7183   */\n      swap2\n      pop\n        /* \"#utility.yul\":7192:7285   */\n      tag_130\n        /* \"#utility.yul\":7281:7284   */\n      dup3\n        /* \"#utility.yul\":7192:7285   */\n      tag_75\n      jump\t// in\n    tag_130:\n        /* \"#utility.yul\":7310:7312   */\n      0x40\n        /* \"#utility.yul\":7305:7308   */\n      dup3\n        /* \"#utility.yul\":7301:7313   */\n      add\n        /* \"#utility.yul\":7294:7313   */\n      swap1\n      pop\n        /* \"#utility.yul\":6953:7319   */\n      swap2\n      swap1\n      pop\n      jump\t// out\n        /* \"#utility.yul\":7325:7744   */\n    tag_40:\n        /* \"#utility.yul\":7491:7495   */\n      0x00\n        /* \"#utility.yul\":7529:7531   */\n      0x20\n        /* \"#utility.yul\":7518:7527   */\n      dup3\n        /* \"#utility.yul\":7514:7532   */\n      add\n        /* \"#utility.yul\":7506:7532   */\n      swap1\n      pop\n        /* \"#utility.yul\":7578:7587   */\n      dup2\n        /* \"#utility.yul\":7572:7576   */\n      dup2\n        /* \"#utility.yul\":7568:7588   */\n      sub\n        /* \"#utility.yul\":7564:7565   */\n      0x00\n        /* \"#utility.yul\":7553:7562   */\n      dup4\n        /* \"#utility.yul\":7549:7566   */\n      add\n        /* \"#utility.yul\":7542:7589   */\n      mstore\n        /* \"#utility.yul\":7606:7737   */\n      tag_132\n        /* \"#utility.yul\":7732:7736   */\n      dup2\n        /* \"#utility.yul\":7606:7737   */\n      tag_76\n      jump\t// in\n    tag_132:\n        /* \"#utility.yul\":7598:7737   */\n      swap1\n      pop\n        /* \"#utility.yul\":7325:7744   */\n      swap2\n      swap1\n      pop\n      jump\t// out\n        /* \"#utility.yul\":7750:7992   */\n    tag_77:\n        /* \"#utility.yul\":7890:7924   */\n      0x3320657468657220686173206265656e2072656365697665642c6e6f206d6f72\n        /* \"#utility.yul\":7886:7887   */\n      0x00\n        /* \"#utility.yul\":7878:7884   */\n      dup3\n        /* \"#utility.yul\":7874:7888   */\n      add\n        /* \"#utility.yul\":7867:7925   */\n      mstore\n        /* \"#utility.yul\":7959:7984   */\n      0x65206465706f7369747320617265206163636570746564000000000000000000\n        /* \"#utility.yul\":7954:7956   */\n      0x20\n        /* \"#utility.yul\":7946:7952   */\n      dup3\n        /* \"#utility.yul\":7942:7957   */\n      add\n        /* \"#utility.yul\":7935:7985   */\n      mstore\n        /* \"#utility.yul\":7750:7992   */\n      pop\n      jump\t// out\n        /* \"#utility.yul\":7998:8364   */\n    tag_78:\n        /* \"#utility.yul\":8140:8143   */\n      0x00\n        /* \"#utility.yul\":8161:8228   */\n      tag_135\n        /* \"#utility.yul\":8225:8227   */\n      0x37\n        /* \"#utility.yul\":8220:8223   */\n      dup4\n        /* \"#utility.yul\":8161:8228   */\n      tag_61\n      jump\t// in\n    tag_135:\n        /* \"#utility.yul\":8154:8228   */\n      swap2\n      pop\n        /* \"#utility.yul\":8237:8330   */\n      tag_136\n        /* \"#utility.yul\":8326:8329   */\n      dup3\n        /* \"#utility.yul\":8237:8330   */\n      tag_77\n      jump\t// in\n    tag_136:\n        /* \"#utility.yul\":8355:8357   */\n      0x40\n        /* \"#utility.yul\":8350:8353   */\n      dup3\n        /* \"#utility.yul\":8346:8358   */\n      add\n        /* \"#utility.yul\":8339:8358   */\n      swap1\n      pop\n        /* \"#utility.yul\":7998:8364   */\n      swap2\n      swap1\n      pop\n      jump\t// out\n        /* \"#utility.yul\":8370:8789   */\n    tag_44:\n        /* \"#utility.yul\":8536:8540   */\n      0x00\n        /* \"#utility.yul\":8574:8576   */\n      0x20\n        /* \"#utility.yul\":8563:8572   */\n      dup3\n        /* \"#utility.yul\":8559:8577   */\n      add\n        /* \"#utility.yul\":8551:8577   */\n      swap1\n      pop\n        /* \"#utility.yul\":8623:8632   */\n      dup2\n        /* \"#utility.yul\":8617:8621   */\n      dup2\n        /* \"#utility.yul\":8613:8633   */\n      sub\n        /* \"#utility.yul\":8609:8610   */\n      0x00\n        /* \"#utility.yul\":8598:8607   */\n      dup4\n        /* \"#utility.yul\":8594:8611   */\n      add\n        /* \"#utility.yul\":8587:8634   */\n      mstore\n        /* \"#utility.yul\":8651:8782   */\n      tag_138\n        /* \"#utility.yul\":8777:8781   */\n      dup2\n        /* \"#utility.yul\":8651:8782   */\n      tag_78\n      jump\t// in\n    tag_138:\n        /* \"#utility.yul\":8643:8782   */\n      swap1\n      pop\n        /* \"#utility.yul\":8370:8789   */\n      swap2\n      swap1\n      pop\n      jump\t// out\n        /* \"#utility.yul\":8795:9021   */\n    tag_79:\n        /* \"#utility.yul\":8935:8969   */\n      0x796f7520617265206e6f74206f6e65206f66207468652076616c696420646570\n        /* \"#utility.yul\":8931:8932   */\n      0x00\n        /* \"#utility.yul\":8923:8929   */\n      dup3\n        /* \"#utility.yul\":8919:8933   */\n      add\n        /* \"#utility.yul\":8912:8970   */\n      mstore\n        /* \"#utility.yul\":9004:9013   */\n      0x6f7369746f727300000000000000000000000000000000000000000000000000\n        /* \"#utility.yul\":8999:9001   */\n      0x20\n        /* \"#utility.yul\":8991:8997   */\n      dup3\n        /* \"#utility.yul\":8987:9002   */\n      add\n        /* \"#utility.yul\":8980:9014   */\n      mstore\n        /* \"#utility.yul\":8795:9021   */\n      pop\n      jump\t// out\n        /* \"#utility.yul\":9027:9393   */\n    tag_80:\n        /* \"#utility.yul\":9169:9172   */\n      0x00\n        /* \"#utility.yul\":9190:9257   */\n      tag_141\n        /* \"#utility.yul\":9254:9256   */\n      0x27\n        /* \"#utility.yul\":9249:9252   */\n      dup4\n        /* \"#utility.yul\":9190:9257   */\n      tag_61\n      jump\t// in\n    tag_141:\n        /* \"#utility.yul\":9183:9257   */\n      swap2\n      pop\n        /* \"#utility.yul\":9266:9359   */\n      tag_142\n        /* \"#utility.yul\":9355:9358   */\n      dup3\n        /* \"#utility.yul\":9266:9359   */\n      tag_79\n      jump\t// in\n    tag_142:\n        /* \"#utility.yul\":9384:9386   */\n      0x40\n        /* \"#utility.yul\":9379:9382   */\n      dup3\n        /* \"#utility.yul\":9375:9387   */\n      add\n        /* \"#utility.yul\":9368:9387   */\n      swap1\n      pop\n        /* \"#utility.yul\":9027:9393   */\n      swap2\n      swap1\n      pop\n      jump\t// out\n        /* \"#utility.yul\":9399:9818   */\n    tag_54:\n        /* \"#utility.yul\":9565:9569   */\n      0x00\n        /* \"#utility.yul\":9603:9605   */\n      0x20\n        /* \"#utility.yul\":9592:9601   */\n      dup3\n        /* \"#utility.yul\":9588:9606   */\n      add\n        /* \"#utility.yul\":9580:9606   */\n      swap1\n      pop\n        /* \"#utility.yul\":9652:9661   */\n      dup2\n        /* \"#utility.yul\":9646:9650   */\n      dup2\n        /* \"#utility.yul\":9642:9662   */\n      sub\n        /* \"#utility.yul\":9638:9639   */\n      0x00\n        /* \"#utility.yul\":9627:9636   */\n      dup4\n        /* \"#utility.yul\":9623:9640   */\n      add\n        /* \"#utility.yul\":9616:9663   */\n      mstore\n        /* \"#utility.yul\":9680:9811   */\n      tag_144\n        /* \"#utility.yul\":9806:9810   */\n      dup2\n        /* \"#utility.yul\":9680:9811   */\n      tag_80\n      jump\t// in\n    tag_144:\n        /* \"#utility.yul\":9672:9811   */\n      swap1\n      pop\n        /* \"#utility.yul\":9399:9818   */\n      swap2\n      swap1\n      pop\n      jump\t// out\n\n    auxdata: 0xa2646970667358221220b1dc4d7f8c4994794cb3f3c6ddef05db5cacaf41f1769489b4a23af6688e7c7564736f6c63430008120033\n}\n",
				"bytecode": {
					"linkReferences": {},
					"object": "608060405234801561001057600080fd5b50336000806101000a81548173ffffffffffffffffffffffffffffffffffffffff021916908373ffffffffffffffffffffffffffffffffffffffff160217905550610c8b806100606000396000f3fe6080604052600436106100345760003560e01c80633ccfd60b1461003957806383197ef014610050578063d0e30db014610067575b600080fd5b34801561004557600080fd5b5061004e610071565b005b34801561005c57600080fd5b5061006561024f565b005b61006f61036c565b005b6729a2241af62c000060055460045461008a9190610786565b10156100cb576040517f08c379a00000000000000000000000000000000000000000000000000000000081526004016100c29061083d565b60405180910390fd5b600360009054906101000a900473ffffffffffffffffffffffffffffffffffffffff1673ffffffffffffffffffffffffffffffffffffffff163373ffffffffffffffffffffffffffffffffffffffff161461015b576040517f08c379a0000000000000000000000000000000000000000000000000000000008152600401610152906108cf565b60405180910390fd5b6000600360009054906101000a900473ffffffffffffffffffffffffffffffffffffffff1673ffffffffffffffffffffffffffffffffffffffff166729a2241af62c00006040516101ab90610920565b60006040518083038185875af1925050503d80600081146101e8576040519150601f19603f3d011682016040523d82523d6000602084013e6101ed565b606091505b5050905080610231576040517f08c379a000000000000000000000000000000000000000000000000000000000815260040161022890610981565b60405180910390fd5b6001600660006101000a81548160ff02191690831515021790555050565b60008054906101000a900473ffffffffffffffffffffffffffffffffffffffff1673ffffffffffffffffffffffffffffffffffffffff163373ffffffffffffffffffffffffffffffffffffffff16146102dd576040517f08c379a00000000000000000000000000000000000000000000000000000000081526004016102d4906109ed565b60405180910390fd5b60011515600660009054906101000a900460ff16151514610333576040517f08c379a000000000000000000000000000000000000000000000000000000000815260040161032a90610a7f565b60405180910390fd5b60008054906101000a900473ffffffffffffffffffffffffffffffffffffffff1673ffffffffffffffffffffffffffffffffffffffff16ff5b670de0b6b3a764000034146103b6576040517f08c379a00000000000000000000000000000000000000000000000000000000081526004016103ad90610b11565b60405180910390fd5b6729a2241af62c00006005546004546103cf9190610786565b1061040f576040517f08c379a000000000000000000000000000000000000000000000000000000000815260040161040690610ba3565b60405180910390fd5b600073ffffffffffffffffffffffffffffffffffffffff16600160009054906101000a900473ffffffffffffffffffffffffffffffffffffffff1673ffffffffffffffffffffffffffffffffffffffff16036104ab5733600160006101000a81548173ffffffffffffffffffffffffffffffffffffffff021916908373ffffffffffffffffffffffffffffffffffffffff160217905550610544565b600073ffffffffffffffffffffffffffffffffffffffff16600260009054906101000a900473ffffffffffffffffffffffffffffffffffffffff1673ffffffffffffffffffffffffffffffffffffffff16036105435733600260006101000a81548173ffffffffffffffffffffffffffffffffffffffff021916908373ffffffffffffffffffffffffffffffffffffffff1602179055505b5b600160009054906101000a900473ffffffffffffffffffffffffffffffffffffffff1673ffffffffffffffffffffffffffffffffffffffff163373ffffffffffffffffffffffffffffffffffffffff16036105b75734600460008282546105ab9190610786565b92505081905550610654565b600260009054906101000a900473ffffffffffffffffffffffffffffffffffffffff1673ffffffffffffffffffffffffffffffffffffffff163373ffffffffffffffffffffffffffffffffffffffff16036106185734600581905550610653565b6040517f08c379a000000000000000000000000000000000000000000000000000000000815260040161064a90610c35565b60405180910390fd5b5b6729a2241af62c000060055460045461066d9190610786565b1061074b5760055460045411156106e657600160009054906101000a900473ffffffffffffffffffffffffffffffffffffffff16600360006101000a81548173ffffffffffffffffffffffffffffffffffffffff021916908373ffffffffffffffffffffffffffffffffffffffff16021790555061074a565b600260009054906101000a900473ffffffffffffffffffffffffffffffffffffffff16600360006101000a81548173ffffffffffffffffffffffffffffffffffffffff021916908373ffffffffffffffffffffffffffffffffffffffff1602179055505b5b565b6000819050919050565b7f4e487b7100000000000000000000000000000000000000000000000000000000600052601160045260246000fd5b60006107918261074d565b915061079c8361074d565b92508282019050808211156107b4576107b3610757565b5b92915050565b600082825260208201905092915050565b7f3320657468657220686173206e6f7420796574206265656e207265636965766560008201527f6400000000000000000000000000000000000000000000000000000000000000602082015250565b60006108276021836107ba565b9150610832826107cb565b604082019050919050565b600060208201905081810360008301526108568161081a565b9050919050565b7f796f7520646964206e6f74206465706f73697420746865206d6f73742065746860008201527f6572000000000000000000000000000000000000000000000000000000000000602082015250565b60006108b96022836107ba565b91506108c48261085d565b604082019050919050565b600060208201905081810360008301526108e8816108ac565b9050919050565b600081905092915050565b50565b600061090a6000836108ef565b9150610915826108fa565b600082019050919050565b600061092b826108fd565b9150819050919050565b7f6e6f742073656e74000000000000000000000000000000000000000000000000600082015250565b600061096b6008836107ba565b915061097682610935565b602082019050919050565b6000602082019050818103600083015261099a8161095e565b9050919050565b7f796f7520617265206e6f7420746865206f776e65720000000000000000000000600082015250565b60006109d76015836107ba565b91506109e2826109a1565b602082019050919050565b60006020820190508181036000830152610a06816109ca565b9050919050565b7f6d6178206465706f7369746f7220686173206e6f74207965742077697468647260008201527f65772074686569722066756e6473000000000000000000000000000000000000602082015250565b6000610a69602e836107ba565b9150610a7482610a0d565b604082019050919050565b60006020820190508181036000830152610a9881610a5c565b9050919050565b7f796f752063616e206f6e6c792073656e642065786163746c792031206574686560008201527f7200000000000000000000000000000000000000000000000000000000000000602082015250565b6000610afb6021836107ba565b9150610b0682610a9f565b604082019050919050565b60006020820190508181036000830152610b2a81610aee565b9050919050565b7f3320657468657220686173206265656e2072656365697665642c6e6f206d6f7260008201527f65206465706f7369747320617265206163636570746564000000000000000000602082015250565b6000610b8d6037836107ba565b9150610b9882610b31565b604082019050919050565b60006020820190508181036000830152610bbc81610b80565b9050919050565b7f796f7520617265206e6f74206f6e65206f66207468652076616c69642064657060008201527f6f7369746f727300000000000000000000000000000000000000000000000000602082015250565b6000610c1f6027836107ba565b9150610c2a82610bc3565b604082019050919050565b60006020820190508181036000830152610c4e81610c12565b905091905056fea2646970667358221220b1dc4d7f8c4994794cb3f3c6ddef05db5cacaf41f1769489b4a23af6688e7c7564736f6c63430008120033",
					"opcodes": "PUSH1 0x80 PUSH1 0x40 MSTORE CALLVALUE DUP1 ISZERO PUSH2 0x10 JUMPI PUSH1 0x0 DUP1 REVERT JUMPDEST POP CALLER PUSH1 0x0 DUP1 PUSH2 0x100 EXP DUP2 SLOAD DUP2 PUSH20 0xFFFFFFFFFFFFFFFFFFFFFFFFFFFFFFFFFFFFFFFF MUL NOT AND SWAP1 DUP4 PUSH20 0xFFFFFFFFFFFFFFFFFFFFFFFFFFFFFFFFFFFFFFFF AND MUL OR SWAP1 SSTORE POP PUSH2 0xC8B DUP1 PUSH2 0x60 PUSH1 0x0 CODECOPY PUSH1 0x0 RETURN INVALID PUSH1 0x80 PUSH1 0x40 MSTORE PUSH1 0x4 CALLDATASIZE LT PUSH2 0x34 JUMPI PUSH1 0x0 CALLDATALOAD PUSH1 0xE0 SHR DUP1 PUSH4 0x3CCFD60B EQ PUSH2 0x39 JUMPI DUP1 PUSH4 0x83197EF0 EQ PUSH2 0x50 JUMPI DUP1 PUSH4 0xD0E30DB0 EQ PUSH2 0x67 JUMPI JUMPDEST PUSH1 0x0 DUP1 REVERT JUMPDEST CALLVALUE DUP1 ISZERO PUSH2 0x45 JUMPI PUSH1 0x0 DUP1 REVERT JUMPDEST POP PUSH2 0x4E PUSH2 0x71 JUMP JUMPDEST STOP JUMPDEST CALLVALUE DUP1 ISZERO PUSH2 0x5C JUMPI PUSH1 0x0 DUP1 REVERT JUMPDEST POP PUSH2 0x65 PUSH2 0x24F JUMP JUMPDEST STOP JUMPDEST PUSH2 0x6F PUSH2 0x36C JUMP JUMPDEST STOP JUMPDEST PUSH8 0x29A2241AF62C0000 PUSH1 0x5 SLOAD PUSH1 0x4 SLOAD PUSH2 0x8A SWAP2 SWAP1 PUSH2 0x786 JUMP JUMPDEST LT ISZERO PUSH2 0xCB JUMPI PUSH1 0x40 MLOAD PUSH32 0x8C379A000000000000000000000000000000000000000000000000000000000 DUP2 MSTORE PUSH1 0x4 ADD PUSH2 0xC2 SWAP1 PUSH2 0x83D JUMP JUMPDEST PUSH1 0x40 MLOAD DUP1 SWAP2 SUB SWAP1 REVERT JUMPDEST PUSH1 0x3 PUSH1 0x0 SWAP1 SLOAD SWAP1 PUSH2 0x100 EXP SWAP1 DIV PUSH20 0xFFFFFFFFFFFFFFFFFFFFFFFFFFFFFFFFFFFFFFFF AND PUSH20 0xFFFFFFFFFFFFFFFFFFFFFFFFFFFFFFFFFFFFFFFF AND CALLER PUSH20 0xFFFFFFFFFFFFFFFFFFFFFFFFFFFFFFFFFFFFFFFF AND EQ PUSH2 0x15B JUMPI PUSH1 0x40 MLOAD PUSH32 0x8C379A000000000000000000000000000000000000000000000000000000000 DUP2 MSTORE PUSH1 0x4 ADD PUSH2 0x152 SWAP1 PUSH2 0x8CF JUMP JUMPDEST PUSH1 0x40 MLOAD DUP1 SWAP2 SUB SWAP1 REVERT JUMPDEST PUSH1 0x0 PUSH1 0x3 PUSH1 0x0 SWAP1 SLOAD SWAP1 PUSH2 0x100 EXP SWAP1 DIV PUSH20 0xFFFFFFFFFFFFFFFFFFFFFFFFFFFFFFFFFFFFFFFF AND PUSH20 0xFFFFFFFFFFFFFFFFFFFFFFFFFFFFFFFFFFFFFFFF AND PUSH8 0x29A2241AF62C0000 PUSH1 0x40 MLOAD PUSH2 0x1AB SWAP1 PUSH2 0x920 JUMP JUMPDEST PUSH1 0x0 PUSH1 0x40 MLOAD DUP1 DUP4 SUB DUP2 DUP6 DUP8 GAS CALL SWAP3 POP POP POP RETURNDATASIZE DUP1 PUSH1 0x0 DUP2 EQ PUSH2 0x1E8 JUMPI PUSH1 0x40 MLOAD SWAP2 POP PUSH1 0x1F NOT PUSH1 0x3F RETURNDATASIZE ADD AND DUP3 ADD PUSH1 0x40 MSTORE RETURNDATASIZE DUP3 MSTORE RETURNDATASIZE PUSH1 0x0 PUSH1 0x20 DUP5 ADD RETURNDATACOPY PUSH2 0x1ED JUMP JUMPDEST PUSH1 0x60 SWAP2 POP JUMPDEST POP POP SWAP1 POP DUP1 PUSH2 0x231 JUMPI PUSH1 0x40 MLOAD PUSH32 0x8C379A000000000000000000000000000000000000000000000000000000000 DUP2 MSTORE PUSH1 0x4 ADD PUSH2 0x228 SWAP1 PUSH2 0x981 JUMP JUMPDEST PUSH1 0x40 MLOAD DUP1 SWAP2 SUB SWAP1 REVERT JUMPDEST PUSH1 0x1 PUSH1 0x6 PUSH1 0x0 PUSH2 0x100 EXP DUP2 SLOAD DUP2 PUSH1 0xFF MUL NOT AND SWAP1 DUP4 ISZERO ISZERO MUL OR SWAP1 SSTORE POP POP JUMP JUMPDEST PUSH1 0x0 DUP1 SLOAD SWAP1 PUSH2 0x100 EXP SWAP1 DIV PUSH20 0xFFFFFFFFFFFFFFFFFFFFFFFFFFFFFFFFFFFFFFFF AND PUSH20 0xFFFFFFFFFFFFFFFFFFFFFFFFFFFFFFFFFFFFFFFF AND CALLER PUSH20 0xFFFFFFFFFFFFFFFFFFFFFFFFFFFFFFFFFFFFFFFF AND EQ PUSH2 0x2DD JUMPI PUSH1 0x40 MLOAD PUSH32 0x8C379A000000000000000000000000000000000000000000000000000000000 DUP2 MSTORE PUSH1 0x4 ADD PUSH2 0x2D4 SWAP1 PUSH2 0x9ED JUMP JUMPDEST PUSH1 0x40 MLOAD DUP1 SWAP2 SUB SWAP1 REVERT JUMPDEST PUSH1 0x1 ISZERO ISZERO PUSH1 0x6 PUSH1 0x0 SWAP1 SLOAD SWAP1 PUSH2 0x100 EXP SWAP1 DIV PUSH1 0xFF AND ISZERO ISZERO EQ PUSH2 0x333 JUMPI PUSH1 0x40 MLOAD PUSH32 0x8C379A000000000000000000000000000000000000000000000000000000000 DUP2 MSTORE PUSH1 0x4 ADD PUSH2 0x32A SWAP1 PUSH2 0xA7F JUMP JUMPDEST PUSH1 0x40 MLOAD DUP1 SWAP2 SUB SWAP1 REVERT JUMPDEST PUSH1 0x0 DUP1 SLOAD SWAP1 PUSH2 0x100 EXP SWAP1 DIV PUSH20 0xFFFFFFFFFFFFFFFFFFFFFFFFFFFFFFFFFFFFFFFF AND PUSH20 0xFFFFFFFFFFFFFFFFFFFFFFFFFFFFFFFFFFFFFFFF AND SELFDESTRUCT JUMPDEST PUSH8 0xDE0B6B3A7640000 CALLVALUE EQ PUSH2 0x3B6 JUMPI PUSH1 0x40 MLOAD PUSH32 0x8C379A000000000000000000000000000000000000000000000000000000000 DUP2 MSTORE PUSH1 0x4 ADD PUSH2 0x3AD SWAP1 PUSH2 0xB11 JUMP JUMPDEST PUSH1 0x40 MLOAD DUP1 SWAP2 SUB SWAP1 REVERT JUMPDEST PUSH8 0x29A2241AF62C0000 PUSH1 0x5 SLOAD PUSH1 0x4 SLOAD PUSH2 0x3CF SWAP2 SWAP1 PUSH2 0x786 JUMP JUMPDEST LT PUSH2 0x40F JUMPI PUSH1 0x40 MLOAD PUSH32 0x8C379A000000000000000000000000000000000000000000000000000000000 DUP2 MSTORE PUSH1 0x4 ADD PUSH2 0x406 SWAP1 PUSH2 0xBA3 JUMP JUMPDEST PUSH1 0x40 MLOAD DUP1 SWAP2 SUB SWAP1 REVERT JUMPDEST PUSH1 0x0 PUSH20 0xFFFFFFFFFFFFFFFFFFFFFFFFFFFFFFFFFFFFFFFF AND PUSH1 0x1 PUSH1 0x0 SWAP1 SLOAD SWAP1 PUSH2 0x100 EXP SWAP1 DIV PUSH20 0xFFFFFFFFFFFFFFFFFFFFFFFFFFFFFFFFFFFFFFFF AND PUSH20 0xFFFFFFFFFFFFFFFFFFFFFFFFFFFFFFFFFFFFFFFF AND SUB PUSH2 0x4AB JUMPI CALLER PUSH1 0x1 PUSH1 0x0 PUSH2 0x100 EXP DUP2 SLOAD DUP2 PUSH20 0xFFFFFFFFFFFFFFFFFFFFFFFFFFFFFFFFFFFFFFFF MUL NOT AND SWAP1 DUP4 PUSH20 0xFFFFFFFFFFFFFFFFFFFFFFFFFFFFFFFFFFFFFFFF AND MUL OR SWAP1 SSTORE POP PUSH2 0x544 JUMP JUMPDEST PUSH1 0x0 PUSH20 0xFFFFFFFFFFFFFFFFFFFFFFFFFFFFFFFFFFFFFFFF AND PUSH1 0x2 PUSH1 0x0 SWAP1 SLOAD SWAP1 PUSH2 0x100 EXP SWAP1 DIV PUSH20 0xFFFFFFFFFFFFFFFFFFFFFFFFFFFFFFFFFFFFFFFF AND PUSH20 0xFFFFFFFFFFFFFFFFFFFFFFFFFFFFFFFFFFFFFFFF AND SUB PUSH2 0x543 JUMPI CALLER PUSH1 0x2 PUSH1 0x0 PUSH2 0x100 EXP DUP2 SLOAD DUP2 PUSH20 0xFFFFFFFFFFFFFFFFFFFFFFFFFFFFFFFFFFFFFFFF MUL NOT AND SWAP1 DUP4 PUSH20 0xFFFFFFFFFFFFFFFFFFFFFFFFFFFFFFFFFFFFFFFF AND MUL OR SWAP1 SSTORE POP JUMPDEST JUMPDEST PUSH1 0x1 PUSH1 0x0 SWAP1 SLOAD SWAP1 PUSH2 0x100 EXP SWAP1 DIV PUSH20 0xFFFFFFFFFFFFFFFFFFFFFFFFFFFFFFFFFFFFFFFF AND PUSH20 0xFFFFFFFFFFFFFFFFFFFFFFFFFFFFFFFFFFFFFFFF AND CALLER PUSH20 0xFFFFFFFFFFFFFFFFFFFFFFFFFFFFFFFFFFFFFFFF AND SUB PUSH2 0x5B7 JUMPI CALLVALUE PUSH1 0x4 PUSH1 0x0 DUP3 DUP3 SLOAD PUSH2 0x5AB SWAP2 SWAP1 PUSH2 0x786 JUMP JUMPDEST SWAP3 POP POP DUP2 SWAP1 SSTORE POP PUSH2 0x654 JUMP JUMPDEST PUSH1 0x2 PUSH1 0x0 SWAP1 SLOAD SWAP1 PUSH2 0x100 EXP SWAP1 DIV PUSH20 0xFFFFFFFFFFFFFFFFFFFFFFFFFFFFFFFFFFFFFFFF AND PUSH20 0xFFFFFFFFFFFFFFFFFFFFFFFFFFFFFFFFFFFFFFFF AND CALLER PUSH20 0xFFFFFFFFFFFFFFFFFFFFFFFFFFFFFFFFFFFFFFFF AND SUB PUSH2 0x618 JUMPI CALLVALUE PUSH1 0x5 DUP2 SWAP1 SSTORE POP PUSH2 0x653 JUMP JUMPDEST PUSH1 0x40 MLOAD PUSH32 0x8C379A000000000000000000000000000000000000000000000000000000000 DUP2 MSTORE PUSH1 0x4 ADD PUSH2 0x64A SWAP1 PUSH2 0xC35 JUMP JUMPDEST PUSH1 0x40 MLOAD DUP1 SWAP2 SUB SWAP1 REVERT JUMPDEST JUMPDEST PUSH8 0x29A2241AF62C0000 PUSH1 0x5 SLOAD PUSH1 0x4 SLOAD PUSH2 0x66D SWAP2 SWAP1 PUSH2 0x786 JUMP JUMPDEST LT PUSH2 0x74B JUMPI PUSH1 0x5 SLOAD PUSH1 0x4 SLOAD GT ISZERO PUSH2 0x6E6 JUMPI PUSH1 0x1 PUSH1 0x0 SWAP1 SLOAD SWAP1 PUSH2 0x100 EXP SWAP1 DIV PUSH20 0xFFFFFFFFFFFFFFFFFFFFFFFFFFFFFFFFFFFFFFFF AND PUSH1 0x3 PUSH1 0x0 PUSH2 0x100 EXP DUP2 SLOAD DUP2 PUSH20 0xFFFFFFFFFFFFFFFFFFFFFFFFFFFFFFFFFFFFFFFF MUL NOT AND SWAP1 DUP4 PUSH20 0xFFFFFFFFFFFFFFFFFFFFFFFFFFFFFFFFFFFFFFFF AND MUL OR SWAP1 SSTORE POP PUSH2 0x74A JUMP JUMPDEST PUSH1 0x2 PUSH1 0x0 SWAP1 SLOAD SWAP1 PUSH2 0x100 EXP SWAP1 DIV PUSH20 0xFFFFFFFFFFFFFFFFFFFFFFFFFFFFFFFFFFFFFFFF AND PUSH1 0x3 PUSH1 0x0 PUSH2 0x100 EXP DUP2 SLOAD DUP2 PUSH20 0xFFFFFFFFFFFFFFFFFFFFFFFFFFFFFFFFFFFFFFFF MUL NOT AND SWAP1 DUP4 PUSH20 0xFFFFFFFFFFFFFFFFFFFFFFFFFFFFFFFFFFFFFFFF AND MUL OR SWAP1 SSTORE POP JUMPDEST JUMPDEST JUMP JUMPDEST PUSH1 0x0 DUP2 SWAP1 POP SWAP2 SWAP1 POP JUMP JUMPDEST PUSH32 0x4E487B7100000000000000000000000000000000000000000000000000000000 PUSH1 0x0 MSTORE PUSH1 0x11 PUSH1 0x4 MSTORE PUSH1 0x24 PUSH1 0x0 REVERT JUMPDEST PUSH1 0x0 PUSH2 0x791 DUP3 PUSH2 0x74D JUMP JUMPDEST SWAP2 POP PUSH2 0x79C DUP4 PUSH2 0x74D JUMP JUMPDEST SWAP3 POP DUP3 DUP3 ADD SWAP1 POP DUP1 DUP3 GT ISZERO PUSH2 0x7B4 JUMPI PUSH2 0x7B3 PUSH2 0x757 JUMP JUMPDEST JUMPDEST SWAP3 SWAP2 POP POP JUMP JUMPDEST PUSH1 0x0 DUP3 DUP3 MSTORE PUSH1 0x20 DUP3 ADD SWAP1 POP SWAP3 SWAP2 POP POP JUMP JUMPDEST PUSH32 0x3320657468657220686173206E6F7420796574206265656E2072656369657665 PUSH1 0x0 DUP3 ADD MSTORE PUSH32 0x6400000000000000000000000000000000000000000000000000000000000000 PUSH1 0x20 DUP3 ADD MSTORE POP JUMP JUMPDEST PUSH1 0x0 PUSH2 0x827 PUSH1 0x21 DUP4 PUSH2 0x7BA JUMP JUMPDEST SWAP2 POP PUSH2 0x832 DUP3 PUSH2 0x7CB JUMP JUMPDEST PUSH1 0x40 DUP3 ADD SWAP1 POP SWAP2 SWAP1 POP JUMP JUMPDEST PUSH1 0x0 PUSH1 0x20 DUP3 ADD SWAP1 POP DUP2 DUP2 SUB PUSH1 0x0 DUP4 ADD MSTORE PUSH2 0x856 DUP2 PUSH2 0x81A JUMP JUMPDEST SWAP1 POP SWAP2 SWAP1 POP JUMP JUMPDEST PUSH32 0x796F7520646964206E6F74206465706F73697420746865206D6F737420657468 PUSH1 0x0 DUP3 ADD MSTORE PUSH32 0x6572000000000000000000000000000000000000000000000000000000000000 PUSH1 0x20 DUP3 ADD MSTORE POP JUMP JUMPDEST PUSH1 0x0 PUSH2 0x8B9 PUSH1 0x22 DUP4 PUSH2 0x7BA JUMP JUMPDEST SWAP2 POP PUSH2 0x8C4 DUP3 PUSH2 0x85D JUMP JUMPDEST PUSH1 0x40 DUP3 ADD SWAP1 POP SWAP2 SWAP1 POP JUMP JUMPDEST PUSH1 0x0 PUSH1 0x20 DUP3 ADD SWAP1 POP DUP2 DUP2 SUB PUSH1 0x0 DUP4 ADD MSTORE PUSH2 0x8E8 DUP2 PUSH2 0x8AC JUMP JUMPDEST SWAP1 POP SWAP2 SWAP1 POP JUMP JUMPDEST PUSH1 0x0 DUP2 SWAP1 POP SWAP3 SWAP2 POP POP JUMP JUMPDEST POP JUMP JUMPDEST PUSH1 0x0 PUSH2 0x90A PUSH1 0x0 DUP4 PUSH2 0x8EF JUMP JUMPDEST SWAP2 POP PUSH2 0x915 DUP3 PUSH2 0x8FA JUMP JUMPDEST PUSH1 0x0 DUP3 ADD SWAP1 POP SWAP2 SWAP1 POP JUMP JUMPDEST PUSH1 0x0 PUSH2 0x92B DUP3 PUSH2 0x8FD JUMP JUMPDEST SWAP2 POP DUP2 SWAP1 POP SWAP2 SWAP1 POP JUMP JUMPDEST PUSH32 0x6E6F742073656E74000000000000000000000000000000000000000000000000 PUSH1 0x0 DUP3 ADD MSTORE POP JUMP JUMPDEST PUSH1 0x0 PUSH2 0x96B PUSH1 0x8 DUP4 PUSH2 0x7BA JUMP JUMPDEST SWAP2 POP PUSH2 0x976 DUP3 PUSH2 0x935 JUMP JUMPDEST PUSH1 0x20 DUP3 ADD SWAP1 POP SWAP2 SWAP1 POP JUMP JUMPDEST PUSH1 0x0 PUSH1 0x20 DUP3 ADD SWAP1 POP DUP2 DUP2 SUB PUSH1 0x0 DUP4 ADD MSTORE PUSH2 0x99A DUP2 PUSH2 0x95E JUMP JUMPDEST SWAP1 POP SWAP2 SWAP1 POP JUMP JUMPDEST PUSH32 0x796F7520617265206E6F7420746865206F776E65720000000000000000000000 PUSH1 0x0 DUP3 ADD MSTORE POP JUMP JUMPDEST PUSH1 0x0 PUSH2 0x9D7 PUSH1 0x15 DUP4 PUSH2 0x7BA JUMP JUMPDEST SWAP2 POP PUSH2 0x9E2 DUP3 PUSH2 0x9A1 JUMP JUMPDEST PUSH1 0x20 DUP3 ADD SWAP1 POP SWAP2 SWAP1 POP JUMP JUMPDEST PUSH1 0x0 PUSH1 0x20 DUP3 ADD SWAP1 POP DUP2 DUP2 SUB PUSH1 0x0 DUP4 ADD MSTORE PUSH2 0xA06 DUP2 PUSH2 0x9CA JUMP JUMPDEST SWAP1 POP SWAP2 SWAP1 POP JUMP JUMPDEST PUSH32 0x6D6178206465706F7369746F7220686173206E6F742079657420776974686472 PUSH1 0x0 DUP3 ADD MSTORE PUSH32 0x65772074686569722066756E6473000000000000000000000000000000000000 PUSH1 0x20 DUP3 ADD MSTORE POP JUMP JUMPDEST PUSH1 0x0 PUSH2 0xA69 PUSH1 0x2E DUP4 PUSH2 0x7BA JUMP JUMPDEST SWAP2 POP PUSH2 0xA74 DUP3 PUSH2 0xA0D JUMP JUMPDEST PUSH1 0x40 DUP3 ADD SWAP1 POP SWAP2 SWAP1 POP JUMP JUMPDEST PUSH1 0x0 PUSH1 0x20 DUP3 ADD SWAP1 POP DUP2 DUP2 SUB PUSH1 0x0 DUP4 ADD MSTORE PUSH2 0xA98 DUP2 PUSH2 0xA5C JUMP JUMPDEST SWAP1 POP SWAP2 SWAP1 POP JUMP JUMPDEST PUSH32 0x796F752063616E206F6E6C792073656E642065786163746C7920312065746865 PUSH1 0x0 DUP3 ADD MSTORE PUSH32 0x7200000000000000000000000000000000000000000000000000000000000000 PUSH1 0x20 DUP3 ADD MSTORE POP JUMP JUMPDEST PUSH1 0x0 PUSH2 0xAFB PUSH1 0x21 DUP4 PUSH2 0x7BA JUMP JUMPDEST SWAP2 POP PUSH2 0xB06 DUP3 PUSH2 0xA9F JUMP JUMPDEST PUSH1 0x40 DUP3 ADD SWAP1 POP SWAP2 SWAP1 POP JUMP JUMPDEST PUSH1 0x0 PUSH1 0x20 DUP3 ADD SWAP1 POP DUP2 DUP2 SUB PUSH1 0x0 DUP4 ADD MSTORE PUSH2 0xB2A DUP2 PUSH2 0xAEE JUMP JUMPDEST SWAP1 POP SWAP2 SWAP1 POP JUMP JUMPDEST PUSH32 0x3320657468657220686173206265656E2072656365697665642C6E6F206D6F72 PUSH1 0x0 DUP3 ADD MSTORE PUSH32 0x65206465706F7369747320617265206163636570746564000000000000000000 PUSH1 0x20 DUP3 ADD MSTORE POP JUMP JUMPDEST PUSH1 0x0 PUSH2 0xB8D PUSH1 0x37 DUP4 PUSH2 0x7BA JUMP JUMPDEST SWAP2 POP PUSH2 0xB98 DUP3 PUSH2 0xB31 JUMP JUMPDEST PUSH1 0x40 DUP3 ADD SWAP1 POP SWAP2 SWAP1 POP JUMP JUMPDEST PUSH1 0x0 PUSH1 0x20 DUP3 ADD SWAP1 POP DUP2 DUP2 SUB PUSH1 0x0 DUP4 ADD MSTORE PUSH2 0xBBC DUP2 PUSH2 0xB80 JUMP JUMPDEST SWAP1 POP SWAP2 SWAP1 POP JUMP JUMPDEST PUSH32 0x796F7520617265206E6F74206F6E65206F66207468652076616C696420646570 PUSH1 0x0 DUP3 ADD MSTORE PUSH32 0x6F7369746F727300000000000000000000000000000000000000000000000000 PUSH1 0x20 DUP3 ADD MSTORE POP JUMP JUMPDEST PUSH1 0x0 PUSH2 0xC1F PUSH1 0x27 DUP4 PUSH2 0x7BA JUMP JUMPDEST SWAP2 POP PUSH2 0xC2A DUP3 PUSH2 0xBC3 JUMP JUMPDEST PUSH1 0x40 DUP3 ADD SWAP1 POP SWAP2 SWAP1 POP JUMP JUMPDEST PUSH1 0x0 PUSH1 0x20 DUP3 ADD SWAP1 POP DUP2 DUP2 SUB PUSH1 0x0 DUP4 ADD MSTORE PUSH2 0xC4E DUP2 PUSH2 0xC12 JUMP JUMPDEST SWAP1 POP SWAP2 SWAP1 POP JUMP INVALID LOG2 PUSH5 0x6970667358 0x22 SLT KECCAK256 0xB1 0xDC 0x4D PUSH32 0x8C4994794CB3F3C6DDEF05DB5CACAF41F1769489B4A23AF6688E7C7564736F6C PUSH4 0x43000812 STOP CALLER "
				},
				"gasEstimates": {
					"creation": {
						"codeDepositCost": "642200",
						"executionCost": "24942",
						"totalCost": "667142"
					},
					"external": {
						"deposit()": "infinite",
						"destroy()": "34215",
						"withdraw()": "infinite"
					}
				},
				"methodIdentifiers": {
					"deposit()": "d0e30db0",
					"destroy()": "83197ef0",
					"withdraw()": "3ccfd60b"
				}
			},
			"storageLayout": {
				"storage": [
					{
						"astId": 3,
						"contract": "Practice/Destruct1.sol:Competitors",
						"label": "owner",
						"offset": 0,
						"slot": "0",
						"type": "t_address"
					},
					{
						"astId": 5,
						"contract": "Practice/Destruct1.sol:Competitors",
						"label": "depositor1",
						"offset": 0,
						"slot": "1",
						"type": "t_address"
					},
					{
						"astId": 7,
						"contract": "Practice/Destruct1.sol:Competitors",
						"label": "depositor2",
						"offset": 0,
						"slot": "2",
						"type": "t_address"
					},
					{
						"astId": 9,
						"contract": "Practice/Destruct1.sol:Competitors",
						"label": "maxDepositor",
						"offset": 0,
						"slot": "3",
						"type": "t_address"
					},
					{
						"astId": 11,
						"contract": "Practice/Destruct1.sol:Competitors",
						"label": "depositor1Deposited",
						"offset": 0,
						"slot": "4",
						"type": "t_uint256"
					},
					{
						"astId": 13,
						"contract": "Practice/Destruct1.sol:Competitors",
						"label": "depositor2Deposited",
						"offset": 0,
						"slot": "5",
						"type": "t_uint256"
					},
					{
						"astId": 15,
						"contract": "Practice/Destruct1.sol:Competitors",
						"label": "withdrew",
						"offset": 0,
						"slot": "6",
						"type": "t_bool"
					}
				],
				"types": {
					"t_address": {
						"encoding": "inplace",
						"label": "address",
						"numberOfBytes": "20"
					},
					"t_bool": {
						"encoding": "inplace",
						"label": "bool",
						"numberOfBytes": "1"
					},
					"t_uint256": {
						"encoding": "inplace",
						"label": "uint256",
						"numberOfBytes": "32"
					}
				}
			},
			"userdoc": {
				"kind": "user",
				"methods": {},
				"version": 1
			}
		}
	}
}