{
	"Practice/require.sol": {
		"HelloWorld": {
			"abi": [
				{
					"inputs": [],
					"name": "deposit",
					"outputs": [],
					"stateMutability": "payable",
					"type": "function"
				},
				{
					"inputs": [
						{
							"internalType": "uint256",
							"name": "amount",
							"type": "uint256"
						}
					],
					"name": "withdraw",
					"outputs": [],
					"stateMutability": "nonpayable",
					"type": "function"
				}
			],
			"devdoc": {
				"kind": "dev",
				"methods": {},
				"version": 1
			},
			"evm": {
				"assembly": "    /* \"Practice/require.sol\":66:456  contract HelloWorld{... */\n  mstore(0x40, 0x80)\n  callvalue\n  dup1\n  iszero\n  tag_1\n  jumpi\n  0x00\n  dup1\n  revert\ntag_1:\n  pop\n  dataSize(sub_0)\n  dup1\n  dataOffset(sub_0)\n  0x00\n  codecopy\n  0x00\n  return\nstop\n\nsub_0: assembly {\n        /* \"Practice/require.sol\":66:456  contract HelloWorld{... */\n      mstore(0x40, 0x80)\n      jumpi(tag_1, lt(calldatasize, 0x04))\n      shr(0xe0, calldataload(0x00))\n      dup1\n      0x2e1a7d4d\n      eq\n      tag_2\n      jumpi\n      dup1\n      0xd0e30db0\n      eq\n      tag_3\n      jumpi\n    tag_1:\n      0x00\n      dup1\n      revert\n        /* \"Practice/require.sol\":216:454  function withdraw(uint amount)public{... */\n    tag_2:\n      callvalue\n      dup1\n      iszero\n      tag_4\n      jumpi\n      0x00\n      dup1\n      revert\n    tag_4:\n      pop\n      tag_5\n      0x04\n      dup1\n      calldatasize\n      sub\n      dup2\n      add\n      swap1\n      tag_6\n      swap2\n      swap1\n      tag_7\n      jump\t// in\n    tag_6:\n      tag_8\n      jump\t// in\n    tag_5:\n      stop\n        /* \"Practice/require.sol\":127:211  function deposit()external payable {... */\n    tag_3:\n      tag_9\n      tag_10\n      jump\t// in\n    tag_9:\n      stop\n        /* \"Practice/require.sol\":216:454  function withdraw(uint amount)public{... */\n    tag_8:\n        /* \"Practice/require.sol\":262:274  uint balance */\n      0x00\n        /* \"Practice/require.sol\":275:283  balances */\n      dup1\n        /* \"Practice/require.sol\":275:295  balances[msg.sender] */\n      0x00\n        /* \"Practice/require.sol\":284:294  msg.sender */\n      caller\n        /* \"Practice/require.sol\":275:295  balances[msg.sender] */\n      0xffffffffffffffffffffffffffffffffffffffff\n      and\n      0xffffffffffffffffffffffffffffffffffffffff\n      and\n      dup2\n      mstore\n      0x20\n      add\n      swap1\n      dup2\n      mstore\n      0x20\n      add\n      0x00\n      keccak256\n      sload\n        /* \"Practice/require.sol\":262:295  uint balance=balances[msg.sender] */\n      swap1\n      pop\n        /* \"Practice/require.sol\":322:328  amount */\n      dup2\n        /* \"Practice/require.sol\":313:320  balance */\n      dup2\n        /* \"Practice/require.sol\":313:328  balance>=amount */\n      lt\n      iszero\n        /* \"Practice/require.sol\":305:357  require(balance>=amount,\"balance is not sufficient\") */\n      tag_12\n      jumpi\n      mload(0x40)\n      0x08c379a000000000000000000000000000000000000000000000000000000000\n      dup2\n      mstore\n      0x04\n      add\n      tag_13\n      swap1\n      tag_14\n      jump\t// in\n    tag_13:\n      mload(0x40)\n      dup1\n      swap2\n      sub\n      swap1\n      revert\n    tag_12:\n        /* \"Practice/require.sol\":389:395  amount */\n      dup2\n        /* \"Practice/require.sol\":367:375  balances */\n      0x00\n        /* \"Practice/require.sol\":367:387  balances[msg.sender] */\n      dup1\n        /* \"Practice/require.sol\":376:386  msg.sender */\n      caller\n        /* \"Practice/require.sol\":367:387  balances[msg.sender] */\n      0xffffffffffffffffffffffffffffffffffffffff\n      and\n      0xffffffffffffffffffffffffffffffffffffffff\n      and\n      dup2\n      mstore\n      0x20\n      add\n      swap1\n      dup2\n      mstore\n      0x20\n      add\n      0x00\n      keccak256\n      0x00\n        /* \"Practice/require.sol\":367:395  balances[msg.sender]-=amount */\n      dup3\n      dup3\n      sload\n      tag_15\n      swap2\n      swap1\n      tag_16\n      jump\t// in\n    tag_15:\n      swap3\n      pop\n      pop\n      dup2\n      swap1\n      sstore\n      pop\n        /* \"Practice/require.sol\":413:423  msg.sender */\n      caller\n        /* \"Practice/require.sol\":405:429  payable(msg.sender).call */\n      0xffffffffffffffffffffffffffffffffffffffff\n      and\n        /* \"Practice/require.sol\":436:442  amount */\n      dup3\n        /* \"Practice/require.sol\":405:447  payable(msg.sender).call{value:amount}(\"\") */\n      mload(0x40)\n      tag_17\n      swap1\n      tag_18\n      jump\t// in\n    tag_17:\n      0x00\n      mload(0x40)\n      dup1\n      dup4\n      sub\n      dup2\n      dup6\n      dup8\n      gas\n      call\n      swap3\n      pop\n      pop\n      pop\n      returndatasize\n      dup1\n      0x00\n      dup2\n      eq\n      tag_21\n      jumpi\n      mload(0x40)\n      swap2\n      pop\n      and(add(returndatasize, 0x3f), not(0x1f))\n      dup3\n      add\n      0x40\n      mstore\n      returndatasize\n      dup3\n      mstore\n      returndatasize\n      0x00\n      0x20\n      dup5\n      add\n      returndatacopy\n      jump(tag_20)\n    tag_21:\n      0x60\n      swap2\n      pop\n    tag_20:\n      pop\n      pop\n      pop\n        /* \"Practice/require.sol\":252:454  {... */\n      pop\n        /* \"Practice/require.sol\":216:454  function withdraw(uint amount)public{... */\n      pop\n      jump\t// out\n        /* \"Practice/require.sol\":127:211  function deposit()external payable {... */\n    tag_10:\n        /* \"Practice/require.sol\":194:203  msg.value */\n      callvalue\n        /* \"Practice/require.sol\":172:180  balances */\n      0x00\n        /* \"Practice/require.sol\":172:192  balances[msg.sender] */\n      dup1\n        /* \"Practice/require.sol\":181:191  msg.sender */\n      caller\n        /* \"Practice/require.sol\":172:192  balances[msg.sender] */\n      0xffffffffffffffffffffffffffffffffffffffff\n      and\n      0xffffffffffffffffffffffffffffffffffffffff\n      and\n      dup2\n      mstore\n      0x20\n      add\n      swap1\n      dup2\n      mstore\n      0x20\n      add\n      0x00\n      keccak256\n      0x00\n        /* \"Practice/require.sol\":172:203  balances[msg.sender]+=msg.value */\n      dup3\n      dup3\n      sload\n      tag_23\n      swap2\n      swap1\n      tag_24\n      jump\t// in\n    tag_23:\n      swap3\n      pop\n      pop\n      dup2\n      swap1\n      sstore\n      pop\n        /* \"Practice/require.sol\":127:211  function deposit()external payable {... */\n      jump\t// out\n        /* \"#utility.yul\":88:205   */\n    tag_26:\n        /* \"#utility.yul\":197:198   */\n      0x00\n        /* \"#utility.yul\":194:195   */\n      dup1\n        /* \"#utility.yul\":187:199   */\n      revert\n        /* \"#utility.yul\":334:411   */\n    tag_28:\n        /* \"#utility.yul\":371:378   */\n      0x00\n        /* \"#utility.yul\":400:405   */\n      dup2\n        /* \"#utility.yul\":389:405   */\n      swap1\n      pop\n        /* \"#utility.yul\":334:411   */\n      swap2\n      swap1\n      pop\n      jump\t// out\n        /* \"#utility.yul\":417:539   */\n    tag_29:\n        /* \"#utility.yul\":490:514   */\n      tag_44\n        /* \"#utility.yul\":508:513   */\n      dup2\n        /* \"#utility.yul\":490:514   */\n      tag_28\n      jump\t// in\n    tag_44:\n        /* \"#utility.yul\":483:488   */\n      dup2\n        /* \"#utility.yul\":480:515   */\n      eq\n        /* \"#utility.yul\":470:533   */\n      tag_45\n      jumpi\n        /* \"#utility.yul\":529:530   */\n      0x00\n        /* \"#utility.yul\":526:527   */\n      dup1\n        /* \"#utility.yul\":519:531   */\n      revert\n        /* \"#utility.yul\":470:533   */\n    tag_45:\n        /* \"#utility.yul\":417:539   */\n      pop\n      jump\t// out\n        /* \"#utility.yul\":545:684   */\n    tag_30:\n        /* \"#utility.yul\":591:596   */\n      0x00\n        /* \"#utility.yul\":629:635   */\n      dup2\n        /* \"#utility.yul\":616:636   */\n      calldataload\n        /* \"#utility.yul\":607:636   */\n      swap1\n      pop\n        /* \"#utility.yul\":645:678   */\n      tag_47\n        /* \"#utility.yul\":672:677   */\n      dup2\n        /* \"#utility.yul\":645:678   */\n      tag_29\n      jump\t// in\n    tag_47:\n        /* \"#utility.yul\":545:684   */\n      swap3\n      swap2\n      pop\n      pop\n      jump\t// out\n        /* \"#utility.yul\":690:1019   */\n    tag_7:\n        /* \"#utility.yul\":749:755   */\n      0x00\n        /* \"#utility.yul\":798:800   */\n      0x20\n        /* \"#utility.yul\":786:795   */\n      dup3\n        /* \"#utility.yul\":777:784   */\n      dup5\n        /* \"#utility.yul\":773:796   */\n      sub\n        /* \"#utility.yul\":769:801   */\n      slt\n        /* \"#utility.yul\":766:885   */\n      iszero\n      tag_49\n      jumpi\n        /* \"#utility.yul\":804:883   */\n      tag_50\n      tag_26\n      jump\t// in\n    tag_50:\n        /* \"#utility.yul\":766:885   */\n    tag_49:\n        /* \"#utility.yul\":924:925   */\n      0x00\n        /* \"#utility.yul\":949:1002   */\n      tag_51\n        /* \"#utility.yul\":994:1001   */\n      dup5\n        /* \"#utility.yul\":985:991   */\n      dup3\n        /* \"#utility.yul\":974:983   */\n      dup6\n        /* \"#utility.yul\":970:992   */\n      add\n        /* \"#utility.yul\":949:1002   */\n      tag_30\n      jump\t// in\n    tag_51:\n        /* \"#utility.yul\":939:1002   */\n      swap2\n      pop\n        /* \"#utility.yul\":895:1012   */\n      pop\n        /* \"#utility.yul\":690:1019   */\n      swap3\n      swap2\n      pop\n      pop\n      jump\t// out\n        /* \"#utility.yul\":1025:1194   */\n    tag_31:\n        /* \"#utility.yul\":1109:1120   */\n      0x00\n        /* \"#utility.yul\":1143:1149   */\n      dup3\n        /* \"#utility.yul\":1138:1141   */\n      dup3\n        /* \"#utility.yul\":1131:1150   */\n      mstore\n        /* \"#utility.yul\":1183:1187   */\n      0x20\n        /* \"#utility.yul\":1178:1181   */\n      dup3\n        /* \"#utility.yul\":1174:1188   */\n      add\n        /* \"#utility.yul\":1159:1188   */\n      swap1\n      pop\n        /* \"#utility.yul\":1025:1194   */\n      swap3\n      swap2\n      pop\n      pop\n      jump\t// out\n        /* \"#utility.yul\":1200:1375   */\n    tag_32:\n        /* \"#utility.yul\":1340:1367   */\n      0x62616c616e6365206973206e6f742073756666696369656e7400000000000000\n        /* \"#utility.yul\":1336:1337   */\n      0x00\n        /* \"#utility.yul\":1328:1334   */\n      dup3\n        /* \"#utility.yul\":1324:1338   */\n      add\n        /* \"#utility.yul\":1317:1368   */\n      mstore\n        /* \"#utility.yul\":1200:1375   */\n      pop\n      jump\t// out\n        /* \"#utility.yul\":1381:1747   */\n    tag_33:\n        /* \"#utility.yul\":1523:1526   */\n      0x00\n        /* \"#utility.yul\":1544:1611   */\n      tag_55\n        /* \"#utility.yul\":1608:1610   */\n      0x19\n        /* \"#utility.yul\":1603:1606   */\n      dup4\n        /* \"#utility.yul\":1544:1611   */\n      tag_31\n      jump\t// in\n    tag_55:\n        /* \"#utility.yul\":1537:1611   */\n      swap2\n      pop\n        /* \"#utility.yul\":1620:1713   */\n      tag_56\n        /* \"#utility.yul\":1709:1712   */\n      dup3\n        /* \"#utility.yul\":1620:1713   */\n      tag_32\n      jump\t// in\n    tag_56:\n        /* \"#utility.yul\":1738:1740   */\n      0x20\n        /* \"#utility.yul\":1733:1736   */\n      dup3\n        /* \"#utility.yul\":1729:1741   */\n      add\n        /* \"#utility.yul\":1722:1741   */\n      swap1\n      pop\n        /* \"#utility.yul\":1381:1747   */\n      swap2\n      swap1\n      pop\n      jump\t// out\n        /* \"#utility.yul\":1753:2172   */\n    tag_14:\n        /* \"#utility.yul\":1919:1923   */\n      0x00\n        /* \"#utility.yul\":1957:1959   */\n      0x20\n        /* \"#utility.yul\":1946:1955   */\n      dup3\n        /* \"#utility.yul\":1942:1960   */\n      add\n        /* \"#utility.yul\":1934:1960   */\n      swap1\n      pop\n        /* \"#utility.yul\":2006:2015   */\n      dup2\n        /* \"#utility.yul\":2000:2004   */\n      dup2\n        /* \"#utility.yul\":1996:2016   */\n      sub\n        /* \"#utility.yul\":1992:1993   */\n      0x00\n        /* \"#utility.yul\":1981:1990   */\n      dup4\n        /* \"#utility.yul\":1977:1994   */\n      add\n        /* \"#utility.yul\":1970:2017   */\n      mstore\n        /* \"#utility.yul\":2034:2165   */\n      tag_58\n        /* \"#utility.yul\":2160:2164   */\n      dup2\n        /* \"#utility.yul\":2034:2165   */\n      tag_33\n      jump\t// in\n    tag_58:\n        /* \"#utility.yul\":2026:2165   */\n      swap1\n      pop\n        /* \"#utility.yul\":1753:2172   */\n      swap2\n      swap1\n      pop\n      jump\t// out\n        /* \"#utility.yul\":2178:2358   */\n    tag_34:\n        /* \"#utility.yul\":2226:2303   */\n      0x4e487b7100000000000000000000000000000000000000000000000000000000\n        /* \"#utility.yul\":2223:2224   */\n      0x00\n        /* \"#utility.yul\":2216:2304   */\n      mstore\n        /* \"#utility.yul\":2323:2327   */\n      0x11\n        /* \"#utility.yul\":2320:2321   */\n      0x04\n        /* \"#utility.yul\":2313:2328   */\n      mstore\n        /* \"#utility.yul\":2347:2351   */\n      0x24\n        /* \"#utility.yul\":2344:2345   */\n      0x00\n        /* \"#utility.yul\":2337:2352   */\n      revert\n        /* \"#utility.yul\":2364:2558   */\n    tag_16:\n        /* \"#utility.yul\":2404:2408   */\n      0x00\n        /* \"#utility.yul\":2424:2444   */\n      tag_61\n        /* \"#utility.yul\":2442:2443   */\n      dup3\n        /* \"#utility.yul\":2424:2444   */\n      tag_28\n      jump\t// in\n    tag_61:\n        /* \"#utility.yul\":2419:2444   */\n      swap2\n      pop\n        /* \"#utility.yul\":2458:2478   */\n      tag_62\n        /* \"#utility.yul\":2476:2477   */\n      dup4\n        /* \"#utility.yul\":2458:2478   */\n      tag_28\n      jump\t// in\n    tag_62:\n        /* \"#utility.yul\":2453:2478   */\n      swap3\n      pop\n        /* \"#utility.yul\":2502:2503   */\n      dup3\n        /* \"#utility.yul\":2499:2500   */\n      dup3\n        /* \"#utility.yul\":2495:2504   */\n      sub\n        /* \"#utility.yul\":2487:2504   */\n      swap1\n      pop\n        /* \"#utility.yul\":2526:2527   */\n      dup2\n        /* \"#utility.yul\":2520:2524   */\n      dup2\n        /* \"#utility.yul\":2517:2528   */\n      gt\n        /* \"#utility.yul\":2514:2551   */\n      iszero\n      tag_63\n      jumpi\n        /* \"#utility.yul\":2531:2549   */\n      tag_64\n      tag_34\n      jump\t// in\n    tag_64:\n        /* \"#utility.yul\":2514:2551   */\n    tag_63:\n        /* \"#utility.yul\":2364:2558   */\n      swap3\n      swap2\n      pop\n      pop\n      jump\t// out\n        /* \"#utility.yul\":2564:2711   */\n    tag_35:\n        /* \"#utility.yul\":2665:2676   */\n      0x00\n        /* \"#utility.yul\":2702:2705   */\n      dup2\n        /* \"#utility.yul\":2687:2705   */\n      swap1\n      pop\n        /* \"#utility.yul\":2564:2711   */\n      swap3\n      swap2\n      pop\n      pop\n      jump\t// out\n        /* \"#utility.yul\":2717:2831   */\n    tag_36:\n      pop\n      jump\t// out\n        /* \"#utility.yul\":2837:3235   */\n    tag_37:\n        /* \"#utility.yul\":2996:2999   */\n      0x00\n        /* \"#utility.yul\":3017:3100   */\n      tag_68\n        /* \"#utility.yul\":3098:3099   */\n      0x00\n        /* \"#utility.yul\":3093:3096   */\n      dup4\n        /* \"#utility.yul\":3017:3100   */\n      tag_35\n      jump\t// in\n    tag_68:\n        /* \"#utility.yul\":3010:3100   */\n      swap2\n      pop\n        /* \"#utility.yul\":3109:3202   */\n      tag_69\n        /* \"#utility.yul\":3198:3201   */\n      dup3\n        /* \"#utility.yul\":3109:3202   */\n      tag_36\n      jump\t// in\n    tag_69:\n        /* \"#utility.yul\":3227:3228   */\n      0x00\n        /* \"#utility.yul\":3222:3225   */\n      dup3\n        /* \"#utility.yul\":3218:3229   */\n      add\n        /* \"#utility.yul\":3211:3229   */\n      swap1\n      pop\n        /* \"#utility.yul\":2837:3235   */\n      swap2\n      swap1\n      pop\n      jump\t// out\n        /* \"#utility.yul\":3241:3620   */\n    tag_18:\n        /* \"#utility.yul\":3425:3428   */\n      0x00\n        /* \"#utility.yul\":3447:3594   */\n      tag_71\n        /* \"#utility.yul\":3590:3593   */\n      dup3\n        /* \"#utility.yul\":3447:3594   */\n      tag_37\n      jump\t// in\n    tag_71:\n        /* \"#utility.yul\":3440:3594   */\n      swap2\n      pop\n        /* \"#utility.yul\":3611:3614   */\n      dup2\n        /* \"#utility.yul\":3604:3614   */\n      swap1\n      pop\n        /* \"#utility.yul\":3241:3620   */\n      swap2\n      swap1\n      pop\n      jump\t// out\n        /* \"#utility.yul\":3626:3817   */\n    tag_24:\n        /* \"#utility.yul\":3666:3669   */\n      0x00\n        /* \"#utility.yul\":3685:3705   */\n      tag_73\n        /* \"#utility.yul\":3703:3704   */\n      dup3\n        /* \"#utility.yul\":3685:3705   */\n      tag_28\n      jump\t// in\n    tag_73:\n        /* \"#utility.yul\":3680:3705   */\n      swap2\n      pop\n        /* \"#utility.yul\":3719:3739   */\n      tag_74\n        /* \"#utility.yul\":3737:3738   */\n      dup4\n        /* \"#utility.yul\":3719:3739   */\n      tag_28\n      jump\t// in\n    tag_74:\n        /* \"#utility.yul\":3714:3739   */\n      swap3\n      pop\n        /* \"#utility.yul\":3762:3763   */\n      dup3\n        /* \"#utility.yul\":3759:3760   */\n      dup3\n        /* \"#utility.yul\":3755:3764   */\n      add\n        /* \"#utility.yul\":3748:3764   */\n      swap1\n      pop\n        /* \"#utility.yul\":3783:3786   */\n      dup1\n        /* \"#utility.yul\":3780:3781   */\n      dup3\n        /* \"#utility.yul\":3777:3787   */\n      gt\n        /* \"#utility.yul\":3774:3810   */\n      iszero\n      tag_75\n      jumpi\n        /* \"#utility.yul\":3790:3808   */\n      tag_76\n      tag_34\n      jump\t// in\n    tag_76:\n        /* \"#utility.yul\":3774:3810   */\n    tag_75:\n        /* \"#utility.yul\":3626:3817   */\n      swap3\n      swap2\n      pop\n      pop\n      jump\t// out\n\n    auxdata: 0xa2646970667358221220030decc2b209038afe338e71f2d7754ec75d2d606d746ca76943ab138c00c17d64736f6c63430008120033\n}\n",
				"bytecode": {
					"linkReferences": {},
					"object": "608060405234801561001057600080fd5b506103f8806100206000396000f3fe6080604052600436106100295760003560e01c80632e1a7d4d1461002e578063d0e30db014610057575b600080fd5b34801561003a57600080fd5b506100556004803603810190610050919061023b565b610061565b005b61005f6101a9565b005b60008060003373ffffffffffffffffffffffffffffffffffffffff1673ffffffffffffffffffffffffffffffffffffffff168152602001908152602001600020549050818110156100e7576040517f08c379a00000000000000000000000000000000000000000000000000000000081526004016100de906102c5565b60405180910390fd5b816000803373ffffffffffffffffffffffffffffffffffffffff1673ffffffffffffffffffffffffffffffffffffffff16815260200190815260200160002060008282546101359190610314565b925050819055503373ffffffffffffffffffffffffffffffffffffffff168260405161016090610379565b60006040518083038185875af1925050503d806000811461019d576040519150601f19603f3d011682016040523d82523d6000602084013e6101a2565b606091505b5050505050565b346000803373ffffffffffffffffffffffffffffffffffffffff1673ffffffffffffffffffffffffffffffffffffffff16815260200190815260200160002060008282546101f7919061038e565b92505081905550565b600080fd5b6000819050919050565b61021881610205565b811461022357600080fd5b50565b6000813590506102358161020f565b92915050565b60006020828403121561025157610250610200565b5b600061025f84828501610226565b91505092915050565b600082825260208201905092915050565b7f62616c616e6365206973206e6f742073756666696369656e7400000000000000600082015250565b60006102af601983610268565b91506102ba82610279565b602082019050919050565b600060208201905081810360008301526102de816102a2565b9050919050565b7f4e487b7100000000000000000000000000000000000000000000000000000000600052601160045260246000fd5b600061031f82610205565b915061032a83610205565b9250828203905081811115610342576103416102e5565b5b92915050565b600081905092915050565b50565b6000610363600083610348565b915061036e82610353565b600082019050919050565b600061038482610356565b9150819050919050565b600061039982610205565b91506103a483610205565b92508282019050808211156103bc576103bb6102e5565b5b9291505056fea2646970667358221220030decc2b209038afe338e71f2d7754ec75d2d606d746ca76943ab138c00c17d64736f6c63430008120033",
					"opcodes": "PUSH1 0x80 PUSH1 0x40 MSTORE CALLVALUE DUP1 ISZERO PUSH2 0x10 JUMPI PUSH1 0x0 DUP1 REVERT JUMPDEST POP PUSH2 0x3F8 DUP1 PUSH2 0x20 PUSH1 0x0 CODECOPY PUSH1 0x0 RETURN INVALID PUSH1 0x80 PUSH1 0x40 MSTORE PUSH1 0x4 CALLDATASIZE LT PUSH2 0x29 JUMPI PUSH1 0x0 CALLDATALOAD PUSH1 0xE0 SHR DUP1 PUSH4 0x2E1A7D4D EQ PUSH2 0x2E JUMPI DUP1 PUSH4 0xD0E30DB0 EQ PUSH2 0x57 JUMPI JUMPDEST PUSH1 0x0 DUP1 REVERT JUMPDEST CALLVALUE DUP1 ISZERO PUSH2 0x3A JUMPI PUSH1 0x0 DUP1 REVERT JUMPDEST POP PUSH2 0x55 PUSH1 0x4 DUP1 CALLDATASIZE SUB DUP2 ADD SWAP1 PUSH2 0x50 SWAP2 SWAP1 PUSH2 0x23B JUMP JUMPDEST PUSH2 0x61 JUMP JUMPDEST STOP JUMPDEST PUSH2 0x5F PUSH2 0x1A9 JUMP JUMPDEST STOP JUMPDEST PUSH1 0x0 DUP1 PUSH1 0x0 CALLER PUSH20 0xFFFFFFFFFFFFFFFFFFFFFFFFFFFFFFFFFFFFFFFF AND PUSH20 0xFFFFFFFFFFFFFFFFFFFFFFFFFFFFFFFFFFFFFFFF AND DUP2 MSTORE PUSH1 0x20 ADD SWAP1 DUP2 MSTORE PUSH1 0x20 ADD PUSH1 0x0 KECCAK256 SLOAD SWAP1 POP DUP2 DUP2 LT ISZERO PUSH2 0xE7 JUMPI PUSH1 0x40 MLOAD PUSH32 0x8C379A000000000000000000000000000000000000000000000000000000000 DUP2 MSTORE PUSH1 0x4 ADD PUSH2 0xDE SWAP1 PUSH2 0x2C5 JUMP JUMPDEST PUSH1 0x40 MLOAD DUP1 SWAP2 SUB SWAP1 REVERT JUMPDEST DUP2 PUSH1 0x0 DUP1 CALLER PUSH20 0xFFFFFFFFFFFFFFFFFFFFFFFFFFFFFFFFFFFFFFFF AND PUSH20 0xFFFFFFFFFFFFFFFFFFFFFFFFFFFFFFFFFFFFFFFF AND DUP2 MSTORE PUSH1 0x20 ADD SWAP1 DUP2 MSTORE PUSH1 0x20 ADD PUSH1 0x0 KECCAK256 PUSH1 0x0 DUP3 DUP3 SLOAD PUSH2 0x135 SWAP2 SWAP1 PUSH2 0x314 JUMP JUMPDEST SWAP3 POP POP DUP2 SWAP1 SSTORE POP CALLER PUSH20 0xFFFFFFFFFFFFFFFFFFFFFFFFFFFFFFFFFFFFFFFF AND DUP3 PUSH1 0x40 MLOAD PUSH2 0x160 SWAP1 PUSH2 0x379 JUMP JUMPDEST PUSH1 0x0 PUSH1 0x40 MLOAD DUP1 DUP4 SUB DUP2 DUP6 DUP8 GAS CALL SWAP3 POP POP POP RETURNDATASIZE DUP1 PUSH1 0x0 DUP2 EQ PUSH2 0x19D JUMPI PUSH1 0x40 MLOAD SWAP2 POP PUSH1 0x1F NOT PUSH1 0x3F RETURNDATASIZE ADD AND DUP3 ADD PUSH1 0x40 MSTORE RETURNDATASIZE DUP3 MSTORE RETURNDATASIZE PUSH1 0x0 PUSH1 0x20 DUP5 ADD RETURNDATACOPY PUSH2 0x1A2 JUMP JUMPDEST PUSH1 0x60 SWAP2 POP JUMPDEST POP POP POP POP POP JUMP JUMPDEST CALLVALUE PUSH1 0x0 DUP1 CALLER PUSH20 0xFFFFFFFFFFFFFFFFFFFFFFFFFFFFFFFFFFFFFFFF AND PUSH20 0xFFFFFFFFFFFFFFFFFFFFFFFFFFFFFFFFFFFFFFFF AND DUP2 MSTORE PUSH1 0x20 ADD SWAP1 DUP2 MSTORE PUSH1 0x20 ADD PUSH1 0x0 KECCAK256 PUSH1 0x0 DUP3 DUP3 SLOAD PUSH2 0x1F7 SWAP2 SWAP1 PUSH2 0x38E JUMP JUMPDEST SWAP3 POP POP DUP2 SWAP1 SSTORE POP JUMP JUMPDEST PUSH1 0x0 DUP1 REVERT JUMPDEST PUSH1 0x0 DUP2 SWAP1 POP SWAP2 SWAP1 POP JUMP JUMPDEST PUSH2 0x218 DUP2 PUSH2 0x205 JUMP JUMPDEST DUP2 EQ PUSH2 0x223 JUMPI PUSH1 0x0 DUP1 REVERT JUMPDEST POP JUMP JUMPDEST PUSH1 0x0 DUP2 CALLDATALOAD SWAP1 POP PUSH2 0x235 DUP2 PUSH2 0x20F JUMP JUMPDEST SWAP3 SWAP2 POP POP JUMP JUMPDEST PUSH1 0x0 PUSH1 0x20 DUP3 DUP5 SUB SLT ISZERO PUSH2 0x251 JUMPI PUSH2 0x250 PUSH2 0x200 JUMP JUMPDEST JUMPDEST PUSH1 0x0 PUSH2 0x25F DUP5 DUP3 DUP6 ADD PUSH2 0x226 JUMP JUMPDEST SWAP2 POP POP SWAP3 SWAP2 POP POP JUMP JUMPDEST PUSH1 0x0 DUP3 DUP3 MSTORE PUSH1 0x20 DUP3 ADD SWAP1 POP SWAP3 SWAP2 POP POP JUMP JUMPDEST PUSH32 0x62616C616E6365206973206E6F742073756666696369656E7400000000000000 PUSH1 0x0 DUP3 ADD MSTORE POP JUMP JUMPDEST PUSH1 0x0 PUSH2 0x2AF PUSH1 0x19 DUP4 PUSH2 0x268 JUMP JUMPDEST SWAP2 POP PUSH2 0x2BA DUP3 PUSH2 0x279 JUMP JUMPDEST PUSH1 0x20 DUP3 ADD SWAP1 POP SWAP2 SWAP1 POP JUMP JUMPDEST PUSH1 0x0 PUSH1 0x20 DUP3 ADD SWAP1 POP DUP2 DUP2 SUB PUSH1 0x0 DUP4 ADD MSTORE PUSH2 0x2DE DUP2 PUSH2 0x2A2 JUMP JUMPDEST SWAP1 POP SWAP2 SWAP1 POP JUMP JUMPDEST PUSH32 0x4E487B7100000000000000000000000000000000000000000000000000000000 PUSH1 0x0 MSTORE PUSH1 0x11 PUSH1 0x4 MSTORE PUSH1 0x24 PUSH1 0x0 REVERT JUMPDEST PUSH1 0x0 PUSH2 0x31F DUP3 PUSH2 0x205 JUMP JUMPDEST SWAP2 POP PUSH2 0x32A DUP4 PUSH2 0x205 JUMP JUMPDEST SWAP3 POP DUP3 DUP3 SUB SWAP1 POP DUP2 DUP2 GT ISZERO PUSH2 0x342 JUMPI PUSH2 0x341 PUSH2 0x2E5 JUMP JUMPDEST JUMPDEST SWAP3 SWAP2 POP POP JUMP JUMPDEST PUSH1 0x0 DUP2 SWAP1 POP SWAP3 SWAP2 POP POP JUMP JUMPDEST POP JUMP JUMPDEST PUSH1 0x0 PUSH2 0x363 PUSH1 0x0 DUP4 PUSH2 0x348 JUMP JUMPDEST SWAP2 POP PUSH2 0x36E DUP3 PUSH2 0x353 JUMP JUMPDEST PUSH1 0x0 DUP3 ADD SWAP1 POP SWAP2 SWAP1 POP JUMP JUMPDEST PUSH1 0x0 PUSH2 0x384 DUP3 PUSH2 0x356 JUMP JUMPDEST SWAP2 POP DUP2 SWAP1 POP SWAP2 SWAP1 POP JUMP JUMPDEST PUSH1 0x0 PUSH2 0x399 DUP3 PUSH2 0x205 JUMP JUMPDEST SWAP2 POP PUSH2 0x3A4 DUP4 PUSH2 0x205 JUMP JUMPDEST SWAP3 POP DUP3 DUP3 ADD SWAP1 POP DUP1 DUP3 GT ISZERO PUSH2 0x3BC JUMPI PUSH2 0x3BB PUSH2 0x2E5 JUMP JUMPDEST JUMPDEST SWAP3 SWAP2 POP POP JUMP INVALID LOG2 PUSH5 0x6970667358 0x22 SLT KECCAK256 SUB 0xD 0xEC 0xC2 0xB2 MULMOD SUB DUP11 INVALID CALLER DUP15 PUSH18 0xF2D7754EC75D2D606D746CA76943AB138C00 0xC1 PUSH30 0x64736F6C6343000812003300000000000000000000000000000000000000 "
				},
				"gasEstimates": {
					"creation": {
						"codeDepositCost": "203200",
						"executionCost": "245",
						"totalCost": "203445"
					},
					"external": {
						"deposit()": "infinite",
						"withdraw(uint256)": "infinite"
					}
				},
				"methodIdentifiers": {
					"deposit()": "d0e30db0",
					"withdraw(uint256)": "2e1a7d4d"
				}
			},
			"storageLayout": {
				"storage": [
					{
						"astId": 5,
						"contract": "Practice/require.sol:HelloWorld",
						"label": "balances",
						"offset": 0,
						"slot": "0",
						"type": "t_mapping(t_address,t_uint256)"
					}
				],
				"types": {
					"t_address": {
						"encoding": "inplace",
						"label": "address",
						"numberOfBytes": "20"
					},
					"t_mapping(t_address,t_uint256)": {
						"encoding": "mapping",
						"key": "t_address",
						"label": "mapping(address => uint256)",
						"numberOfBytes": "32",
						"value": "t_uint256"
					},
					"t_uint256": {
						"encoding": "inplace",
						"label": "uint256",
						"numberOfBytes": "32"
					}
				}
			},
			"userdoc": {
				"kind": "user",
				"methods": {},
				"version": 1
			}
		}
	}
}