{
	"data": {
		"bytecode": {
			"linkReferences": {},
			"object": "608060405234801561001057600080fd5b50610455806100206000396000f3fe608060405234801561001057600080fd5b50600436106100885760003560e01c8063a86f247a1161005b578063a86f247a146100ed578063cea299371461010b578063d09de08a14610127578063d826f88f1461013157610088565b806306661abd1461008d5780632baeceb7146100ab57806345bd1cf7146100b55780638c6fbc5d146100d1575b600080fd5b61009561013b565b6040516100a291906101fc565b60405180910390f35b6100b3610141565b005b6100cf60048036038101906100ca9190610248565b61015a565b005b6100eb60048036038101906100e69190610248565b610175565b005b6100f5610190565b60405161010291906101fc565b60405180910390f35b61012560048036038101906101209190610248565b6101a6565b005b61012f6101c1565b005b6101396101da565b005b60005481565b600080815480929190610153906102a4565b9190505550565b8060008082825461016b91906102cd565b9250508190555050565b806000808282546101869190610301565b9250508190555050565b6000603c6000546101a19190610364565b905090565b806000808282546101b79190610395565b9250508190555050565b6000808154809291906101d3906103d7565b9190505550565b60008081905550565b6000819050919050565b6101f6816101e3565b82525050565b600060208201905061021160008301846101ed565b92915050565b600080fd5b610225816101e3565b811461023057600080fd5b50565b6000813590506102428161021c565b92915050565b60006020828403121561025e5761025d610217565b5b600061026c84828501610233565b91505092915050565b7f4e487b7100000000000000000000000000000000000000000000000000000000600052601160045260246000fd5b60006102af826101e3565b9150600082036102c2576102c1610275565b5b600182039050919050565b60006102d8826101e3565b91506102e3836101e3565b92508282039050818111156102fb576102fa610275565b5b92915050565b600061030c826101e3565b9150610317836101e3565b925082820190508082111561032f5761032e610275565b5b92915050565b7f4e487b7100000000000000000000000000000000000000000000000000000000600052601260045260246000fd5b600061036f826101e3565b915061037a836101e3565b92508261038a57610389610335565b5b828204905092915050565b60006103a0826101e3565b91506103ab836101e3565b92508282026103b9816101e3565b915082820484148315176103d0576103cf610275565b5b5092915050565b60006103e2826101e3565b91507fffffffffffffffffffffffffffffffffffffffffffffffffffffffffffffffff820361041457610413610275565b5b60018201905091905056fea264697066735822122052bb3d470edd614d964442b8b651607d8581dc2f2d36c7bed446b79b4f39db9364736f6c63430008120033",
			"opcodes": "PUSH1 0x80 PUSH1 0x40 MSTORE CALLVALUE DUP1 ISZERO PUSH2 0x10 JUMPI PUSH1 0x0 DUP1 REVERT JUMPDEST POP PUSH2 0x455 DUP1 PUSH2 0x20 PUSH1 0x0 CODECOPY PUSH1 0x0 RETURN INVALID PUSH1 0x80 PUSH1 0x40 MSTORE CALLVALUE DUP1 ISZERO PUSH2 0x10 JUMPI PUSH1 0x0 DUP1 REVERT JUMPDEST POP PUSH1 0x4 CALLDATASIZE LT PUSH2 0x88 JUMPI PUSH1 0x0 CALLDATALOAD PUSH1 0xE0 SHR DUP1 PUSH4 0xA86F247A GT PUSH2 0x5B JUMPI DUP1 PUSH4 0xA86F247A EQ PUSH2 0xED JUMPI DUP1 PUSH4 0xCEA29937 EQ PUSH2 0x10B JUMPI DUP1 PUSH4 0xD09DE08A EQ PUSH2 0x127 JUMPI DUP1 PUSH4 0xD826F88F EQ PUSH2 0x131 JUMPI PUSH2 0x88 JUMP JUMPDEST DUP1 PUSH4 0x6661ABD EQ PUSH2 0x8D JUMPI DUP1 PUSH4 0x2BAECEB7 EQ PUSH2 0xAB JUMPI DUP1 PUSH4 0x45BD1CF7 EQ PUSH2 0xB5 JUMPI DUP1 PUSH4 0x8C6FBC5D EQ PUSH2 0xD1 JUMPI JUMPDEST PUSH1 0x0 DUP1 REVERT JUMPDEST PUSH2 0x95 PUSH2 0x13B JUMP JUMPDEST PUSH1 0x40 MLOAD PUSH2 0xA2 SWAP2 SWAP1 PUSH2 0x1FC JUMP JUMPDEST PUSH1 0x40 MLOAD DUP1 SWAP2 SUB SWAP1 RETURN JUMPDEST PUSH2 0xB3 PUSH2 0x141 JUMP JUMPDEST STOP JUMPDEST PUSH2 0xCF PUSH1 0x4 DUP1 CALLDATASIZE SUB DUP2 ADD SWAP1 PUSH2 0xCA SWAP2 SWAP1 PUSH2 0x248 JUMP JUMPDEST PUSH2 0x15A JUMP JUMPDEST STOP JUMPDEST PUSH2 0xEB PUSH1 0x4 DUP1 CALLDATASIZE SUB DUP2 ADD SWAP1 PUSH2 0xE6 SWAP2 SWAP1 PUSH2 0x248 JUMP JUMPDEST PUSH2 0x175 JUMP JUMPDEST STOP JUMPDEST PUSH2 0xF5 PUSH2 0x190 JUMP JUMPDEST PUSH1 0x40 MLOAD PUSH2 0x102 SWAP2 SWAP1 PUSH2 0x1FC JUMP JUMPDEST PUSH1 0x40 MLOAD DUP1 SWAP2 SUB SWAP1 RETURN JUMPDEST PUSH2 0x125 PUSH1 0x4 DUP1 CALLDATASIZE SUB DUP2 ADD SWAP1 PUSH2 0x120 SWAP2 SWAP1 PUSH2 0x248 JUMP JUMPDEST PUSH2 0x1A6 JUMP JUMPDEST STOP JUMPDEST PUSH2 0x12F PUSH2 0x1C1 JUMP JUMPDEST STOP JUMPDEST PUSH2 0x139 PUSH2 0x1DA JUMP JUMPDEST STOP JUMPDEST PUSH1 0x0 SLOAD DUP2 JUMP JUMPDEST PUSH1 0x0 DUP1 DUP2 SLOAD DUP1 SWAP3 SWAP2 SWAP1 PUSH2 0x153 SWAP1 PUSH2 0x2A4 JUMP JUMPDEST SWAP2 SWAP1 POP SSTORE POP JUMP JUMPDEST DUP1 PUSH1 0x0 DUP1 DUP3 DUP3 SLOAD PUSH2 0x16B SWAP2 SWAP1 PUSH2 0x2CD JUMP JUMPDEST SWAP3 POP POP DUP2 SWAP1 SSTORE POP POP JUMP JUMPDEST DUP1 PUSH1 0x0 DUP1 DUP3 DUP3 SLOAD PUSH2 0x186 SWAP2 SWAP1 PUSH2 0x301 JUMP JUMPDEST SWAP3 POP POP DUP2 SWAP1 SSTORE POP POP JUMP JUMPDEST PUSH1 0x0 PUSH1 0x3C PUSH1 0x0 SLOAD PUSH2 0x1A1 SWAP2 SWAP1 PUSH2 0x364 JUMP JUMPDEST SWAP1 POP SWAP1 JUMP JUMPDEST DUP1 PUSH1 0x0 DUP1 DUP3 DUP3 SLOAD PUSH2 0x1B7 SWAP2 SWAP1 PUSH2 0x395 JUMP JUMPDEST SWAP3 POP POP DUP2 SWAP1 SSTORE POP POP JUMP JUMPDEST PUSH1 0x0 DUP1 DUP2 SLOAD DUP1 SWAP3 SWAP2 SWAP1 PUSH2 0x1D3 SWAP1 PUSH2 0x3D7 JUMP JUMPDEST SWAP2 SWAP1 POP SSTORE POP JUMP JUMPDEST PUSH1 0x0 DUP1 DUP2 SWAP1 SSTORE POP JUMP JUMPDEST PUSH1 0x0 DUP2 SWAP1 POP SWAP2 SWAP1 POP JUMP JUMPDEST PUSH2 0x1F6 DUP2 PUSH2 0x1E3 JUMP JUMPDEST DUP3 MSTORE POP POP JUMP JUMPDEST PUSH1 0x0 PUSH1 0x20 DUP3 ADD SWAP1 POP PUSH2 0x211 PUSH1 0x0 DUP4 ADD DUP5 PUSH2 0x1ED JUMP JUMPDEST SWAP3 SWAP2 POP POP JUMP JUMPDEST PUSH1 0x0 DUP1 REVERT JUMPDEST PUSH2 0x225 DUP2 PUSH2 0x1E3 JUMP JUMPDEST DUP2 EQ PUSH2 0x230 JUMPI PUSH1 0x0 DUP1 REVERT JUMPDEST POP JUMP JUMPDEST PUSH1 0x0 DUP2 CALLDATALOAD SWAP1 POP PUSH2 0x242 DUP2 PUSH2 0x21C JUMP JUMPDEST SWAP3 SWAP2 POP POP JUMP JUMPDEST PUSH1 0x0 PUSH1 0x20 DUP3 DUP5 SUB SLT ISZERO PUSH2 0x25E JUMPI PUSH2 0x25D PUSH2 0x217 JUMP JUMPDEST JUMPDEST PUSH1 0x0 PUSH2 0x26C DUP5 DUP3 DUP6 ADD PUSH2 0x233 JUMP JUMPDEST SWAP2 POP POP SWAP3 SWAP2 POP POP JUMP JUMPDEST PUSH32 0x4E487B7100000000000000000000000000000000000000000000000000000000 PUSH1 0x0 MSTORE PUSH1 0x11 PUSH1 0x4 MSTORE PUSH1 0x24 PUSH1 0x0 REVERT JUMPDEST PUSH1 0x0 PUSH2 0x2AF DUP3 PUSH2 0x1E3 JUMP JUMPDEST SWAP2 POP PUSH1 0x0 DUP3 SUB PUSH2 0x2C2 JUMPI PUSH2 0x2C1 PUSH2 0x275 JUMP JUMPDEST JUMPDEST PUSH1 0x1 DUP3 SUB SWAP1 POP SWAP2 SWAP1 POP JUMP JUMPDEST PUSH1 0x0 PUSH2 0x2D8 DUP3 PUSH2 0x1E3 JUMP JUMPDEST SWAP2 POP PUSH2 0x2E3 DUP4 PUSH2 0x1E3 JUMP JUMPDEST SWAP3 POP DUP3 DUP3 SUB SWAP1 POP DUP2 DUP2 GT ISZERO PUSH2 0x2FB JUMPI PUSH2 0x2FA PUSH2 0x275 JUMP JUMPDEST JUMPDEST SWAP3 SWAP2 POP POP JUMP JUMPDEST PUSH1 0x0 PUSH2 0x30C DUP3 PUSH2 0x1E3 JUMP JUMPDEST SWAP2 POP PUSH2 0x317 DUP4 PUSH2 0x1E3 JUMP JUMPDEST SWAP3 POP DUP3 DUP3 ADD SWAP1 POP DUP1 DUP3 GT ISZERO PUSH2 0x32F JUMPI PUSH2 0x32E PUSH2 0x275 JUMP JUMPDEST JUMPDEST SWAP3 SWAP2 POP POP JUMP JUMPDEST PUSH32 0x4E487B7100000000000000000000000000000000000000000000000000000000 PUSH1 0x0 MSTORE PUSH1 0x12 PUSH1 0x4 MSTORE PUSH1 0x24 PUSH1 0x0 REVERT JUMPDEST PUSH1 0x0 PUSH2 0x36F DUP3 PUSH2 0x1E3 JUMP JUMPDEST SWAP2 POP PUSH2 0x37A DUP4 PUSH2 0x1E3 JUMP JUMPDEST SWAP3 POP DUP3 PUSH2 0x38A JUMPI PUSH2 0x389 PUSH2 0x335 JUMP JUMPDEST JUMPDEST DUP3 DUP3 DIV SWAP1 POP SWAP3 SWAP2 POP POP JUMP JUMPDEST PUSH1 0x0 PUSH2 0x3A0 DUP3 PUSH2 0x1E3 JUMP JUMPDEST SWAP2 POP PUSH2 0x3AB DUP4 PUSH2 0x1E3 JUMP JUMPDEST SWAP3 POP DUP3 DUP3 MUL PUSH2 0x3B9 DUP2 PUSH2 0x1E3 JUMP JUMPDEST SWAP2 POP DUP3 DUP3 DIV DUP5 EQ DUP4 ISZERO OR PUSH2 0x3D0 JUMPI PUSH2 0x3CF PUSH2 0x275 JUMP JUMPDEST JUMPDEST POP SWAP3 SWAP2 POP POP JUMP JUMPDEST PUSH1 0x0 PUSH2 0x3E2 DUP3 PUSH2 0x1E3 JUMP JUMPDEST SWAP2 POP PUSH32 0xFFFFFFFFFFFFFFFFFFFFFFFFFFFFFFFFFFFFFFFFFFFFFFFFFFFFFFFFFFFFFFFF DUP3 SUB PUSH2 0x414 JUMPI PUSH2 0x413 PUSH2 0x275 JUMP JUMPDEST JUMPDEST PUSH1 0x1 DUP3 ADD SWAP1 POP SWAP2 SWAP1 POP JUMP INVALID LOG2 PUSH5 0x6970667358 0x22 SLT KECCAK256 MSTORE 0xBB RETURNDATASIZE SELFBALANCE 0xE 0xDD PUSH2 0x4D96 PREVRANDAO TIMESTAMP 0xB8 0xB6 MLOAD PUSH1 0x7D DUP6 DUP2 0xDC 0x2F 0x2D CALLDATASIZE 0xC7 0xBE 0xD4 CHAINID 0xB7 SWAP12 0x4F CODECOPY 0xDB SWAP4 PUSH5 0x736F6C6343 STOP ADDMOD SLT STOP CALLER "
		},
		"gasEstimates": {
			"creation": {
				"codeDepositCost": "221800",
				"executionCost": "263",
				"totalCost": "222063"
			},
			"external": {
				"addBY(uint256)": "infinite",
				"count()": "2430",
				"decrement()": "24524",
				"getminutesElapsed()": "infinite",
				"increment()": "24545",
				"multiplyBy(uint256)": "infinite",
				"reset()": "5224",
				"subtractBy(uint256)": "infinite"
			}
		},
		"methodIdentifiers": {
			"addBY(uint256)": "8c6fbc5d",
			"count()": "06661abd",
			"decrement()": "2baeceb7",
			"getminutesElapsed()": "a86f247a",
			"increment()": "d09de08a",
			"multiplyBy(uint256)": "cea29937",
			"reset()": "d826f88f",
			"subtractBy(uint256)": "45bd1cf7"
		}
	},
	"abi": [
		{
			"inputs": [
				{
					"internalType": "uint256",
					"name": "value",
					"type": "uint256"
				}
			],
			"name": "addBY",
			"outputs": [],
			"stateMutability": "nonpayable",
			"type": "function"
		},
		{
			"inputs": [],
			"name": "count",
			"outputs": [
				{
					"internalType": "uint256",
					"name": "",
					"type": "uint256"
				}
			],
			"stateMutability": "view",
			"type": "function"
		},
		{
			"inputs": [],
			"name": "decrement",
			"outputs": [],
			"stateMutability": "nonpayable",
			"type": "function"
		},
		{
			"inputs": [],
			"name": "getminutesElapsed",
			"outputs": [
				{
					"internalType": "uint256",
					"name": "",
					"type": "uint256"
				}
			],
			"stateMutability": "view",
			"type": "function"
		},
		{
			"inputs": [],
			"name": "increment",
			"outputs": [],
			"stateMutability": "nonpayable",
			"type": "function"
		},
		{
			"inputs": [
				{
					"internalType": "uint256",
					"name": "value",
					"type": "uint256"
				}
			],
			"name": "multiplyBy",
			"outputs": [],
			"stateMutability": "nonpayable",
			"type": "function"
		},
		{
			"inputs": [],
			"name": "reset",
			"outputs": [],
			"stateMutability": "nonpayable",
			"type": "function"
		},
		{
			"inputs": [
				{
					"internalType": "uint256",
					"name": "value",
					"type": "uint256"
				}
			],
			"name": "subtractBy",
			"outputs": [],
			"stateMutability": "nonpayable",
			"type": "function"
		}
	]
}