{
	"data": {
		"bytecode": {
			"linkReferences": {},
			"object": "608060405234801561001057600080fd5b50610200806100206000396000f3fe6080604052600436106100435760003560e01c80631b9265b81461007b5780635d6a3e7d1461008557806383a6deb5146100b05780638d145d2e146100db57610061565b366100615734600080828254610059919061016c565b925050819055005b3460016000828254610073919061016c565b925050819055005b610083610106565b005b34801561009157600080fd5b5061009a610121565b6040516100a791906101af565b60405180910390f35b3480156100bc57600080fd5b506100c5610127565b6040516100d291906101af565b60405180910390f35b3480156100e757600080fd5b506100f061012d565b6040516100fd91906101af565b60405180910390f35b3460026000828254610118919061016c565b92505081905550565b60015481565b60005481565b60025481565b6000819050919050565b7f4e487b7100000000000000000000000000000000000000000000000000000000600052601160045260246000fd5b600061017782610133565b915061018283610133565b925082820190508082111561019a5761019961013d565b5b92915050565b6101a981610133565b82525050565b60006020820190506101c460008301846101a0565b9291505056fea2646970667358221220f8a72185ce103ec7e0df05f99b40e8b0793d7ed84e8a21fa71648e85bd582adb64736f6c63430008120033",
			"opcodes": "PUSH1 0x80 PUSH1 0x40 MSTORE CALLVALUE DUP1 ISZERO PUSH2 0x10 JUMPI PUSH1 0x0 DUP1 REVERT JUMPDEST POP PUSH2 0x200 DUP1 PUSH2 0x20 PUSH1 0x0 CODECOPY PUSH1 0x0 RETURN INVALID PUSH1 0x80 PUSH1 0x40 MSTORE PUSH1 0x4 CALLDATASIZE LT PUSH2 0x43 JUMPI PUSH1 0x0 CALLDATALOAD PUSH1 0xE0 SHR DUP1 PUSH4 0x1B9265B8 EQ PUSH2 0x7B JUMPI DUP1 PUSH4 0x5D6A3E7D EQ PUSH2 0x85 JUMPI DUP1 PUSH4 0x83A6DEB5 EQ PUSH2 0xB0 JUMPI DUP1 PUSH4 0x8D145D2E EQ PUSH2 0xDB JUMPI PUSH2 0x61 JUMP JUMPDEST CALLDATASIZE PUSH2 0x61 JUMPI CALLVALUE PUSH1 0x0 DUP1 DUP3 DUP3 SLOAD PUSH2 0x59 SWAP2 SWAP1 PUSH2 0x16C JUMP JUMPDEST SWAP3 POP POP DUP2 SWAP1 SSTORE STOP JUMPDEST CALLVALUE PUSH1 0x1 PUSH1 0x0 DUP3 DUP3 SLOAD PUSH2 0x73 SWAP2 SWAP1 PUSH2 0x16C JUMP JUMPDEST SWAP3 POP POP DUP2 SWAP1 SSTORE STOP JUMPDEST PUSH2 0x83 PUSH2 0x106 JUMP JUMPDEST STOP JUMPDEST CALLVALUE DUP1 ISZERO PUSH2 0x91 JUMPI PUSH1 0x0 DUP1 REVERT JUMPDEST POP PUSH2 0x9A PUSH2 0x121 JUMP JUMPDEST PUSH1 0x40 MLOAD PUSH2 0xA7 SWAP2 SWAP1 PUSH2 0x1AF JUMP JUMPDEST PUSH1 0x40 MLOAD DUP1 SWAP2 SUB SWAP1 RETURN JUMPDEST CALLVALUE DUP1 ISZERO PUSH2 0xBC JUMPI PUSH1 0x0 DUP1 REVERT JUMPDEST POP PUSH2 0xC5 PUSH2 0x127 JUMP JUMPDEST PUSH1 0x40 MLOAD PUSH2 0xD2 SWAP2 SWAP1 PUSH2 0x1AF JUMP JUMPDEST PUSH1 0x40 MLOAD DUP1 SWAP2 SUB SWAP1 RETURN JUMPDEST CALLVALUE DUP1 ISZERO PUSH2 0xE7 JUMPI PUSH1 0x0 DUP1 REVERT JUMPDEST POP PUSH2 0xF0 PUSH2 0x12D JUMP JUMPDEST PUSH1 0x40 MLOAD PUSH2 0xFD SWAP2 SWAP1 PUSH2 0x1AF JUMP JUMPDEST PUSH1 0x40 MLOAD DUP1 SWAP2 SUB SWAP1 RETURN JUMPDEST CALLVALUE PUSH1 0x2 PUSH1 0x0 DUP3 DUP3 SLOAD PUSH2 0x118 SWAP2 SWAP1 PUSH2 0x16C JUMP JUMPDEST SWAP3 POP POP DUP2 SWAP1 SSTORE POP JUMP JUMPDEST PUSH1 0x1 SLOAD DUP2 JUMP JUMPDEST PUSH1 0x0 SLOAD DUP2 JUMP JUMPDEST PUSH1 0x2 SLOAD DUP2 JUMP JUMPDEST PUSH1 0x0 DUP2 SWAP1 POP SWAP2 SWAP1 POP JUMP JUMPDEST PUSH32 0x4E487B7100000000000000000000000000000000000000000000000000000000 PUSH1 0x0 MSTORE PUSH1 0x11 PUSH1 0x4 MSTORE PUSH1 0x24 PUSH1 0x0 REVERT JUMPDEST PUSH1 0x0 PUSH2 0x177 DUP3 PUSH2 0x133 JUMP JUMPDEST SWAP2 POP PUSH2 0x182 DUP4 PUSH2 0x133 JUMP JUMPDEST SWAP3 POP DUP3 DUP3 ADD SWAP1 POP DUP1 DUP3 GT ISZERO PUSH2 0x19A JUMPI PUSH2 0x199 PUSH2 0x13D JUMP JUMPDEST JUMPDEST SWAP3 SWAP2 POP POP JUMP JUMPDEST PUSH2 0x1A9 DUP2 PUSH2 0x133 JUMP JUMPDEST DUP3 MSTORE POP POP JUMP JUMPDEST PUSH1 0x0 PUSH1 0x20 DUP3 ADD SWAP1 POP PUSH2 0x1C4 PUSH1 0x0 DUP4 ADD DUP5 PUSH2 0x1A0 JUMP JUMPDEST SWAP3 SWAP2 POP POP JUMP INVALID LOG2 PUSH5 0x6970667358 0x22 SLT KECCAK256 0xF8 0xA7 0x21 DUP6 0xCE LT RETURNDATACOPY 0xC7 0xE0 0xDF SDIV 0xF9 SWAP12 BLOCKHASH 0xE8 0xB0 PUSH26 0x3D7ED84E8A21FA71648E85BD582ADB64736F6C63430008120033 "
		},
		"gasEstimates": {
			"creation": {
				"codeDepositCost": "102400",
				"executionCost": "147",
				"totalCost": "102547"
			},
			"external": {
				"": "infinite",
				"fallbackReceived()": "2429",
				"pay()": "infinite",
				"payRecieved()": "2473",
				"received()": "2451"
			}
		},
		"methodIdentifiers": {
			"fallbackReceived()": "5d6a3e7d",
			"pay()": "1b9265b8",
			"payRecieved()": "8d145d2e",
			"received()": "83a6deb5"
		}
	},
	"abi": [
		{
			"stateMutability": "payable",
			"type": "fallback"
		},
		{
			"inputs": [],
			"name": "fallbackReceived",
			"outputs": [
				{
					"internalType": "uint256",
					"name": "",
					"type": "uint256"
				}
			],
			"stateMutability": "view",
			"type": "function"
		},
		{
			"inputs": [],
			"name": "pay",
			"outputs": [],
			"stateMutability": "payable",
			"type": "function"
		},
		{
			"inputs": [],
			"name": "payRecieved",
			"outputs": [
				{
					"internalType": "uint256",
					"name": "",
					"type": "uint256"
				}
			],
			"stateMutability": "view",
			"type": "function"
		},
		{
			"inputs": [],
			"name": "received",
			"outputs": [
				{
					"internalType": "uint256",
					"name": "",
					"type": "uint256"
				}
			],
			"stateMutability": "view",
			"type": "function"
		},
		{
			"stateMutability": "payable",
			"type": "receive"
		}
	]
}