{
	"data": {
		"bytecode": {
			"linkReferences": {},
			"object": "608060405234801561001057600080fd5b50610274806100206000396000f3fe608060405234801561001057600080fd5b506004361061004c5760003560e01c80639f6ee0fc14610051578063b0ad3a5f14610081578063e95e21bc146100b1578063f1f3da0e146100e1575b600080fd5b61006b600480360381019061006691906101a7565b610111565b60405161007891906101f6565b60405180910390f35b61009b60048036038101906100969190610211565b610125565b6040516100a891906101f6565b60405180910390f35b6100cb60048036038101906100c691906101a7565b610130565b6040516100d891906101f6565b60405180910390f35b6100fb60048036038101906100f691906101a7565b610157565b60405161010891906101f6565b60405180910390f35b600082801561011d5750815b905092915050565b600081159050919050565b600082801561013d575081155b8061014f57508215801561014e5750815b5b905092915050565b600082806101625750815b905092915050565b600080fd5b60008115159050919050565b6101848161016f565b811461018f57600080fd5b50565b6000813590506101a18161017b565b92915050565b600080604083850312156101be576101bd61016a565b5b60006101cc85828601610192565b92505060206101dd85828601610192565b9150509250929050565b6101f08161016f565b82525050565b600060208201905061020b60008301846101e7565b92915050565b6000602082840312156102275761022661016a565b5b600061023584828501610192565b9150509291505056fea264697066735822122029a2d4411880029ba24ec8615f0523fde9db0770df6f5a2f3a9d89737ee27b8e64736f6c63430008120033",
			"opcodes": "PUSH1 0x80 PUSH1 0x40 MSTORE CALLVALUE DUP1 ISZERO PUSH2 0x10 JUMPI PUSH1 0x0 DUP1 REVERT JUMPDEST POP PUSH2 0x274 DUP1 PUSH2 0x20 PUSH1 0x0 CODECOPY PUSH1 0x0 RETURN INVALID PUSH1 0x80 PUSH1 0x40 MSTORE CALLVALUE DUP1 ISZERO PUSH2 0x10 JUMPI PUSH1 0x0 DUP1 REVERT JUMPDEST POP PUSH1 0x4 CALLDATASIZE LT PUSH2 0x4C JUMPI PUSH1 0x0 CALLDATALOAD PUSH1 0xE0 SHR DUP1 PUSH4 0x9F6EE0FC EQ PUSH2 0x51 JUMPI DUP1 PUSH4 0xB0AD3A5F EQ PUSH2 0x81 JUMPI DUP1 PUSH4 0xE95E21BC EQ PUSH2 0xB1 JUMPI DUP1 PUSH4 0xF1F3DA0E EQ PUSH2 0xE1 JUMPI JUMPDEST PUSH1 0x0 DUP1 REVERT JUMPDEST PUSH2 0x6B PUSH1 0x4 DUP1 CALLDATASIZE SUB DUP2 ADD SWAP1 PUSH2 0x66 SWAP2 SWAP1 PUSH2 0x1A7 JUMP JUMPDEST PUSH2 0x111 JUMP JUMPDEST PUSH1 0x40 MLOAD PUSH2 0x78 SWAP2 SWAP1 PUSH2 0x1F6 JUMP JUMPDEST PUSH1 0x40 MLOAD DUP1 SWAP2 SUB SWAP1 RETURN JUMPDEST PUSH2 0x9B PUSH1 0x4 DUP1 CALLDATASIZE SUB DUP2 ADD SWAP1 PUSH2 0x96 SWAP2 SWAP1 PUSH2 0x211 JUMP JUMPDEST PUSH2 0x125 JUMP JUMPDEST PUSH1 0x40 MLOAD PUSH2 0xA8 SWAP2 SWAP1 PUSH2 0x1F6 JUMP JUMPDEST PUSH1 0x40 MLOAD DUP1 SWAP2 SUB SWAP1 RETURN JUMPDEST PUSH2 0xCB PUSH1 0x4 DUP1 CALLDATASIZE SUB DUP2 ADD SWAP1 PUSH2 0xC6 SWAP2 SWAP1 PUSH2 0x1A7 JUMP JUMPDEST PUSH2 0x130 JUMP JUMPDEST PUSH1 0x40 MLOAD PUSH2 0xD8 SWAP2 SWAP1 PUSH2 0x1F6 JUMP JUMPDEST PUSH1 0x40 MLOAD DUP1 SWAP2 SUB SWAP1 RETURN JUMPDEST PUSH2 0xFB PUSH1 0x4 DUP1 CALLDATASIZE SUB DUP2 ADD SWAP1 PUSH2 0xF6 SWAP2 SWAP1 PUSH2 0x1A7 JUMP JUMPDEST PUSH2 0x157 JUMP JUMPDEST PUSH1 0x40 MLOAD PUSH2 0x108 SWAP2 SWAP1 PUSH2 0x1F6 JUMP JUMPDEST PUSH1 0x40 MLOAD DUP1 SWAP2 SUB SWAP1 RETURN JUMPDEST PUSH1 0x0 DUP3 DUP1 ISZERO PUSH2 0x11D JUMPI POP DUP2 JUMPDEST SWAP1 POP SWAP3 SWAP2 POP POP JUMP JUMPDEST PUSH1 0x0 DUP2 ISZERO SWAP1 POP SWAP2 SWAP1 POP JUMP JUMPDEST PUSH1 0x0 DUP3 DUP1 ISZERO PUSH2 0x13D JUMPI POP DUP2 ISZERO JUMPDEST DUP1 PUSH2 0x14F JUMPI POP DUP3 ISZERO DUP1 ISZERO PUSH2 0x14E JUMPI POP DUP2 JUMPDEST JUMPDEST SWAP1 POP SWAP3 SWAP2 POP POP JUMP JUMPDEST PUSH1 0x0 DUP3 DUP1 PUSH2 0x162 JUMPI POP DUP2 JUMPDEST SWAP1 POP SWAP3 SWAP2 POP POP JUMP JUMPDEST PUSH1 0x0 DUP1 REVERT JUMPDEST PUSH1 0x0 DUP2 ISZERO ISZERO SWAP1 POP SWAP2 SWAP1 POP JUMP JUMPDEST PUSH2 0x184 DUP2 PUSH2 0x16F JUMP JUMPDEST DUP2 EQ PUSH2 0x18F JUMPI PUSH1 0x0 DUP1 REVERT JUMPDEST POP JUMP JUMPDEST PUSH1 0x0 DUP2 CALLDATALOAD SWAP1 POP PUSH2 0x1A1 DUP2 PUSH2 0x17B JUMP JUMPDEST SWAP3 SWAP2 POP POP JUMP JUMPDEST PUSH1 0x0 DUP1 PUSH1 0x40 DUP4 DUP6 SUB SLT ISZERO PUSH2 0x1BE JUMPI PUSH2 0x1BD PUSH2 0x16A JUMP JUMPDEST JUMPDEST PUSH1 0x0 PUSH2 0x1CC DUP6 DUP3 DUP7 ADD PUSH2 0x192 JUMP JUMPDEST SWAP3 POP POP PUSH1 0x20 PUSH2 0x1DD DUP6 DUP3 DUP7 ADD PUSH2 0x192 JUMP JUMPDEST SWAP2 POP POP SWAP3 POP SWAP3 SWAP1 POP JUMP JUMPDEST PUSH2 0x1F0 DUP2 PUSH2 0x16F JUMP JUMPDEST DUP3 MSTORE POP POP JUMP JUMPDEST PUSH1 0x0 PUSH1 0x20 DUP3 ADD SWAP1 POP PUSH2 0x20B PUSH1 0x0 DUP4 ADD DUP5 PUSH2 0x1E7 JUMP JUMPDEST SWAP3 SWAP2 POP POP JUMP JUMPDEST PUSH1 0x0 PUSH1 0x20 DUP3 DUP5 SUB SLT ISZERO PUSH2 0x227 JUMPI PUSH2 0x226 PUSH2 0x16A JUMP JUMPDEST JUMPDEST PUSH1 0x0 PUSH2 0x235 DUP5 DUP3 DUP6 ADD PUSH2 0x192 JUMP JUMPDEST SWAP2 POP POP SWAP3 SWAP2 POP POP JUMP INVALID LOG2 PUSH5 0x6970667358 0x22 SLT KECCAK256 0x29 LOG2 0xD4 COINBASE XOR DUP1 MUL SWAP12 LOG2 0x4E 0xC8 PUSH2 0x5F05 0x23 REVERT 0xE9 0xDB SMOD PUSH17 0xDF6F5A2F3A9D89737EE27B8E64736F6C63 NUMBER STOP ADDMOD SLT STOP CALLER "
		},
		"gasEstimates": {
			"creation": {
				"codeDepositCost": "125600",
				"executionCost": "171",
				"totalCost": "125771"
			},
			"external": {
				"and(bool,bool)": "infinite",
				"not(bool)": "infinite",
				"or(bool,bool)": "infinite",
				"xor(bool,bool)": "infinite"
			}
		},
		"methodIdentifiers": {
			"and(bool,bool)": "9f6ee0fc",
			"not(bool)": "b0ad3a5f",
			"or(bool,bool)": "f1f3da0e",
			"xor(bool,bool)": "e95e21bc"
		}
	},
	"abi": [
		{
			"inputs": [
				{
					"internalType": "bool",
					"name": "a",
					"type": "bool"
				},
				{
					"internalType": "bool",
					"name": "b",
					"type": "bool"
				}
			],
			"name": "and",
			"outputs": [
				{
					"internalType": "bool",
					"name": "",
					"type": "bool"
				}
			],
			"stateMutability": "pure",
			"type": "function"
		},
		{
			"inputs": [
				{
					"internalType": "bool",
					"name": "a",
					"type": "bool"
				}
			],
			"name": "not",
			"outputs": [
				{
					"internalType": "bool",
					"name": "",
					"type": "bool"
				}
			],
			"stateMutability": "pure",
			"type": "function"
		},
		{
			"inputs": [
				{
					"internalType": "bool",
					"name": "a",
					"type": "bool"
				},
				{
					"internalType": "bool",
					"name": "b",
					"type": "bool"
				}
			],
			"name": "or",
			"outputs": [
				{
					"internalType": "bool",
					"name": "",
					"type": "bool"
				}
			],
			"stateMutability": "pure",
			"type": "function"
		},
		{
			"inputs": [
				{
					"internalType": "bool",
					"name": "a",
					"type": "bool"
				},
				{
					"internalType": "bool",
					"name": "b",
					"type": "bool"
				}
			],
			"name": "xor",
			"outputs": [
				{
					"internalType": "bool",
					"name": "",
					"type": "bool"
				}
			],
			"stateMutability": "pure",
			"type": "function"
		}
	]
}